{
  "_format": "hh-sol-artifact-1",
  "contractName": "AccessControlManager",
  "sourceName": "contracts/core/AccessControlManager.sol",
  "abi": [
    {
      "inputs": [
        {
          "internalType": "address",
          "name": "_registry",
          "type": "address"
        }
      ],
      "stateMutability": "nonpayable",
      "type": "constructor"
    },
    {
      "inputs": [],
      "name": "ContractPaused",
      "type": "error"
    },
    {
      "inputs": [],
      "name": "InvalidRole",
      "type": "error"
    },
    {
      "inputs": [
        {
          "internalType": "address",
          "name": "account",
          "type": "address"
        },
        {
          "internalType": "bytes32",
          "name": "role",
          "type": "bytes32"
        }
      ],
      "name": "NotRoleAdmin",
      "type": "error"
    },
    {
      "inputs": [
        {
          "internalType": "address",
          "name": "account",
          "type": "address"
        },
        {
          "internalType": "bytes32",
          "name": "role",
          "type": "bytes32"
        }
      ],
      "name": "RoleAlreadyGranted",
      "type": "error"
    },
    {
      "inputs": [
        {
          "internalType": "address",
          "name": "account",
          "type": "address"
        },
        {
          "internalType": "bytes32",
          "name": "role",
          "type": "bytes32"
        }
      ],
      "name": "RoleNotHeld",
      "type": "error"
    },
    {
      "inputs": [
        {
          "internalType": "address",
          "name": "account",
          "type": "address"
        },
        {
          "internalType": "bytes32",
          "name": "role",
          "type": "bytes32"
        }
      ],
      "name": "UnauthorizedAccess",
      "type": "error"
    },
    {
      "inputs": [],
      "name": "ZeroAddress",
      "type": "error"
    },
    {
      "anonymous": false,
      "inputs": [
        {
          "indexed": false,
          "internalType": "bool",
          "name": "isPaused",
          "type": "bool"
        }
      ],
      "name": "AccessControlPaused",
      "type": "event"
    },
    {
      "anonymous": false,
      "inputs": [
        {
          "indexed": true,
          "internalType": "bytes32",
          "name": "role",
          "type": "bytes32"
        },
        {
          "indexed": true,
          "internalType": "bytes32",
          "name": "previousAdminRole",
          "type": "bytes32"
        },
        {
          "indexed": true,
          "internalType": "bytes32",
          "name": "newAdminRole",
          "type": "bytes32"
        }
      ],
      "name": "RoleAdminChanged",
      "type": "event"
    },
    {
      "anonymous": false,
      "inputs": [
        {
          "indexed": true,
          "internalType": "bytes32",
          "name": "role",
          "type": "bytes32"
        },
        {
          "indexed": true,
          "internalType": "address",
          "name": "account",
          "type": "address"
        },
        {
          "indexed": true,
          "internalType": "address",
          "name": "sender",
          "type": "address"
        },
        {
          "indexed": false,
          "internalType": "uint256",
          "name": "timestamp",
          "type": "uint256"
        }
      ],
      "name": "RoleGranted",
      "type": "event"
    },
    {
      "anonymous": false,
      "inputs": [
        {
          "indexed": true,
          "internalType": "bytes32",
          "name": "role",
          "type": "bytes32"
        },
        {
          "indexed": true,
          "internalType": "address",
          "name": "account",
          "type": "address"
        },
        {
          "indexed": true,
          "internalType": "address",
          "name": "sender",
          "type": "address"
        },
        {
          "indexed": false,
          "internalType": "uint256",
          "name": "timestamp",
          "type": "uint256"
        }
      ],
      "name": "RoleRevoked",
      "type": "event"
    },
    {
      "inputs": [],
      "name": "ADMIN_ROLE",
      "outputs": [
        {
          "internalType": "bytes32",
          "name": "",
          "type": "bytes32"
        }
      ],
      "stateMutability": "view",
      "type": "function"
    },
    {
      "inputs": [],
      "name": "DEFAULT_ADMIN_ROLE",
      "outputs": [
        {
          "internalType": "bytes32",
          "name": "",
          "type": "bytes32"
        }
      ],
      "stateMutability": "view",
      "type": "function"
    },
    {
      "inputs": [],
      "name": "OPERATOR_ROLE",
      "outputs": [
        {
          "internalType": "bytes32",
          "name": "",
          "type": "bytes32"
        }
      ],
      "stateMutability": "view",
      "type": "function"
    },
    {
      "inputs": [],
      "name": "PAUSER_ROLE",
      "outputs": [
        {
          "internalType": "bytes32",
          "name": "",
          "type": "bytes32"
        }
      ],
      "stateMutability": "view",
      "type": "function"
    },
    {
      "inputs": [],
      "name": "RESOLVER_ROLE",
      "outputs": [
        {
          "internalType": "bytes32",
          "name": "",
          "type": "bytes32"
        }
      ],
      "stateMutability": "view",
      "type": "function"
    },
    {
      "inputs": [],
      "name": "TREASURY_ROLE",
      "outputs": [
        {
          "internalType": "bytes32",
          "name": "",
          "type": "bytes32"
        }
      ],
      "stateMutability": "view",
      "type": "function"
    },
    {
      "inputs": [
        {
          "internalType": "bytes32",
          "name": "role",
          "type": "bytes32"
        },
        {
          "internalType": "address",
          "name": "account",
          "type": "address"
        }
      ],
      "name": "checkRole",
      "outputs": [],
      "stateMutability": "view",
      "type": "function"
    },
    {
      "inputs": [
        {
          "internalType": "bytes32",
          "name": "role",
          "type": "bytes32"
        }
      ],
      "name": "getAllRoleMembers",
      "outputs": [
        {
          "internalType": "address[]",
          "name": "",
          "type": "address[]"
        }
      ],
      "stateMutability": "view",
      "type": "function"
    },
    {
      "inputs": [
        {
          "internalType": "bytes32",
          "name": "role",
          "type": "bytes32"
        }
      ],
      "name": "getRoleAdmin",
      "outputs": [
        {
          "internalType": "bytes32",
          "name": "",
          "type": "bytes32"
        }
      ],
      "stateMutability": "view",
      "type": "function"
    },
    {
      "inputs": [
        {
          "internalType": "bytes32",
          "name": "role",
          "type": "bytes32"
        },
        {
          "internalType": "uint256",
          "name": "index",
          "type": "uint256"
        }
      ],
      "name": "getRoleMember",
      "outputs": [
        {
          "internalType": "address",
          "name": "",
          "type": "address"
        }
      ],
      "stateMutability": "view",
      "type": "function"
    },
    {
      "inputs": [
        {
          "internalType": "bytes32",
          "name": "role",
          "type": "bytes32"
        }
      ],
      "name": "getRoleMemberCount",
      "outputs": [
        {
          "internalType": "uint256",
          "name": "",
          "type": "uint256"
        }
      ],
      "stateMutability": "view",
      "type": "function"
    },
    {
      "inputs": [
        {
          "internalType": "bytes32",
          "name": "role",
          "type": "bytes32"
        },
        {
          "internalType": "address",
          "name": "account",
          "type": "address"
        }
      ],
      "name": "grantRole",
      "outputs": [],
      "stateMutability": "nonpayable",
      "type": "function"
    },
    {
      "inputs": [
        {
          "internalType": "bytes32",
          "name": "role",
          "type": "bytes32"
        },
        {
          "internalType": "address[]",
          "name": "accounts",
          "type": "address[]"
        }
      ],
      "name": "grantRoleBatch",
      "outputs": [],
      "stateMutability": "nonpayable",
      "type": "function"
    },
    {
      "inputs": [
        {
          "internalType": "bytes32[]",
          "name": "roles",
          "type": "bytes32[]"
        },
        {
          "internalType": "address",
          "name": "account",
          "type": "address"
        }
      ],
      "name": "hasAllRoles",
      "outputs": [
        {
          "internalType": "bool",
          "name": "",
          "type": "bool"
        }
      ],
      "stateMutability": "view",
      "type": "function"
    },
    {
      "inputs": [
        {
          "internalType": "bytes32[]",
          "name": "roles",
          "type": "bytes32[]"
        },
        {
          "internalType": "address",
          "name": "account",
          "type": "address"
        }
      ],
      "name": "hasAnyRole",
      "outputs": [
        {
          "internalType": "bool",
          "name": "",
          "type": "bool"
        }
      ],
      "stateMutability": "view",
      "type": "function"
    },
    {
      "inputs": [
        {
          "internalType": "bytes32",
          "name": "role",
          "type": "bytes32"
        },
        {
          "internalType": "address",
          "name": "account",
          "type": "address"
        }
      ],
      "name": "hasRole",
      "outputs": [
        {
          "internalType": "bool",
          "name": "",
          "type": "bool"
        }
      ],
      "stateMutability": "view",
      "type": "function"
    },
    {
      "inputs": [],
      "name": "pause",
      "outputs": [],
      "stateMutability": "nonpayable",
      "type": "function"
    },
    {
      "inputs": [],
      "name": "paused",
      "outputs": [
        {
          "internalType": "bool",
          "name": "",
          "type": "bool"
        }
      ],
      "stateMutability": "view",
      "type": "function"
    },
    {
      "inputs": [],
      "name": "registry",
      "outputs": [
        {
          "internalType": "address",
          "name": "",
          "type": "address"
        }
      ],
      "stateMutability": "view",
      "type": "function"
    },
    {
      "inputs": [
        {
          "internalType": "bytes32",
          "name": "role",
          "type": "bytes32"
        }
      ],
      "name": "renounceRole",
      "outputs": [],
      "stateMutability": "nonpayable",
      "type": "function"
    },
    {
      "inputs": [
        {
          "internalType": "bytes32",
          "name": "role",
          "type": "bytes32"
        },
        {
          "internalType": "address",
          "name": "account",
          "type": "address"
        }
      ],
      "name": "revokeRole",
      "outputs": [],
      "stateMutability": "nonpayable",
      "type": "function"
    },
    {
      "inputs": [
        {
          "internalType": "bytes32",
          "name": "role",
          "type": "bytes32"
        },
        {
          "internalType": "address[]",
          "name": "accounts",
          "type": "address[]"
        }
      ],
      "name": "revokeRoleBatch",
      "outputs": [],
      "stateMutability": "nonpayable",
      "type": "function"
    },
    {
      "inputs": [
        {
          "internalType": "bytes32",
          "name": "role",
          "type": "bytes32"
        },
        {
          "internalType": "bytes32",
          "name": "adminRole",
          "type": "bytes32"
        }
      ],
      "name": "setRoleAdmin",
      "outputs": [],
      "stateMutability": "nonpayable",
      "type": "function"
    },
    {
      "inputs": [
        {
          "internalType": "bytes32",
          "name": "role",
          "type": "bytes32"
        }
      ],
      "name": "supportsRole",
      "outputs": [
        {
          "internalType": "bool",
          "name": "",
          "type": "bool"
        }
      ],
      "stateMutability": "pure",
      "type": "function"
    },
    {
      "inputs": [],
      "name": "unpause",
      "outputs": [],
      "stateMutability": "nonpayable",
      "type": "function"
    }
  ],
  "bytecode": "0x60a0346101b657601f610fb838819003918201601f1916830192916001600160401b038411838510176101bb57808392604095865283396020928391810103126101b657516001600160a01b0381168082036101b657156101a557608052331561019457600090818052600190818152838320338452815260ff848420541615600014610176578280528181528383203384528152838320805460ff191683179055828052818152838320600201805490680100000000000000008210156101625783820180825582101561014e57908392918552818520013360018060a01b031982541617905583805281815284842060036002820154913387520182528585205584514281523390857f2d5eca95f1f9ca81cacc102a9fd22dc355542cf1e45d38e2eb2fd90f57fac33c843393a483805252828220015551610de690816101d28239608051816105b80152f35b634e487b7160e01b85526032600452602485fd5b634e487b7160e01b85526041600452602485fd5b83516331b8eae360e21b815233600482015260248101849052604490fd5b815163d92e233d60e01b8152600490fd5b825163d92e233d60e01b8152600490fd5b600080fd5b634e487b7160e01b600052604160045260246000fdfe6040608081526004908136101561001557600080fd5b600091823560e01c806312d9a6ad146107ef5780631e4e009114610762578063248a9ca3146107395780632f2ff15d146106ee5780633f4ba83a1461069f5780635c975abb1461067d578063717791801461065d57806375b238fc1461062257806378fab260146105e75780637b103999146105a357806382f51fa6146105395780638456cb59146104e65780638bb9c5bf146104c75780639010d07c1461048457806391d148541461043e578063a217fddf14610423578063a613cc3d14610407578063a6fa0cb414610326578063ca15c873146102fc578063d11a57ec146102c1578063d547741f14610264578063e63ab1e914610229578063ef19207114610204578063f5b541a6146101c55763fd47852b1461013457600080fd5b346101c1576101423661085e565b91929093838652600160205261015f600182882001543390610d64565b60ff8654166101b45782156101a7575050835b81811061017d578480f35b8061019d6101976101926101a29486896108f8565b61091e565b85610a10565b6108d3565b610172565b51636caa20b560e11b8152fd5b5163ab35696f60e01b8152fd5b8280fd5b505034610200578160031936011261020057602090517f97667070c54ef182b0f5858b034beac1b6f3089aa2d3188bb1e8929f4fa9b9298152f35b5080fd5b5050346102005760209061022061021a36610891565b9161099a565b90519015158152f35b505034610200578160031936011261020057602090517f65d7a28e3265b37a6474929f336521b332c1681b933f6cb9f3376673440d862a8152f35b509190346102005780600319360112610200578235610281610813565b91818452600160205261029b600182862001543390610d64565b60ff8454166102b25750906102af91610b42565b80f35b5163ab35696f60e01b81528490fd5b505034610200578160031936011261020057602090517fe1dcbdb91df27212a29bc27177c840cf2f819ecf2187432e1fac86c2dd5dfca98152f35b50346101c15760203660031901126101c15781602093600292358152600185522001549051908152f35b5082346104045760209283600319360112610200578235825260019384815260028284200192825192828481875491828152019081978552828520908a865b8281106103e65750505050859003601f01601f191685019690506001600160401b038711858810176103d3575092869284878096528186019282875251809352850195925b8281106103b75785870386f35b83516001600160a01b03168752958101959281019284016103aa565b634e487b7160e01b835260419052602482fd5b83546001600160a01b03168552889590940193928101928101610365565b80fd5b5050346102005760209061022061041d36610891565b91610932565b50503461020057816003193601126102005751908152602090f35b50346101c157816003193601126101c1578160209360ff9261045e610813565b90358252600186528282206001600160a01b039091168252855220549151911615158152f35b50346101c157816003193601126101c1576020926104b191358152600184526002836024359220016109dd565b905491519160018060a01b039160031b1c168152f35b838234610200576020366003190112610200576102af90339035610b42565b50503461020057816003193601126102005760207fa1d0d89839e258f47578cdb449cae0bf81b498fa163c336f719385245cb28ac99161052533610ce1565b600160ff198554161784555160018152a180f35b50346101c1576105483661085e565b919290938386526001602052610565600182882001543390610d64565b60ff8654166101b45782156101a7575050835b818110610583578480f35b8061019d61059861019261059e9486896108f8565b85610b42565b610578565b505034610200578160031936011261020057517f00000000000000000000000000000000000000000000000000000000000000006001600160a01b03168152602090f35b505034610200578160031936011261020057602090517f92a19c77d2ea87c7f81d50c74403cb2f401780f3ad919571121efe2bdb427eb18152f35b505034610200578160031936011261020057602090517fa49807205ce4d355092ef5a8a18f56e8913cf4a201fbe287825b095693c217758152f35b5090346101c15760203660031901126101c1576020925051903515158152f35b50503461020057816003193601126102005760ff602092541690519015158152f35b50503461020057816003193601126102005760207fa1d0d89839e258f47578cdb449cae0bf81b498fa163c336f719385245cb28ac9916106de33610ce1565b835460ff1916845551838152a180f35b50919034610200578060031936011261020057823561070b610813565b918184526001602052610725600182862001543390610d64565b60ff8454166102b25750906102af91610a10565b50346101c15760203660031901126101c157816020936001923581528285522001549051908152f35b5090346101c157806003193601126101c15781359060243592848052600160205281852033865260205260ff8286205416156107d35750600190828552816020528420019082825492557fbd79b86ffe0ab8e8776151514217cd7cacd52c909f66475c3af44e129f0b00ff8480a480f35b846044925191630dcd852560e31b835233908301526024820152fd5b5090346101c157366003190112610200576102af9061080c610813565b9035610d64565b602435906001600160a01b038216820361082957565b600080fd5b9181601f84011215610829578235916001600160401b038311610829576020808501948460051b01011161082957565b9060406003198301126108295760043591602435906001600160401b0382116108295761088d9160040161082e565b9091565b604060031982011261082957600435906001600160401b038211610829576108bb9160040161082e565b90916024356001600160a01b03811681036108295790565b60001981146108e25760010190565b634e487b7160e01b600052601160045260246000fd5b91908110156109085760051b0190565b634e487b7160e01b600052603260045260246000fd5b356001600160a01b03811681036108295790565b909160005b8381106109475750505050600090565b61097f826109568387876108f8565b35600052600160205260406000209060018060a01b031660005260205260ff6040600020541690565b6109915761098c906108d3565b610937565b50505050600190565b919091600091825b8481106109b3575050505050600190565b6109c2826109568388876108f8565b156109d5576109d0906108d3565b6109a2565b505050905090565b80548210156109085760005260206000200190600090565b6001600160a01b039091168152602081019190915260400190565b6001600160a01b038216908115610b3057600092818452600193602094808652604092838320868452875260ff848420541615600014610b0e578483528187528383208684528752838320805460ff191683179055848352818752838320600201805490600160401b821015610afa5791610ab78285947f2d5eca95f1f9ca81cacc102a9fd22dc355542cf1e45d38e2eb2fd90f57fac33c989796610ad6950181556109dd565b90919082549060031b9160018060a01b03809116831b921b1916179055565b848252865281808220916003600284015493888352018852205551934285523394a4565b634e487b7160e01b85526041600452602485fd5b83516331b8eae360e21b8152908190610b2c908790600484016109f5565b0390fd5b60405163d92e233d60e01b8152600490fd5b9190916000908082526001906020928284526040908181209360018060a01b039788811695868452875260ff848420541615610cc357508382528086528282208583528652828220805460ff191690558382528086528282208583526003018652828220548483528187528383206002018054808303610c4b575b505050838252808652600283832001978854988915610c37577fa7fff51bcac1cdc97d0fd86eec9423c20669b7b4bb0ed164b5934ff17eb93d5695969798996000190191610c0b83836109dd565b909182549160031b1b1916905555848252865260038282200185825286528181205551934285523394a4565b634e487b7160e01b84526031600452602484fd5b60001991818301918211610caf578b91610c64916109dd565b90549060031b1c169086855283895260028686200190830190838211610caf57610ab7610c929284926109dd565b858452828852600385852001908452875283832055388080610bbd565b634e487b7160e01b86526011600452602486fd5b8351631a1b8bf160e01b8152908190610b2c908790600484016109f5565b6001600160a01b031660008181527fb9cbbae02fe941283ec0eefd7b121e3bc7f89fae077b27bdd75a7fd4cf1543a860205260409020547f65d7a28e3265b37a6474929f336521b332c1681b933f6cb9f3376673440d862a9060ff1615610d46575050565b6044925060405191630dcd852560e31b835260048301526024820152fd5b90816000526001602052604060002060018060a01b03821660005260205260ff6040600020541615610d94575050565b610b2c604051928392630dcd852560e31b8452600484016109f556fea2646970667358221220356cf1d9b46c0027809ba24b46cd89fb63b026bd1937a4ca98822a06b295420c64736f6c63430008140033",
  "linkReferences": {},
  "deployedLinkReferences": {}
}