{
  "_format": "hh-sol-artifact-1",
  "contractName": "ParameterStorage",
  "sourceName": "contracts/core/ParameterStorage.sol",
  "abi": [
    {
      "inputs": [
        {
          "internalType": "address",
          "name": "_registry",
          "type": "address"
        }
      ],
      "stateMutability": "nonpayable",
      "type": "constructor"
    },
    {
      "inputs": [],
      "name": "InvalidValue",
      "type": "error"
    },
    {
      "inputs": [],
      "name": "NotAuthorized",
      "type": "error"
    },
    {
      "inputs": [
        {
          "internalType": "bytes32",
          "name": "key",
          "type": "bytes32"
        }
      ],
      "name": "ParameterNotFound",
      "type": "error"
    },
    {
      "inputs": [
        {
          "internalType": "uint256",
          "name": "value",
          "type": "uint256"
        },
        {
          "internalType": "uint256",
          "name": "maximum",
          "type": "uint256"
        }
      ],
      "name": "ValueAboveMaximum",
      "type": "error"
    },
    {
      "inputs": [
        {
          "internalType": "uint256",
          "name": "value",
          "type": "uint256"
        },
        {
          "internalType": "uint256",
          "name": "minimum",
          "type": "uint256"
        }
      ],
      "name": "ValueBelowMinimum",
      "type": "error"
    },
    {
      "anonymous": false,
      "inputs": [
        {
          "indexed": true,
          "internalType": "bytes32",
          "name": "key",
          "type": "bytes32"
        },
        {
          "indexed": true,
          "internalType": "address",
          "name": "newAddress",
          "type": "address"
        },
        {
          "indexed": true,
          "internalType": "address",
          "name": "oldAddress",
          "type": "address"
        },
        {
          "indexed": false,
          "internalType": "uint256",
          "name": "timestamp",
          "type": "uint256"
        }
      ],
      "name": "AddressParameterUpdated",
      "type": "event"
    },
    {
      "anonymous": false,
      "inputs": [
        {
          "indexed": true,
          "internalType": "bytes32",
          "name": "key",
          "type": "bytes32"
        },
        {
          "indexed": false,
          "internalType": "bool",
          "name": "newValue",
          "type": "bool"
        },
        {
          "indexed": false,
          "internalType": "bool",
          "name": "oldValue",
          "type": "bool"
        },
        {
          "indexed": false,
          "internalType": "uint256",
          "name": "timestamp",
          "type": "uint256"
        }
      ],
      "name": "BoolParameterUpdated",
      "type": "event"
    },
    {
      "anonymous": false,
      "inputs": [
        {
          "indexed": false,
          "internalType": "bool",
          "name": "enabled",
          "type": "bool"
        }
      ],
      "name": "ExperimentalModeToggled",
      "type": "event"
    },
    {
      "anonymous": false,
      "inputs": [
        {
          "indexed": true,
          "internalType": "bytes32",
          "name": "key",
          "type": "bytes32"
        },
        {
          "indexed": false,
          "internalType": "uint256",
          "name": "newMin",
          "type": "uint256"
        },
        {
          "indexed": false,
          "internalType": "uint256",
          "name": "newMax",
          "type": "uint256"
        }
      ],
      "name": "GuardrailUpdated",
      "type": "event"
    },
    {
      "anonymous": false,
      "inputs": [
        {
          "indexed": true,
          "internalType": "bytes32",
          "name": "key",
          "type": "bytes32"
        },
        {
          "indexed": false,
          "internalType": "uint256",
          "name": "newValue",
          "type": "uint256"
        },
        {
          "indexed": false,
          "internalType": "uint256",
          "name": "oldValue",
          "type": "uint256"
        },
        {
          "indexed": false,
          "internalType": "uint256",
          "name": "timestamp",
          "type": "uint256"
        }
      ],
      "name": "ParameterUpdated",
      "type": "event"
    },
    {
      "inputs": [
        {
          "internalType": "bytes32[]",
          "name": "keys",
          "type": "bytes32[]"
        },
        {
          "internalType": "uint256[]",
          "name": "values",
          "type": "uint256[]"
        }
      ],
      "name": "batchSetParameters",
      "outputs": [],
      "stateMutability": "nonpayable",
      "type": "function"
    },
    {
      "inputs": [],
      "name": "experimentalMode",
      "outputs": [
        {
          "internalType": "bool",
          "name": "",
          "type": "bool"
        }
      ],
      "stateMutability": "view",
      "type": "function"
    },
    {
      "inputs": [
        {
          "internalType": "bytes32",
          "name": "key",
          "type": "bytes32"
        }
      ],
      "name": "getAddressParameter",
      "outputs": [
        {
          "internalType": "address",
          "name": "",
          "type": "address"
        }
      ],
      "stateMutability": "view",
      "type": "function"
    },
    {
      "inputs": [],
      "name": "getAllParameters",
      "outputs": [
        {
          "internalType": "bytes32[]",
          "name": "keys",
          "type": "bytes32[]"
        },
        {
          "internalType": "uint256[]",
          "name": "values",
          "type": "uint256[]"
        }
      ],
      "stateMutability": "view",
      "type": "function"
    },
    {
      "inputs": [
        {
          "internalType": "bytes32",
          "name": "key",
          "type": "bytes32"
        }
      ],
      "name": "getBoolParameter",
      "outputs": [
        {
          "internalType": "bool",
          "name": "",
          "type": "bool"
        }
      ],
      "stateMutability": "view",
      "type": "function"
    },
    {
      "inputs": [
        {
          "internalType": "bytes32",
          "name": "key",
          "type": "bytes32"
        }
      ],
      "name": "getGuardrails",
      "outputs": [
        {
          "internalType": "uint256",
          "name": "min",
          "type": "uint256"
        },
        {
          "internalType": "uint256",
          "name": "max",
          "type": "uint256"
        }
      ],
      "stateMutability": "view",
      "type": "function"
    },
    {
      "inputs": [
        {
          "internalType": "bytes32",
          "name": "key",
          "type": "bytes32"
        }
      ],
      "name": "getParameter",
      "outputs": [
        {
          "internalType": "uint256",
          "name": "",
          "type": "uint256"
        }
      ],
      "stateMutability": "view",
      "type": "function"
    },
    {
      "inputs": [],
      "name": "getParameterCount",
      "outputs": [
        {
          "internalType": "uint256",
          "name": "",
          "type": "uint256"
        }
      ],
      "stateMutability": "view",
      "type": "function"
    },
    {
      "inputs": [
        {
          "internalType": "bytes32",
          "name": "key",
          "type": "bytes32"
        }
      ],
      "name": "parameterExists",
      "outputs": [
        {
          "internalType": "bool",
          "name": "",
          "type": "bool"
        }
      ],
      "stateMutability": "view",
      "type": "function"
    },
    {
      "inputs": [],
      "name": "registry",
      "outputs": [
        {
          "internalType": "contract IVersionedRegistry",
          "name": "",
          "type": "address"
        }
      ],
      "stateMutability": "view",
      "type": "function"
    },
    {
      "inputs": [
        {
          "internalType": "bytes32",
          "name": "key",
          "type": "bytes32"
        },
        {
          "internalType": "address",
          "name": "value",
          "type": "address"
        }
      ],
      "name": "setAddressParameter",
      "outputs": [],
      "stateMutability": "nonpayable",
      "type": "function"
    },
    {
      "inputs": [
        {
          "internalType": "bytes32",
          "name": "key",
          "type": "bytes32"
        },
        {
          "internalType": "bool",
          "name": "value",
          "type": "bool"
        }
      ],
      "name": "setBoolParameter",
      "outputs": [],
      "stateMutability": "nonpayable",
      "type": "function"
    },
    {
      "inputs": [
        {
          "internalType": "bool",
          "name": "enabled",
          "type": "bool"
        }
      ],
      "name": "setExperimentalMode",
      "outputs": [],
      "stateMutability": "nonpayable",
      "type": "function"
    },
    {
      "inputs": [
        {
          "internalType": "bytes32",
          "name": "key",
          "type": "bytes32"
        },
        {
          "internalType": "uint256",
          "name": "min",
          "type": "uint256"
        },
        {
          "internalType": "uint256",
          "name": "max",
          "type": "uint256"
        }
      ],
      "name": "setGuardrails",
      "outputs": [],
      "stateMutability": "nonpayable",
      "type": "function"
    },
    {
      "inputs": [
        {
          "internalType": "bytes32",
          "name": "key",
          "type": "bytes32"
        },
        {
          "internalType": "uint256",
          "name": "value",
          "type": "uint256"
        }
      ],
      "name": "setParameter",
      "outputs": [],
      "stateMutability": "nonpayable",
      "type": "function"
    }
  ],
  "bytecode": "0x60a0346100d457601f61131438819003918201601f19168301916001600160401b038311848410176100d9578084926020946040528339810103126100d457516001600160a01b038116908190036100d457801561009c5760805260405161122490816100f08239608051818181610145015281816102e80152818161047e015281816109090152818161098f01528181610b120152610dda0152f35b60405162461bcd60e51b815260206004820152601060248201526f496e76616c696420726567697374727960801b6044820152606490fd5b600080fd5b634e487b7160e01b600052604160045260246000fdfe608060408181526004918236101561001657600080fd5b600092833560e01c91826319d4f1b914611028575081633345709414611009578163345632db14610fdc5781633fdc995914610f8057816347d33b7f14610d8d5781635b3bbc2614610d38578163712563bf14610cfe578163723507be14610ac3578163770c4ea1146109385781637b103999146108f45781639171491b146107b9578163918cc740146103f9578163caaa877e14610297578163dbc87d47146100ee575063f1c3693b146100ca57600080fd5b346100ea57816003193601126100ea5760ff602092541690519015158152f35b5080fd5b9050346102935781600319360112610293576001600160a01b0360243581811692803592909184900361028f578451631c2d8fb360e31b81526000805160206111af833981519152838201526020929083816024817f000000000000000000000000000000000000000000000000000000000000000087165afa90811561025857839185918a91610262575b506044895180948193632474521560e21b83526000805160206111cf83398151915288840152336024840152165afa90811561025857889161022b575b501561021d57841561020f57508286526003825284862080546001600160a01b03198116861790915594514281529416937fedcbe6e84b6756126e772e22648efd0e5b0175fab8ae8d1b642536583815166a9190a480f35b8551632a9ffab760e21b8152fd5b855163ea8e4eb560e01b8152fd5b61024b9150843d8611610251575b61024381836110bd565b8101906110fd565b386101b7565b503d610239565b87513d8a823e3d90fd5b6102829150823d8411610288575b61027a81836110bd565b8101906110de565b3861017a565b503d610270565b8580fd5b8280fd5b8383346100ea5760209081600319360112610293578335908115158092036103f5578051631c2d8fb360e31b81526000805160206111af833981519152868201526001600160a01b039084816024817f000000000000000000000000000000000000000000000000000000000000000086165afa9081156103eb5790859187916103ce575b506044845180948193632474521560e21b83526000805160206111cf8339815191528c840152336024840152165afa9081156103c45785916103a7575b5015610398577f39d0ea74f10d6c1e4a39d9565b94011fb7189a63d91a2684f550c513fa3ac01293945060ff1985541660ff831617855551908152a180f35b5163ea8e4eb560e01b81528490fd5b6103be9150843d86116102515761024381836110bd565b86610359565b82513d87823e3d90fd5b6103e59150823d84116102885761027a81836110bd565b8861031c565b83513d88823e3d90fd5b8380fd5b839150346100ea57826003193601126100ea576001600160401b039080358281116103f55761042b9036908301611057565b919094602493843590811161028f576104479036908401611057565b8251631c2d8fb360e31b81526000805160206111af833981519152858201529194602094919290916001600160a01b039186818a817f000000000000000000000000000000000000000000000000000000000000000087165afa908115610792578a9161079c575b508686518092632474521560e21b82526000805160206111cf83398151915285830152338c830152816044968792165afa908115610792578a91610775575b50156107675783830361073657821561070857885b83811061050e578980f35b89908886868e8b8b60ff808954161590816106e7575b50610614575b936105bd87858582957f4a065bafc948ff2e4deaa2206b1edeadb012376c43b6b3c829b5347aadf0766b998d610565868e9c6105c49c611173565b35905260019d8e8084526105a5878a858520549e61059b610587848c8c611173565b356000526006602052604060002054151590565b156105e257611173565b35936105b2888888611173565b358352522055611173565b3595611173565b8a51903581526020810191909152426040820152606090a201610503565b6105f66105f0848c8c611173565b35611115565b600554610604848c8c611173565b3587526006895287872055611173565b505093945061062885809361062f95611173565b3593611173565b358b52828852868b2054116106ad578a61064f8286610628828a8e611173565b358b5282885260019081888d20015410610671575089908886868e8b8b61052a565b9297918097610691838e9761068a8f968f9b8d99611173565b3598611173565b3583525220015492516315e571e360e31b815293840152820152fd5b9080966106cc838d966106c58e968e9a8c999e611173565b3597611173565b358352522054925163035a57cd60e01b815293840152820152fd5b90506106f4888686611173565b3589528983526002828a2001541638610524565b6b456d7074792061727261797360a01b606492600c8a8989519562461bcd60e51b8752860152840152820152fd5b6e098cadccee8d040dad2e6dac2e8c6d608b1b606492600f8a8989519562461bcd60e51b8752860152840152820152fd5b845163ea8e4eb560e01b8152fd5b61078c9150873d89116102515761024381836110bd565b8b6104ee565b86513d8c823e3d90fd5b6107b39150873d89116102885761027a81836110bd565b8b6104af565b5050346100ea57816003193601126100ea579081518091600554808352602080930180916005845284842090845b8181106108e057505050846107fd9103856110bd565b83519261082161080c85611183565b94610819885196876110bd565b808652611183565b8185019490601f19013686378551845b8181106108a9575050865196879681880191885251809152606087019390855b81811061089257505050858303868301525180835291810193925b82811061087b57505050500390f35b83518552869550938101939281019260010161086c565b825186528998509484019491840191600101610851565b6108ba81899a94959796989961119a565b518552600190818752838620546108d1828761119a565b52019796959394929197610831565b8254845292860192600192830192016107e7565b5050346100ea57816003193601126100ea57517f00000000000000000000000000000000000000000000000000000000000000006001600160a01b03168152602090f35b905034610293578160031936011261029357803591602435918215159283810361028f578251631c2d8fb360e31b81526000805160206111af83398151915283820152602092906001600160a01b039084816024817f000000000000000000000000000000000000000000000000000000000000000086165afa908115610ab9579085918a91610a9c575b506044875180948193632474521560e21b83526000805160206111cf83398151915288840152336024840152165afa908115610a92578891610a75575b5015610a675750917fe4229a37162435e437682dce849006c22bf30f1a05eef61340b14087398f65c4939160609386885260028252610a538389209160ff835416929060ff801983541691151516179055565b82519384521515908301524290820152a280f35b835163ea8e4eb560e01b8152fd5b610a8c9150843d86116102515761024381836110bd565b38610a00565b85513d8a823e3d90fd5b610ab39150823d84116102885761027a81836110bd565b386109c3565b86513d8b823e3d90fd5b839150346100ea57826003193601126100ea578251631c2d8fb360e31b81526000805160206111af833981519152818301528135916024803592602092916001600160a01b03919084908290817f000000000000000000000000000000000000000000000000000000000000000086165afa908115610cf4579084918891610cd7575b506044895180948193632474521560e21b83526000805160206111cf83398151915288840152336024840152165afa908115610ccd578691610cb0575b501561021d5760ff8554161580610c9a575b610c34575b50610c128495847f4a065bafc948ff2e4deaa2206b1edeadb012376c43b6b3c829b5347aadf0766b9596526001835260018188205493610be7886000526006602052604060002054151590565b15610c18575b8789525280872084905551928352602083019190915242604083015281906060820190565b0390a280f35b610c2188611115565b600554888a5260068252838a2055610bed565b83855280825285852054808410610c7d575083855280825260018686200154808411610c605750610b9a565b86516315e571e360e31b8152918201849052602482015260449150fd5b865163035a57cd60e01b8152918201849052602482015260449150fd5b5083855280825260ff6002878720015416610b95565b610cc79150833d85116102515761024381836110bd565b87610b83565b87513d88823e3d90fd5b610cee9150823d84116102885761027a81836110bd565b89610b46565b88513d89823e3d90fd5b828434610d35576020366003190112610d355750610d2c602092356000526006602052604060002054151590565b90519015158152f35b80fd5b905034610293576020366003190112610293579182829335825260205220815190610d628261108c565b8054918281528360ff6002600185015494856020860152015416151591015282519182526020820152f35b8383346100ea5760603660031901126100ea578235906024356044358251631c2d8fb360e31b81526000805160206111af8339815191528782015260209060018060a01b038282602481847f0000000000000000000000000000000000000000000000000000000000000000165afa918215610f765783918a918a94610f42575b506000805160206111cf8339815191529160449189519586948593632474521560e21b8552840152336024840152165afa908115610f38578791610f1b575b5015610f0b57818311610ed457610ec87f2886b1edf0d282233cfbcd0aa871ac9f714725bd9e32f0e251c7904908f255769596976002865191610e8f8361108c565b86835284830186815288840191600183528b8d528652888c209351845551600184015551151591019060ff801983541691151516179055565b8351928352820152a280f35b8660649185519162461bcd60e51b83528201526012602482015271496e76616c69642067756172647261696c7360701b6044820152fd5b835163ea8e4eb560e01b81528790fd5b610f329150823d84116102515761024381836110bd565b88610e4d565b85513d89823e3d90fd5b604491945091610f6d6000805160206111cf83398151915293853d87116102885761027a81836110bd565b94915091610e0e565b86513d8a823e3d90fd5b90503461029357602036600319011261029357803590610fad826000526006602052604060002054151590565b15610fc75750828291602094526001845220549051908152f35b9151633667ab0360e01b815291820152602490fd5b905034610293576020366003190112610293578160209360ff923581526002855220541690519015158152f35b5050346100ea57816003193601126100ea576020906005549051908152f35b8484346100ea5760203660031901126100ea579235815260036020908152929020546001600160a01b03168152f35b9181601f84011215611087578235916001600160401b038311611087576020808501948460051b01011161108757565b600080fd5b606081019081106001600160401b038211176110a757604052565b634e487b7160e01b600052604160045260246000fd5b90601f801991011681019081106001600160401b038211176110a757604052565b9081602091031261108757516001600160a01b03811681036110875790565b90816020910312611087575180151581036110875790565b600554600160401b8110156110a757600181018060055581101561115d5760056000527f036b6384b5eca791c62761152d0c79bb0604c104a5fb6f4eb0703f3154bb3db00155565b634e487b7160e01b600052603260045260246000fd5b919081101561115d5760051b0190565b6001600160401b0381116110a75760051b60200190565b805182101561115d5760209160051b01019056fe32fde5f4784e5f5dafa770ea215049399b708449187d09b883be1bd6a8df5a20a49807205ce4d355092ef5a8a18f56e8913cf4a201fbe287825b095693c21775a2646970667358221220e50988615926381894957a4eb518fe2711f815b0e06289ea5d9e46ed7b53da9a64736f6c63430008140033",
  "linkReferences": {},
  "deployedLinkReferences": {}
}