{
  "_format": "hh-sol-artifact-1",
  "contractName": "RewardDistributor",
  "sourceName": "contracts/core/RewardDistributor.sol",
  "abi": [
    {
      "inputs": [
        {
          "internalType": "address",
          "name": "registry",
          "type": "address"
        }
      ],
      "stateMutability": "nonpayable",
      "type": "constructor"
    },
    {
      "inputs": [],
      "name": "AlreadyClaimed",
      "type": "error"
    },
    {
      "inputs": [],
      "name": "InsufficientTreasuryBalance",
      "type": "error"
    },
    {
      "inputs": [],
      "name": "InvalidBasisPoints",
      "type": "error"
    },
    {
      "inputs": [],
      "name": "InvalidFeeDistribution",
      "type": "error"
    },
    {
      "inputs": [],
      "name": "InvalidMarket",
      "type": "error"
    },
    {
      "inputs": [],
      "name": "MarketNotResolved",
      "type": "error"
    },
    {
      "inputs": [],
      "name": "NoFeesToCollect",
      "type": "error"
    },
    {
      "inputs": [],
      "name": "NoRewardsToClaim",
      "type": "error"
    },
    {
      "inputs": [],
      "name": "ReentrancyGuardReentrantCall",
      "type": "error"
    },
    {
      "inputs": [],
      "name": "Unauthorized",
      "type": "error"
    },
    {
      "inputs": [],
      "name": "ZeroAddress",
      "type": "error"
    },
    {
      "anonymous": false,
      "inputs": [
        {
          "indexed": true,
          "internalType": "address",
          "name": "market",
          "type": "address"
        },
        {
          "indexed": true,
          "internalType": "address",
          "name": "creator",
          "type": "address"
        },
        {
          "indexed": false,
          "internalType": "uint256",
          "name": "amount",
          "type": "uint256"
        },
        {
          "indexed": false,
          "internalType": "uint256",
          "name": "timestamp",
          "type": "uint256"
        }
      ],
      "name": "CreatorFeesClaimed",
      "type": "event"
    },
    {
      "anonymous": false,
      "inputs": [
        {
          "indexed": false,
          "internalType": "uint256",
          "name": "protocolFeeBps",
          "type": "uint256"
        },
        {
          "indexed": false,
          "internalType": "uint256",
          "name": "creatorFeeBps",
          "type": "uint256"
        },
        {
          "indexed": false,
          "internalType": "uint256",
          "name": "stakerIncentiveBps",
          "type": "uint256"
        },
        {
          "indexed": false,
          "internalType": "uint256",
          "name": "treasuryFeeBps",
          "type": "uint256"
        }
      ],
      "name": "FeeDistributionUpdated",
      "type": "event"
    },
    {
      "anonymous": false,
      "inputs": [
        {
          "indexed": true,
          "internalType": "address",
          "name": "market",
          "type": "address"
        },
        {
          "indexed": false,
          "internalType": "uint256",
          "name": "totalFees",
          "type": "uint256"
        },
        {
          "indexed": false,
          "internalType": "uint256",
          "name": "protocolFees",
          "type": "uint256"
        },
        {
          "indexed": false,
          "internalType": "uint256",
          "name": "creatorFees",
          "type": "uint256"
        },
        {
          "indexed": false,
          "internalType": "uint256",
          "name": "stakerFees",
          "type": "uint256"
        },
        {
          "indexed": false,
          "internalType": "uint256",
          "name": "treasuryFees",
          "type": "uint256"
        }
      ],
      "name": "FeesCollected",
      "type": "event"
    },
    {
      "anonymous": false,
      "inputs": [
        {
          "indexed": true,
          "internalType": "address",
          "name": "market",
          "type": "address"
        },
        {
          "indexed": true,
          "internalType": "address",
          "name": "claimer",
          "type": "address"
        },
        {
          "indexed": false,
          "internalType": "uint256",
          "name": "amount",
          "type": "uint256"
        },
        {
          "indexed": false,
          "internalType": "uint8",
          "name": "outcome",
          "type": "uint8"
        },
        {
          "indexed": false,
          "internalType": "uint256",
          "name": "timestamp",
          "type": "uint256"
        }
      ],
      "name": "RewardClaimed",
      "type": "event"
    },
    {
      "anonymous": false,
      "inputs": [
        {
          "indexed": true,
          "internalType": "address",
          "name": "staker",
          "type": "address"
        },
        {
          "indexed": false,
          "internalType": "uint256",
          "name": "amount",
          "type": "uint256"
        },
        {
          "indexed": false,
          "internalType": "uint256",
          "name": "timestamp",
          "type": "uint256"
        }
      ],
      "name": "StakerRewardsDistributed",
      "type": "event"
    },
    {
      "anonymous": false,
      "inputs": [
        {
          "indexed": true,
          "internalType": "address",
          "name": "recipient",
          "type": "address"
        },
        {
          "indexed": false,
          "internalType": "uint256",
          "name": "amount",
          "type": "uint256"
        },
        {
          "indexed": false,
          "internalType": "uint256",
          "name": "timestamp",
          "type": "uint256"
        }
      ],
      "name": "TreasuryWithdrawal",
      "type": "event"
    },
    {
      "inputs": [
        {
          "internalType": "address[]",
          "name": "markets",
          "type": "address[]"
        },
        {
          "internalType": "uint256[]",
          "name": "fees",
          "type": "uint256[]"
        }
      ],
      "name": "batchCollectFees",
      "outputs": [],
      "stateMutability": "payable",
      "type": "function"
    },
    {
      "inputs": [
        {
          "internalType": "address[]",
          "name": "markets",
          "type": "address[]"
        },
        {
          "internalType": "address[]",
          "name": "claimers",
          "type": "address[]"
        },
        {
          "internalType": "uint256[]",
          "name": "amounts",
          "type": "uint256[]"
        },
        {
          "internalType": "uint8[]",
          "name": "outcomes",
          "type": "uint8[]"
        }
      ],
      "name": "batchProcessRewards",
      "outputs": [],
      "stateMutability": "nonpayable",
      "type": "function"
    },
    {
      "inputs": [
        {
          "internalType": "address",
          "name": "market",
          "type": "address"
        }
      ],
      "name": "claimCreatorFees",
      "outputs": [],
      "stateMutability": "nonpayable",
      "type": "function"
    },
    {
      "inputs": [
        {
          "internalType": "address",
          "name": "market",
          "type": "address"
        },
        {
          "internalType": "uint256",
          "name": "totalFees",
          "type": "uint256"
        }
      ],
      "name": "collectFees",
      "outputs": [],
      "stateMutability": "payable",
      "type": "function"
    },
    {
      "inputs": [
        {
          "internalType": "address",
          "name": "staker",
          "type": "address"
        },
        {
          "internalType": "uint256",
          "name": "amount",
          "type": "uint256"
        }
      ],
      "name": "distributeStakerRewards",
      "outputs": [],
      "stateMutability": "nonpayable",
      "type": "function"
    },
    {
      "inputs": [
        {
          "internalType": "address",
          "name": "market",
          "type": "address"
        },
        {
          "internalType": "address",
          "name": "claimer",
          "type": "address"
        }
      ],
      "name": "getClaimRecord",
      "outputs": [
        {
          "components": [
            {
              "internalType": "address",
              "name": "market",
              "type": "address"
            },
            {
              "internalType": "address",
              "name": "claimer",
              "type": "address"
            },
            {
              "internalType": "uint256",
              "name": "amount",
              "type": "uint256"
            },
            {
              "internalType": "uint256",
              "name": "timestamp",
              "type": "uint256"
            },
            {
              "internalType": "uint8",
              "name": "outcome",
              "type": "uint8"
            }
          ],
          "internalType": "struct IRewardDistributor.ClaimRecord",
          "name": "",
          "type": "tuple"
        }
      ],
      "stateMutability": "view",
      "type": "function"
    },
    {
      "inputs": [],
      "name": "getFeeDistribution",
      "outputs": [
        {
          "components": [
            {
              "internalType": "uint256",
              "name": "protocolFeeBps",
              "type": "uint256"
            },
            {
              "internalType": "uint256",
              "name": "creatorFeeBps",
              "type": "uint256"
            },
            {
              "internalType": "uint256",
              "name": "stakerIncentiveBps",
              "type": "uint256"
            },
            {
              "internalType": "uint256",
              "name": "treasuryFeeBps",
              "type": "uint256"
            }
          ],
          "internalType": "struct IRewardDistributor.FeeDistribution",
          "name": "",
          "type": "tuple"
        }
      ],
      "stateMutability": "view",
      "type": "function"
    },
    {
      "inputs": [
        {
          "internalType": "address",
          "name": "market",
          "type": "address"
        }
      ],
      "name": "getMarketFees",
      "outputs": [
        {
          "components": [
            {
              "internalType": "address",
              "name": "market",
              "type": "address"
            },
            {
              "internalType": "uint256",
              "name": "totalFees",
              "type": "uint256"
            },
            {
              "internalType": "uint256",
              "name": "protocolFees",
              "type": "uint256"
            },
            {
              "internalType": "uint256",
              "name": "creatorFees",
              "type": "uint256"
            },
            {
              "internalType": "uint256",
              "name": "stakerFees",
              "type": "uint256"
            },
            {
              "internalType": "uint256",
              "name": "treasuryFees",
              "type": "uint256"
            },
            {
              "internalType": "uint256",
              "name": "timestamp",
              "type": "uint256"
            }
          ],
          "internalType": "struct IRewardDistributor.FeeRecord",
          "name": "",
          "type": "tuple"
        }
      ],
      "stateMutability": "view",
      "type": "function"
    },
    {
      "inputs": [],
      "name": "getStakerRewardsPool",
      "outputs": [
        {
          "internalType": "uint256",
          "name": "",
          "type": "uint256"
        }
      ],
      "stateMutability": "view",
      "type": "function"
    },
    {
      "inputs": [],
      "name": "getTotalFeesCollected",
      "outputs": [
        {
          "internalType": "uint256",
          "name": "",
          "type": "uint256"
        }
      ],
      "stateMutability": "view",
      "type": "function"
    },
    {
      "inputs": [
        {
          "internalType": "address",
          "name": "user",
          "type": "address"
        }
      ],
      "name": "getTotalRewardsClaimed",
      "outputs": [
        {
          "internalType": "uint256",
          "name": "",
          "type": "uint256"
        }
      ],
      "stateMutability": "view",
      "type": "function"
    },
    {
      "inputs": [],
      "name": "getTreasuryBalance",
      "outputs": [
        {
          "internalType": "uint256",
          "name": "",
          "type": "uint256"
        }
      ],
      "stateMutability": "view",
      "type": "function"
    },
    {
      "inputs": [
        {
          "internalType": "address",
          "name": "market",
          "type": "address"
        }
      ],
      "name": "getUnclaimedCreatorFees",
      "outputs": [
        {
          "internalType": "uint256",
          "name": "",
          "type": "uint256"
        }
      ],
      "stateMutability": "view",
      "type": "function"
    },
    {
      "inputs": [
        {
          "internalType": "address",
          "name": "market",
          "type": "address"
        },
        {
          "internalType": "address",
          "name": "user",
          "type": "address"
        }
      ],
      "name": "hasClaimed",
      "outputs": [
        {
          "internalType": "bool",
          "name": "",
          "type": "bool"
        }
      ],
      "stateMutability": "view",
      "type": "function"
    },
    {
      "inputs": [
        {
          "internalType": "address",
          "name": "market",
          "type": "address"
        },
        {
          "internalType": "address",
          "name": "claimer",
          "type": "address"
        },
        {
          "internalType": "uint256",
          "name": "amount",
          "type": "uint256"
        },
        {
          "internalType": "uint8",
          "name": "outcome",
          "type": "uint8"
        }
      ],
      "name": "processRewardClaim",
      "outputs": [],
      "stateMutability": "nonpayable",
      "type": "function"
    },
    {
      "inputs": [
        {
          "internalType": "uint256",
          "name": "protocolFeeBps",
          "type": "uint256"
        },
        {
          "internalType": "uint256",
          "name": "creatorFeeBps",
          "type": "uint256"
        },
        {
          "internalType": "uint256",
          "name": "stakerIncentiveBps",
          "type": "uint256"
        },
        {
          "internalType": "uint256",
          "name": "treasuryFeeBps",
          "type": "uint256"
        }
      ],
      "name": "updateFeeDistribution",
      "outputs": [],
      "stateMutability": "nonpayable",
      "type": "function"
    },
    {
      "inputs": [
        {
          "internalType": "address",
          "name": "recipient",
          "type": "address"
        },
        {
          "internalType": "uint256",
          "name": "amount",
          "type": "uint256"
        }
      ],
      "name": "withdrawTreasury",
      "outputs": [],
      "stateMutability": "nonpayable",
      "type": "function"
    },
    {
      "stateMutability": "payable",
      "type": "receive"
    }
  ],
  "bytecode": "0x60a03461009057601f61158538819003918201601f19168301916001600160401b038311848410176100955780849260209460405283398101031261009057516001600160a01b03811690819003610090576001600055801561007e576080526040516114d990816100ac82396080518181816112fd01526113b10152f35b60405163d92e233d60e01b8152600490fd5b600080fd5b634e487b7160e01b600052604160045260246000fdfe60806040818152600480361015610021575b505050361561001f57600080fd5b005b600092833560e01c9081630996df6f14610d2f575080630d86419a14610ca15780634687650814610c825780636090f59c14610c6357806372e7160114610c2b578063752f77f114610bea5780637b51bf2b14610b3b57806389266f6014610aee578063896d1ee614610a155780639b5655dc146109f6578063a033fcd41461080a578063d4b8679b14610661578063d6ae6e44146105b3578063d7f971f91461057b578063deda8bd1146103f2578063f1717eee146103205763fd1664850361001157346102d35760803660031901126102d357803590602435604435906064359261010c61136b565b6103e86101268561012186610121878b610f17565b610f17565b1161031257866001600160a01b0361013c6112b9565b1691823b1561030e57875163391a83df60e11b8082527f01b466362d07312faeacb71469058a46b31266e91b12cf581791bf051d79b0e283830152602482018990529390838160448183865af180156102e6576102ff575b50803b156102d35788518481527fd5fd5f15fbc33c5230740b022def40394b9e6120ba37a153db570f3499eeb31983820152856024820152838160448183865af180156102e6576102f0575b50803b156102d35788518481527f52dfed6d22366497d4ec39d6df84ceb33e49a56328672afd81e35601719300c483820152866024820152838160448183865af180156102e6576102d7575b50803b156102d3577f2eaf2381dd3518cb5e4481123cfdd80e28f3b5b454f5eaa7f396518e1f5664d993836044928b51968795869485528401528960248401525af180156102c957917fea5a562714aa3c9afc729dd515cab338c0e4445684bf75ca1fe6ad21bfaf32ec96916080969594936102ba575b50815194855260208501528301526060820152a180f35b6102c390610ead565b386102a3565b86513d89823e3d90fd5b8280fd5b6102e090610ead565b3861022c565b8a513d86823e3d90fd5b6102f990610ead565b386101e0565b61030890610ead565b38610194565b5080fd5b855163800c7e9160e01b8152fd5b5090346102d357806003193601126102d35760a092918160ff92610342610e1b565b9461034b610e36565b816080845161035981610ec0565b82815282602082015282868201528260608201520152600180891b03809716825260036020528683832091168252602052209080519261039884610ec0565b8583541695868552806001850154166020860190815260808760028701549486890195865260038801549760608a019889520154169601958652835197885251166020870152519085015251606084015251166080820152f35b50346102d35760803660031901126102d3576001600160401b03908035828111610547576104239036908301610e4c565b909260249182358281116105775761043e9036908601610e4c565b936044918235858111610573576104589036908901610e4c565b606497919796873590811161056f576104749036908b01610e4c565b929096818114801590610565575b801561055b575b61054b578d805b82811061049b575080f35b8c8f928f8c8f916104df868c6104d88f948e6104d28f8f6104c7916104cc6104c78a8098948195611009565b61102f565b9a611009565b98611009565b3594611009565b359260ff841680940361054757303b156105475761053197519563d4b8679b60e01b875260018060a01b0380931690870152168c8501528c8401528d8301528160848183305af1610538575b50610ffa565b8e90610490565b61054190610ead565b3861052b565b8480fd5b8c51639db8d5b160e01b81528b90fd5b5083811415610489565b5082811415610482565b8c80fd5b8a80fd5b8780fd5b50503461030e57602036600319011261030e5760209181906001600160a01b036105a3610e1b565b1681526002845220549051908152f35b5090346102d35760203660031901126102d3576105ce610e1b565b6105d6610f3a565b6001600160a01b031680845260026020528184205492909190831561065357507fb09c03188c25eacb7a7bd579b1f9880329bc5336a7b2acaad2f6624ef107bd1e908285526002602052848181205561063e8580808088335af1610638610f70565b50610faf565b80519384524260208501523393a36001815580f35b9051631a93aa7960e21b8152fd5b5090346102d35760803660031901126102d35761067c610e1b565b610684610e36565b91604435916064359060ff8216809203610806576106a0610f3a565b6001600160a01b039081169485156107f65781169586156107e85784156107da57858852602091818352848920888a52835260ff858a2054166107cb5790808988888b8689978b8051966106f388610ec0565b8688528b880194808652828901968752606089019742895260808a019c8d52825260038d528282209082528c522095511690600160a01b60019003199182875416178655600186019251169082541617905551600283015551600382015501915160ff169160ff19928382541617905586895282528388208789528252838820908154166001179055600581528287208481549061079091610f17565b90558251938452830152429082015260607f9becc17494fada56ec0facb3ac19976812271b0d5464250ed2999b2c9aa5228c91a36001815580f35b508351630c8d9eab60e31b8152fd5b83516373380d9960e01b8152fd5b835163d92e233d60e01b8152fd5b835163d92e233d60e01b81528790fd5b8680fd5b50816003193601126102d35761081e610e1b565b6024359261082a610f3a565b6001600160a01b039182169384156109e657610844611043565b9161271080610854855185610f5d565b04906020906108868161086a8489015188610f5d565b049560608361087c888b015184610f5d565b0498015190610f5d565b049561089a87610121886101218988610f17565b978834106109a9579185939160068b8a88968f9b60a09d9b7fafaf36277fa8ba33159f6c848d1abc449f7088296a631cc23ab278089077270d9f9d8e839d51986108e38a610e7c565b878a528a8a019182528c808b01938d855260608c0195865260808c0196875260a08c0198895260c08c0199428b52815260018d522099511660a0600180911b03198a541617895551600189015551600288015551600387015551908501555160058401555191015560028152828b2061095d858254610f17565b905561096b86600654610f17565b60065561097a85600754610f17565b60075561098987600854610f17565b600855825196875286015284015260608301526080820152a26001815580f35b845162461bcd60e51b81529081018390526017602482015276125b9cdd59999a58da595b9d081d985b1d59481cd95b9d604a1b6044820152606490fd5b815163d92e233d60e01b81528490fd5b50503461030e578160031936011261030e576020906006549051908152f35b50816003193601126102d3576001600160401b03813581811161054757610a3f9036908401610e4c565b9290602492833590811161080657610a5a9036908401610e4c565b808697929703610ade57875b868110610a71578880f35b610a7c81838a611009565b3590610a8c6104c7828a88611009565b918a610a9983868d611009565b35303b1561030e57865163280cff3560e21b81526001600160a01b039095168986015289850152610ad9939182906044908290305af16105385750610ffa565b610a66565b8151639db8d5b160e01b81528490fd5b50346102d357816003193601126102d3578160209360ff92610b0e610e1b565b610b16610e36565b6001600160a01b03918216845291875283832091168252855220549151911615158152f35b5090346102d357806003193601126102d357610b55610e1b565b60243590610b61610f3a565b610b6961136b565b6001600160a01b0381169384156107e85760075490818411610bdc575085808080868096610bbc7fc06322f32f52ca0aea0209b701046a746a73de47073aaf2b2ff78ae5a1d6a36e9a99610bc998610fed565b6007555af1610638610f70565b8151908152426020820152a26001815580f35b8451631c7b597b60e11b8152fd5b50503461030e578160031936011261030e576080906060610c09611043565b8251928151845260208201516020850152808201519084015201516060820152f35b50503461030e57602036600319011261030e5760209181906001600160a01b03610c53610e1b565b1681526005845220549051908152f35b50503461030e578160031936011261030e576020906007549051908152f35b50503461030e578160031936011261030e576020906008549051908152f35b5090346102d357806003193601126102d357610cbb610e1b565b60243590610cc7610f3a565b610ccf61136b565b6001600160a01b0381169384156107e85760065490818411610bdc575085808080868096610d227f241d26202ece0e96f169c3ab6b0d540776434219c78f5727afa20c32cf367a299a99610bc998610fed565b6006555af1610638610f70565b9192905034610e17576020366003190112610e1757808460e09560c0610d53610e1b565b95610d5d81610e7c565b82815282602082015282858201528260608201528260808201528260a0820152015260018060a01b03809416815260016020522090805192610d9e84610e7c565b8254169384845260018301549160208501928352600284015481860190815260038501549260608701938452850154936080870194855260c0600660058801549760a08a0198895201549701968752825197885251602088015251908601525160608501525160808401525160a08301525160c0820152f35b8380fd5b600435906001600160a01b0382168203610e3157565b600080fd5b602435906001600160a01b0382168203610e3157565b9181601f84011215610e31578235916001600160401b038311610e31576020808501948460051b010111610e3157565b60e081019081106001600160401b03821117610e9757604052565b634e487b7160e01b600052604160045260246000fd5b6001600160401b038111610e9757604052565b60a081019081106001600160401b03821117610e9757604052565b608081019081106001600160401b03821117610e9757604052565b90601f801991011681019081106001600160401b03821117610e9757604052565b91908201809211610f2457565b634e487b7160e01b600052601160045260246000fd5b600260005414610f4b576002600055565b604051633ee5aeb560e01b8152600490fd5b81810292918115918404141715610f2457565b3d15610faa573d906001600160401b038211610e975760405191610f9e601f8201601f191660200184610ef6565b82523d6000602084013e565b606090565b15610fb657565b60405162461bcd60e51b815260206004820152600f60248201526e151c985b9cd9995c8819985a5b1959608a1b6044820152606490fd5b91908203918211610f2457565b6000198114610f245760010190565b91908110156110195760051b0190565b634e487b7160e01b600052603260045260246000fd5b356001600160a01b0381168103610e315790565b6040805161105081610edb565b60009081815281606060209282848201528286820152015260018060a01b036110776112b9565b1692805193633fdc995960e01b928386527f01b466362d07312faeacb71469058a46b31266e91b12cf581791bf051d79b0e260048701528086602481855afa958615611290578596611261575b508251918483527fd5fd5f15fbc33c5230740b022def40394b9e6120ba37a153db570f3499eeb31960048401528183602481845afa928315611257578693611224575b508351948086527f52dfed6d22366497d4ec39d6df84ceb33e49a56328672afd81e35601719300c460048701528286602481855afa95861561121a5787966111eb575b508290602486518094819382527f2eaf2381dd3518cb5e4481123cfdd80e28f3b5b454f5eaa7f396518e1f5664d960048301525afa9586156111e05780966111ab575b505082519561119b87610edb565b8652850152830152606082015290565b909180965082813d83116111d9575b6111c48183610ef6565b810103126111d657505193388061118d565b80fd5b503d6111ba565b8451903d90823e3d90fd5b9095508281813d8311611213575b6112038183610ef6565b810103126108065751948261114a565b503d6111f9565b85513d89823e3d90fd5b9092508181813d8311611250575b61123c8183610ef6565b8101031261124c57519138611107565b8580fd5b503d611232565b84513d88823e3d90fd5b9080965081813d8311611289575b6112798183610ef6565b81010312610547575194386110c4565b503d61126f565b83513d87823e3d90fd5b90816020910312610e3157516001600160a01b0381168103610e315790565b604051631c2d8fb360e31b81527f59c8cf76d134ad195c42c9258064dcd3954d57a6f03aab70798759cb7383d1f160048201526001600160a01b03906020816024817f000000000000000000000000000000000000000000000000000000000000000086165afa90811561135f5760009161133357501690565b611354915060203d8111611358575b61134c8183610ef6565b81019061129a565b1690565b503d611342565b6040513d6000823e3d90fd5b604051631c2d8fb360e31b81527f32fde5f4784e5f5dafa770ea215049399b708449187d09b883be1bd6a8df5a2060048201526020906001600160a01b039082816024817f000000000000000000000000000000000000000000000000000000000000000086165afa801561135f578391600091611486575b50604460405180948193632474521560e21b83527fa49807205ce4d355092ef5a8a18f56e8913cf4a201fbe287825b095693c217756004840152336024840152165afa91821561135f57600092611450575b50501561143f57565b6040516282b42960e81b8152600490fd5b81813d831161147f575b6114648183610ef6565b8101031261030e57519081151582036111d657503880611436565b503d61145a565b61149d9150823d84116113585761134c8183610ef6565b386113e456fea26469706673582212205ec62e8700415ee67b02c72cf7b69fbe7aaba67209151f588a963a3453c538df64736f6c63430008140033",
  "linkReferences": {},
  "deployedLinkReferences": {}
}