{
  "_format": "hh-sol-artifact-1",
  "contractName": "VersionedRegistry",
  "sourceName": "contracts/core/VersionedRegistry.sol",
  "abi": [
    {
      "inputs": [],
      "stateMutability": "nonpayable",
      "type": "constructor"
    },
    {
      "inputs": [
        {
          "internalType": "bytes32",
          "name": "key",
          "type": "bytes32"
        }
      ],
      "name": "ContractInactive",
      "type": "error"
    },
    {
      "inputs": [
        {
          "internalType": "bytes32",
          "name": "key",
          "type": "bytes32"
        }
      ],
      "name": "ContractNotFound",
      "type": "error"
    },
    {
      "inputs": [],
      "name": "ContractPaused",
      "type": "error"
    },
    {
      "inputs": [],
      "name": "EmptyArray",
      "type": "error"
    },
    {
      "inputs": [],
      "name": "InvalidKey",
      "type": "error"
    },
    {
      "inputs": [],
      "name": "InvalidVersion",
      "type": "error"
    },
    {
      "inputs": [],
      "name": "LengthMismatch",
      "type": "error"
    },
    {
      "inputs": [],
      "name": "NoPendingOwnershipTransfer",
      "type": "error"
    },
    {
      "inputs": [],
      "name": "NotOwner",
      "type": "error"
    },
    {
      "inputs": [],
      "name": "NotPendingOwner",
      "type": "error"
    },
    {
      "inputs": [],
      "name": "VersionMustIncrease",
      "type": "error"
    },
    {
      "inputs": [
        {
          "internalType": "bytes32",
          "name": "key",
          "type": "bytes32"
        },
        {
          "internalType": "uint256",
          "name": "version",
          "type": "uint256"
        }
      ],
      "name": "VersionNotFound",
      "type": "error"
    },
    {
      "inputs": [],
      "name": "ZeroAddress",
      "type": "error"
    },
    {
      "anonymous": false,
      "inputs": [
        {
          "indexed": true,
          "internalType": "bytes32",
          "name": "id",
          "type": "bytes32"
        },
        {
          "indexed": false,
          "internalType": "uint256",
          "name": "timestamp",
          "type": "uint256"
        }
      ],
      "name": "ContractDeactivated",
      "type": "event"
    },
    {
      "anonymous": false,
      "inputs": [
        {
          "indexed": true,
          "internalType": "bytes32",
          "name": "id",
          "type": "bytes32"
        },
        {
          "indexed": false,
          "internalType": "uint256",
          "name": "timestamp",
          "type": "uint256"
        }
      ],
      "name": "ContractReactivated",
      "type": "event"
    },
    {
      "anonymous": false,
      "inputs": [
        {
          "indexed": true,
          "internalType": "bytes32",
          "name": "id",
          "type": "bytes32"
        },
        {
          "indexed": true,
          "internalType": "address",
          "name": "contractAddress",
          "type": "address"
        },
        {
          "indexed": false,
          "internalType": "uint256",
          "name": "version",
          "type": "uint256"
        },
        {
          "indexed": false,
          "internalType": "uint256",
          "name": "timestamp",
          "type": "uint256"
        }
      ],
      "name": "ContractRegistered",
      "type": "event"
    },
    {
      "anonymous": false,
      "inputs": [
        {
          "indexed": true,
          "internalType": "bytes32",
          "name": "id",
          "type": "bytes32"
        },
        {
          "indexed": true,
          "internalType": "address",
          "name": "oldAddress",
          "type": "address"
        },
        {
          "indexed": true,
          "internalType": "address",
          "name": "newAddress",
          "type": "address"
        },
        {
          "indexed": false,
          "internalType": "uint256",
          "name": "newVersion",
          "type": "uint256"
        },
        {
          "indexed": false,
          "internalType": "uint256",
          "name": "timestamp",
          "type": "uint256"
        }
      ],
      "name": "ContractUpdated",
      "type": "event"
    },
    {
      "anonymous": false,
      "inputs": [
        {
          "indexed": false,
          "internalType": "string",
          "name": "action",
          "type": "string"
        },
        {
          "indexed": true,
          "internalType": "address",
          "name": "executor",
          "type": "address"
        },
        {
          "indexed": false,
          "internalType": "uint256",
          "name": "timestamp",
          "type": "uint256"
        }
      ],
      "name": "EmergencyAction",
      "type": "event"
    },
    {
      "anonymous": false,
      "inputs": [
        {
          "indexed": true,
          "internalType": "address",
          "name": "cancelledOwner",
          "type": "address"
        }
      ],
      "name": "OwnershipTransferCancelled",
      "type": "event"
    },
    {
      "anonymous": false,
      "inputs": [
        {
          "indexed": true,
          "internalType": "address",
          "name": "previousOwner",
          "type": "address"
        },
        {
          "indexed": true,
          "internalType": "address",
          "name": "newOwner",
          "type": "address"
        }
      ],
      "name": "OwnershipTransferStarted",
      "type": "event"
    },
    {
      "anonymous": false,
      "inputs": [
        {
          "indexed": true,
          "internalType": "address",
          "name": "previousOwner",
          "type": "address"
        },
        {
          "indexed": true,
          "internalType": "address",
          "name": "newOwner",
          "type": "address"
        }
      ],
      "name": "OwnershipTransferred",
      "type": "event"
    },
    {
      "anonymous": false,
      "inputs": [
        {
          "indexed": false,
          "internalType": "bool",
          "name": "isPaused",
          "type": "bool"
        }
      ],
      "name": "RegistryPaused",
      "type": "event"
    },
    {
      "inputs": [],
      "name": "ACCESS_CONTROL",
      "outputs": [
        {
          "internalType": "bytes32",
          "name": "",
          "type": "bytes32"
        }
      ],
      "stateMutability": "view",
      "type": "function"
    },
    {
      "inputs": [],
      "name": "MARKET_FACTORY",
      "outputs": [
        {
          "internalType": "bytes32",
          "name": "",
          "type": "bytes32"
        }
      ],
      "stateMutability": "view",
      "type": "function"
    },
    {
      "inputs": [],
      "name": "PARAMETER_STORAGE",
      "outputs": [
        {
          "internalType": "bytes32",
          "name": "",
          "type": "bytes32"
        }
      ],
      "stateMutability": "view",
      "type": "function"
    },
    {
      "inputs": [],
      "name": "PROPOSAL_MANAGER",
      "outputs": [
        {
          "internalType": "bytes32",
          "name": "",
          "type": "bytes32"
        }
      ],
      "stateMutability": "view",
      "type": "function"
    },
    {
      "inputs": [],
      "name": "RESOLUTION_MANAGER",
      "outputs": [
        {
          "internalType": "bytes32",
          "name": "",
          "type": "bytes32"
        }
      ],
      "stateMutability": "view",
      "type": "function"
    },
    {
      "inputs": [],
      "name": "REWARD_DISTRIBUTOR",
      "outputs": [
        {
          "internalType": "bytes32",
          "name": "",
          "type": "bytes32"
        }
      ],
      "stateMutability": "view",
      "type": "function"
    },
    {
      "inputs": [],
      "name": "TREASURY",
      "outputs": [
        {
          "internalType": "bytes32",
          "name": "",
          "type": "bytes32"
        }
      ],
      "stateMutability": "view",
      "type": "function"
    },
    {
      "inputs": [],
      "name": "acceptOwnership",
      "outputs": [],
      "stateMutability": "nonpayable",
      "type": "function"
    },
    {
      "inputs": [
        {
          "internalType": "bytes32[]",
          "name": "keys",
          "type": "bytes32[]"
        },
        {
          "internalType": "address[]",
          "name": "addresses",
          "type": "address[]"
        },
        {
          "internalType": "uint256[]",
          "name": "versions",
          "type": "uint256[]"
        }
      ],
      "name": "batchSetContracts",
      "outputs": [],
      "stateMutability": "nonpayable",
      "type": "function"
    },
    {
      "inputs": [],
      "name": "cancelOwnershipTransfer",
      "outputs": [],
      "stateMutability": "nonpayable",
      "type": "function"
    },
    {
      "inputs": [
        {
          "internalType": "bytes32",
          "name": "key",
          "type": "bytes32"
        }
      ],
      "name": "contractExists",
      "outputs": [
        {
          "internalType": "bool",
          "name": "",
          "type": "bool"
        }
      ],
      "stateMutability": "view",
      "type": "function"
    },
    {
      "inputs": [
        {
          "internalType": "bytes32",
          "name": "key",
          "type": "bytes32"
        }
      ],
      "name": "deactivateContract",
      "outputs": [],
      "stateMutability": "nonpayable",
      "type": "function"
    },
    {
      "inputs": [],
      "name": "getAllContracts",
      "outputs": [
        {
          "internalType": "bytes32[]",
          "name": "keys",
          "type": "bytes32[]"
        },
        {
          "internalType": "address[]",
          "name": "addresses",
          "type": "address[]"
        }
      ],
      "stateMutability": "view",
      "type": "function"
    },
    {
      "inputs": [
        {
          "internalType": "bytes32",
          "name": "key",
          "type": "bytes32"
        }
      ],
      "name": "getContract",
      "outputs": [
        {
          "internalType": "address",
          "name": "",
          "type": "address"
        }
      ],
      "stateMutability": "view",
      "type": "function"
    },
    {
      "inputs": [
        {
          "internalType": "uint256",
          "name": "index",
          "type": "uint256"
        }
      ],
      "name": "getContractAt",
      "outputs": [
        {
          "internalType": "bytes32",
          "name": "key",
          "type": "bytes32"
        },
        {
          "internalType": "address",
          "name": "contractAddress",
          "type": "address"
        }
      ],
      "stateMutability": "view",
      "type": "function"
    },
    {
      "inputs": [],
      "name": "getContractCount",
      "outputs": [
        {
          "internalType": "uint256",
          "name": "",
          "type": "uint256"
        }
      ],
      "stateMutability": "view",
      "type": "function"
    },
    {
      "inputs": [
        {
          "internalType": "bytes32",
          "name": "key",
          "type": "bytes32"
        },
        {
          "internalType": "uint256",
          "name": "contractVersion",
          "type": "uint256"
        }
      ],
      "name": "getContractVersion",
      "outputs": [
        {
          "internalType": "address",
          "name": "",
          "type": "address"
        }
      ],
      "stateMutability": "view",
      "type": "function"
    },
    {
      "inputs": [
        {
          "internalType": "bytes32",
          "name": "key",
          "type": "bytes32"
        }
      ],
      "name": "getEntry",
      "outputs": [
        {
          "components": [
            {
              "internalType": "address",
              "name": "contractAddress",
              "type": "address"
            },
            {
              "internalType": "uint256",
              "name": "version",
              "type": "uint256"
            },
            {
              "internalType": "bool",
              "name": "active",
              "type": "bool"
            }
          ],
          "internalType": "struct IVersionedRegistry.Entry",
          "name": "entry",
          "type": "tuple"
        }
      ],
      "stateMutability": "view",
      "type": "function"
    },
    {
      "inputs": [
        {
          "internalType": "bytes32",
          "name": "key",
          "type": "bytes32"
        }
      ],
      "name": "getLatestVersion",
      "outputs": [
        {
          "internalType": "uint256",
          "name": "",
          "type": "uint256"
        }
      ],
      "stateMutability": "view",
      "type": "function"
    },
    {
      "inputs": [
        {
          "internalType": "bytes32",
          "name": "key",
          "type": "bytes32"
        }
      ],
      "name": "getVersionHistory",
      "outputs": [
        {
          "internalType": "uint256[]",
          "name": "versions",
          "type": "uint256[]"
        }
      ],
      "stateMutability": "view",
      "type": "function"
    },
    {
      "inputs": [
        {
          "internalType": "bytes32",
          "name": "key",
          "type": "bytes32"
        }
      ],
      "name": "isActive",
      "outputs": [
        {
          "internalType": "bool",
          "name": "",
          "type": "bool"
        }
      ],
      "stateMutability": "view",
      "type": "function"
    },
    {
      "inputs": [],
      "name": "lastUpdateTimestamp",
      "outputs": [
        {
          "internalType": "uint128",
          "name": "",
          "type": "uint128"
        }
      ],
      "stateMutability": "view",
      "type": "function"
    },
    {
      "inputs": [],
      "name": "owner",
      "outputs": [
        {
          "internalType": "address",
          "name": "",
          "type": "address"
        }
      ],
      "stateMutability": "view",
      "type": "function"
    },
    {
      "inputs": [],
      "name": "pause",
      "outputs": [],
      "stateMutability": "nonpayable",
      "type": "function"
    },
    {
      "inputs": [],
      "name": "paused",
      "outputs": [
        {
          "internalType": "bool",
          "name": "",
          "type": "bool"
        }
      ],
      "stateMutability": "view",
      "type": "function"
    },
    {
      "inputs": [],
      "name": "pendingOwner",
      "outputs": [
        {
          "internalType": "address",
          "name": "",
          "type": "address"
        }
      ],
      "stateMutability": "view",
      "type": "function"
    },
    {
      "inputs": [
        {
          "internalType": "bytes32",
          "name": "key",
          "type": "bytes32"
        }
      ],
      "name": "reactivateContract",
      "outputs": [],
      "stateMutability": "nonpayable",
      "type": "function"
    },
    {
      "inputs": [
        {
          "internalType": "bytes32",
          "name": "key",
          "type": "bytes32"
        }
      ],
      "name": "removeContract",
      "outputs": [],
      "stateMutability": "nonpayable",
      "type": "function"
    },
    {
      "inputs": [
        {
          "internalType": "bytes32",
          "name": "key",
          "type": "bytes32"
        },
        {
          "internalType": "address",
          "name": "contractAddress",
          "type": "address"
        },
        {
          "internalType": "uint256",
          "name": "contractVersion",
          "type": "uint256"
        }
      ],
      "name": "setContract",
      "outputs": [],
      "stateMutability": "nonpayable",
      "type": "function"
    },
    {
      "inputs": [],
      "name": "totalContracts",
      "outputs": [
        {
          "internalType": "uint128",
          "name": "",
          "type": "uint128"
        }
      ],
      "stateMutability": "view",
      "type": "function"
    },
    {
      "inputs": [
        {
          "internalType": "address",
          "name": "newOwner",
          "type": "address"
        }
      ],
      "name": "transferOwnership",
      "outputs": [],
      "stateMutability": "nonpayable",
      "type": "function"
    },
    {
      "inputs": [],
      "name": "unpause",
      "outputs": [],
      "stateMutability": "nonpayable",
      "type": "function"
    },
    {
      "inputs": [
        {
          "internalType": "bytes32",
          "name": "key",
          "type": "bytes32"
        },
        {
          "internalType": "address",
          "name": "newAddress",
          "type": "address"
        },
        {
          "internalType": "uint256",
          "name": "newVersion",
          "type": "uint256"
        }
      ],
      "name": "updateContract",
      "outputs": [],
      "stateMutability": "nonpayable",
      "type": "function"
    },
    {
      "inputs": [],
      "name": "version",
      "outputs": [
        {
          "internalType": "uint88",
          "name": "",
          "type": "uint88"
        }
      ],
      "stateMutability": "view",
      "type": "function"
    }
  ],
  "bytecode": "0x60808060405234610051576000805460ff60a01b16336001600160a81b031617600160a81b179055600180546001600160801b03164260801b6001600160801b03191617905561174790816100578239f35b600080fdfe608080604052600436101561001357600080fd5b600090813560e01c90816306f980ac146114b4575080631283f7a8146110ea57806314bcec9f146110c957806318d3ce9614610f7a57806323452b9c14610f035780632d2c556514610ec857806335f20cc414610e8d5780633f4ba83a14610dde5780634488b1d814610c0657806354fd4d5014610be65780635c36901c14610b955780635c975abb14610b705780636c8244b814610b3b5780637146b30814610a975780637336725e14610a2e57806379b0676b1461099f57806379ba5097146109255780638456cb591461087157806385c5c332146108365780638da5cb5b1461080f5780638de728e4146107d45780639269db36146107995780639399869d1461077b5780639a5e4eb4146106f4578063a09037a9146106cb578063a43e04d81461054a578063ba6874921461050f578063c1cc092b1461048f578063dd3b014c1461042e578063dd830b241461033d578063e16c7d9814610297578063e2623f3a1461025c578063e30c3978146102335763f2fde38b1461019757600080fd5b34610230576020366003190112610230576004356001600160a01b038181169182900361022b5782541680330361021957811561020757600280546001600160a01b031916831790557f38d16b8cac22d99fc7c124b9cd0de2d3fa1faef420bfe791d8c362d765e227008380a380f35b60405163d92e233d60e01b8152600490fd5b6040516330cd747160e01b8152600490fd5b600080fd5b80fd5b50346102305780600319360112610230576002546040516001600160a01b039091168152602090f35b503461023057806003193601126102305760206040517f3f5ee1af94e3aa4df76e406b3122f661b96747f62a002ec9e7c726e310fcc5de8152f35b5034610230576020366003190112610230576040600435918281526003602052206040516102c48161163d565b81546001600160a01b039081168083526001840154602084015260029093015460ff1615156040830190815290921561032457511561030b57602092505116604051908152f35b6040516337ec974b60e11b815260048101849052602490fd5b60405163094b60cd60e21b815260048101859052602490fd5b50346102305761034c36611578565b835490916001600160a01b039182811633036102195760a01c60ff1661041c5783855260036020528160408620541615610324578385526003602052600160408620015483111561040a57303b156104065760405193630891163b60e31b855260048501521660248301526044820152818160648183305af180156103fb576103d3575080f35b6001600160401b0381116103e75760405280f35b634e487b7160e01b82526041600452602482fd5b6040513d84823e3d90fd5b8480fd5b6040516372a6c86960e11b8152600490fd5b60405163ab35696f60e01b8152600490fd5b503461023057602036600319011261023057600435808252600360205260408220546001600160a01b031615610477576040826001926020945260038452200154604051908152f35b6024906040519063094b60cd60e21b82526004820152fd5b5034610230576020366003190112610230578054600435906001600160a01b039081163303610219578183526003602052604083205416156104775780825260036020526002604083200160ff1981541690557f9530f075890dbfb5532963b373ecba1ac26aeba0e25923a9b4975e40c42d18eb6020604051428152a280f35b503461023057806003193601126102305760206040517ff69becce43eb7c129c7e57b79c4d47725b152ce1d0ff8b6990a18246c3281df88152f35b50346102305760209081600319360112610230578054600435906001600160a01b039081811633036102195760a01c60ff1661041c57818352600384526040832054169081156104775780835260078452604083205460065480820361066b575b50506006548015610657576000199081016105c5816115a2565b8382549160031b1b19169055600655818452600785528360408120556003855283600260408220828155826001820155015560018060801b03806001541691821561064357956000805160206116f283398151915292604092879860018060801b03194260801b16920116176001558151908682524290820152a480f35b634e487b7160e01b86526011600452602486fd5b634e487b7160e01b84526031600452602484fd5b6000199080820190811161064357610682906115a2565b90549060031b1c908201828111610643576106b76106a083926115a2565b819391549060031b91821b91600019901b19161790565b9055845260078552604084205538806105ab565b50346102305780600319360112610230576001546040516001600160801b039091168152602090f35b5034610230576020366003190112610230576040816060928280516107188161163d565b8281528260208201520152600435815260036020522060405161073a8161163d565b60018060a01b0382541691828252604060ff600260018401549360208601948552015416920191151582526040519283525160208301525115156040820152f35b50346102305780600319360112610230576020600654604051908152f35b503461023057806003193601126102305760206040517f6450fc880933ecbac6591cb5b043b20f0f2a1452c46acdd5919b2bdafc37439c8152f35b503461023057806003193601126102305760206040517f9fdd4208644662869ace48b3082cadc57733575893a2062f0fe410f2bbb541078152f35b5034610230578060031936011261023057546040516001600160a01b039091168152602090f35b503461023057806003193601126102305760206040517f06374147a369007fbcf8b4ec42877887c951d52fe6b6c46230bf54c468f908ee8152f35b503461023057806003193601126102305780546001600160a01b03811633036102195760ff60a01b1916600160a01b178155604051600181527f0c7722a7dae46fe8a3f6d65361d81aa005b20f34835c7458b5ddb2b99fa722f890602090a160405160408152600f60408201526e149959da5cdd1c9e4814185d5cd959608a1b60608201524260208201527f6758593a60801a617f0db7ba7baa12f6c9e46bafd2d55b3dad6b807d1c215a9c60803392a280f35b50346102305780600319360112610230576002546001600160a01b03808216913383900361098d5783546001600160a01b031980821685178655909116600255167f8be0079c531659141344cd1fd0a4f28419497f9722a3daafe3b4186f6b6457e08380a380f35b604051630614e5c760e21b8152600490fd5b503461023057602036600319011261023057600435906006548210156109f3576109ca6040926115a2565b9054600391821b1c8083526020918252918390205483519283526001600160a01b031690820152f35b60405162461bcd60e51b8152602060048201526013602482015272496e646578206f7574206f6620626f756e647360681b6044820152606490fd5b50346102305760403660031901126102305760048035808352602091825260408084206024358086529352909220546001600160a01b031691908215610a7957602083604051908152f35b6044925060405191637471fc7360e01b835260048301526024820152fd5b503461023057602080600319360112610b37576004358252600581526040822060405192838383549182815201908193835284832090835b818110610b235750505084610ae5910385611658565b60405193838594850191818652518092526040850193925b828110610b0c57505050500390f35b835185528695509381019392810192600101610afd565b825484529286019260019283019201610acf565b5080fd5b503461023057602036600319011261023057602090600435815260038252604060018060a01b03912054161515604051908152f35b503461023057806003193601126102305760ff6020915460a01c166040519015158152f35b503461023057602036600319011261023057600435815260036020908152604090912080546001600160a01b031615159081610bd7575b506040519015158152f35b60ff9150600201541638610bcc565b50346102305780600319360112610230576020905460a81c604051908152f35b503461023057610c1536611578565b83546001600160a01b039391929084811633036102195760a01c60ff1661041c5783168015610207578115610dcc578215610dba5781855260209360038552604086209180600183855416940154938015600014610d98575050610c78846115d3565b6006548488526007875260408820556001546001600160801b03610c9d81831661160f565b169060018060801b0319161760015580847f68e1c68b84debc91c3758a2947f1e6c76061bb825475da6b06b117c0eace367260408051898152428b820152a35b610d3c604051610cec8161163d565b828152600288820194888652604083019060018252888c5260038b5260408c209351169560018060a01b0319968785541617845551600184015551151591019060ff801983541691151516179055565b6004865260408720858852865260408720918254161790558203610d7d575b600180546001600160801b03164260801b6001600160801b0319161790558380f35b610d909260059185525260408320611679565b388080610d5b565b856000805160206116f2833981519152604080518a8152428c820152a4610cdd565b60405163a9146eeb60e01b8152600490fd5b604051630eda9c3d60e31b8152600490fd5b503461023057806003193601126102305780546001600160a01b03811633036102195760ff60a01b191681556040518181527f0c7722a7dae46fe8a3f6d65361d81aa005b20f34835c7458b5ddb2b99fa722f890602090a1604051604081526011604082015270149959da5cdd1c9e48155b9c185d5cd959607a1b60608201524260208201527f6758593a60801a617f0db7ba7baa12f6c9e46bafd2d55b3dad6b807d1c215a9c60803392a280f35b503461023057806003193601126102305760206040517ff86cd94aa228713826f68695a3d54a3ca09d385dae40c9dc7103d0cca91f8df48152f35b503461023057806003193601126102305760206040517f06aa03964db1f7257357ef09714a5f0ca3633723df419e97015e0c7a3e83edb78152f35b503461023057806003193601126102305780546001600160a01b03908116330361021957600254908116908115610f68576001600160a01b0319166002557f48a87225523c5fd46bf3b7da3223e5525f77b8136a962695d701a24699bef8f38280a280f35b604051633ae6f50960e11b8152600490fd5b50346102305780600319360112610230576040518060065492838252602080920180946006835283832090835b8181106110b55750505083610fbd910384611658565b825193610fe2610fcc866116c6565b95610fda6040519788611658565b8087526116c6565b8584019390601f19013685378451835b81811061107757505060405195869560408701906040885251809152606087019390855b81811061106057505050858303868301525180835291810193925b82811061104057505050500390f35b83516001600160a01b031685528695509381019392810192600101611031565b825186528998509484019491840191600101611016565b8061108a600192899a95979698996116dd565b51855260038652818060a01b036040862054166110a782866116dd565b520196959492939196610ff2565b825484529285019260019283019201610fa7565b5034610230578060031936011261023057602060015460801c604051908152f35b5034610230576060366003190112610230576001600160401b036004358181116114b05761111c903690600401611548565b60249291923582811161040657611137903690600401611548565b9190926044359081116114ac57611152903690600401611548565b86549193916001600160a01b03811633036102195760a01c60ff1661041c578183148015906114a2575b61148d57821561147b57865b8381106111b157600180546001600160801b03164260801b6001600160801b0319161790558780f35b6001600160a01b036111cc6111c783868a6116a2565b6116b2565b1615610207576111dd8185896116a2565b3515610dcc576111ee8183876116a2565b3515610dba57806112018492868a6116a2565b358952600360205260408920548590879089908b9083906001600160a01b03168e61122d8888866116a2565b358152600360205287808b604084206001015499878387156000149e60019f9b60029a60409a611328996113959f976111c79761132299611428576112c8935061128161127b8484846116a2565b356115d3565b6006548f8f6112918686866116a2565b358152600760205220556001546001600160801b036112b181831661160f565b6001600160801b03199092169116176001556116a2565b357f68e1c68b84debc91c3758a2947f1e6c76061bb825475da6b06b117c0eace36728c611304878b6112fe6111c7838b8b6116a2565b966116a2565b8151903581524260208201526001600160a01b0390941693a36116a2565b986116a2565b358251966113358861163d565b8a8060a01b031687526020870152611354888d848901968c88526116a2565b358152600360205220916020888060a01b0386511695898060a01b0319968786541617855501518884015551151591019060ff801983541691151516179055565b6113a36111c784888c6116a2565b906113af84898d6116a2565b358c52600460205260408c206113c685888c6116a2565b358d5260205260408c2091858060a01b0316908254161790556113ea8285896116a2565b35036113f7575b01611188565b61140281868a6116a2565b358952600560205261142360408a2061141c83868a6116a2565b3590611679565b6113f1565b9061143392916116a2565b356000805160206116f28339815191528d61145d888c6114576111c7838c8c6116a2565b976116a2565b8151903581524260208201526001600160a01b0390951694a46116a2565b60405163521299a960e01b8152600490fd5b6040516001621398b960e31b03198152600490fd5b508083141561117c565b8580fd5b8280fd5b905034610b37576020366003190112610b37578154600435916001600160a01b039182163303611539575081835260036020526040832054161561047757808252600360205260026040832001600160ff198254161790557f4c1fbaa3e65da9eccd281797e067df3a29bd2ad7505452b158e93a3b805aca9f6020604051428152a280f35b6330cd747160e01b8152600490fd5b9181601f8401121561022b578235916001600160401b03831161022b576020808501948460051b01011161022b57565b606090600319011261022b57600435906024356001600160a01b038116810361022b579060443590565b6006548110156115bd57600660005260206000200190600090565b634e487b7160e01b600052603260045260246000fd5b600654600160401b8110156115f9576106a08160016115f593016006556115a2565b9055565b634e487b7160e01b600052604160045260246000fd5b6001600160801b039081169081146116275760010190565b634e487b7160e01b600052601160045260246000fd5b606081019081106001600160401b038211176115f957604052565b90601f801991011681019081106001600160401b038211176115f957604052565b805490600160401b8210156115f957600182018082558210156115bd5760005260206000200155565b91908110156115bd5760051b0190565b356001600160a01b038116810361022b5790565b6001600160401b0381116115f95760051b60200190565b80518210156115bd5760209160051b01019056fee3c7010dee9422f3358e6d44fa9379d31291616039a8373325971fea74ade08da264697066735822122037340fa6c5314c2c3010f863c1d81fb22401b4e5ae1f722bc20f95a810fc9fce64736f6c63430008140033",
  "linkReferences": {},
  "deployedLinkReferences": {}
}