{
  "_format": "hh-sol-artifact-1",
  "contractName": "CurveRegistry",
  "sourceName": "contracts/core/CurveRegistry.sol",
  "abi": [
    {
      "inputs": [
        {
          "internalType": "address",
          "name": "_accessControl",
          "type": "address"
        }
      ],
      "stateMutability": "nonpayable",
      "type": "constructor"
    },
    {
      "inputs": [],
      "name": "CurveAlreadyRegistered",
      "type": "error"
    },
    {
      "inputs": [],
      "name": "CurveNotActive",
      "type": "error"
    },
    {
      "inputs": [],
      "name": "CurveNotRegistered",
      "type": "error"
    },
    {
      "inputs": [
        {
          "internalType": "string",
          "name": "reason",
          "type": "string"
        }
      ],
      "name": "CurveValidationFailed",
      "type": "error"
    },
    {
      "inputs": [],
      "name": "InvalidCurveAddress",
      "type": "error"
    },
    {
      "inputs": [],
      "name": "InvalidCurveName",
      "type": "error"
    },
    {
      "inputs": [],
      "name": "Unauthorized",
      "type": "error"
    },
    {
      "anonymous": false,
      "inputs": [
        {
          "indexed": true,
          "internalType": "address",
          "name": "curveAddress",
          "type": "address"
        },
        {
          "indexed": false,
          "internalType": "uint256",
          "name": "newCount",
          "type": "uint256"
        }
      ],
      "name": "CurveMarketCountIncremented",
      "type": "event"
    },
    {
      "anonymous": false,
      "inputs": [
        {
          "indexed": true,
          "internalType": "address",
          "name": "curveAddress",
          "type": "address"
        },
        {
          "indexed": false,
          "internalType": "uint256",
          "name": "versionNumber",
          "type": "uint256"
        },
        {
          "indexed": false,
          "internalType": "uint256",
          "name": "timestamp",
          "type": "uint256"
        }
      ],
      "name": "CurveMetadataUpdated",
      "type": "event"
    },
    {
      "anonymous": false,
      "inputs": [
        {
          "indexed": true,
          "internalType": "address",
          "name": "curveAddress",
          "type": "address"
        },
        {
          "indexed": false,
          "internalType": "string",
          "name": "curveName",
          "type": "string"
        },
        {
          "indexed": false,
          "internalType": "string",
          "name": "version",
          "type": "string"
        },
        {
          "indexed": false,
          "internalType": "string",
          "name": "description",
          "type": "string"
        }
      ],
      "name": "CurveRegistered",
      "type": "event"
    },
    {
      "anonymous": false,
      "inputs": [
        {
          "indexed": true,
          "internalType": "address",
          "name": "curveAddress",
          "type": "address"
        },
        {
          "indexed": false,
          "internalType": "string",
          "name": "curveName",
          "type": "string"
        }
      ],
      "name": "CurveRemoved",
      "type": "event"
    },
    {
      "anonymous": false,
      "inputs": [
        {
          "indexed": true,
          "internalType": "address",
          "name": "curveAddress",
          "type": "address"
        },
        {
          "indexed": false,
          "internalType": "string",
          "name": "curveName",
          "type": "string"
        },
        {
          "indexed": false,
          "internalType": "bool",
          "name": "isActive",
          "type": "bool"
        }
      ],
      "name": "CurveStatusChanged",
      "type": "event"
    },
    {
      "inputs": [],
      "name": "accessControl",
      "outputs": [
        {
          "internalType": "contract IAccessControlManager",
          "name": "",
          "type": "address"
        }
      ],
      "stateMutability": "view",
      "type": "function"
    },
    {
      "inputs": [
        {
          "internalType": "string",
          "name": "",
          "type": "string"
        }
      ],
      "name": "curveByName",
      "outputs": [
        {
          "internalType": "address",
          "name": "",
          "type": "address"
        }
      ],
      "stateMutability": "view",
      "type": "function"
    },
    {
      "inputs": [
        {
          "internalType": "address",
          "name": "",
          "type": "address"
        }
      ],
      "name": "curveInfo",
      "outputs": [
        {
          "internalType": "bool",
          "name": "isActive",
          "type": "bool"
        },
        {
          "internalType": "uint256",
          "name": "registeredAt",
          "type": "uint256"
        },
        {
          "internalType": "string",
          "name": "version",
          "type": "string"
        },
        {
          "internalType": "string",
          "name": "description",
          "type": "string"
        },
        {
          "internalType": "string",
          "name": "category",
          "type": "string"
        },
        {
          "internalType": "string",
          "name": "iconUrl",
          "type": "string"
        },
        {
          "internalType": "address",
          "name": "creator",
          "type": "address"
        },
        {
          "internalType": "uint256",
          "name": "versionNumber",
          "type": "uint256"
        },
        {
          "internalType": "uint256",
          "name": "updatedAt",
          "type": "uint256"
        },
        {
          "internalType": "uint256",
          "name": "marketCount",
          "type": "uint256"
        }
      ],
      "stateMutability": "view",
      "type": "function"
    },
    {
      "inputs": [],
      "name": "getActiveCurves",
      "outputs": [
        {
          "internalType": "address[]",
          "name": "",
          "type": "address[]"
        }
      ],
      "stateMutability": "view",
      "type": "function"
    },
    {
      "inputs": [],
      "name": "getAllCurves",
      "outputs": [
        {
          "internalType": "address[]",
          "name": "",
          "type": "address[]"
        }
      ],
      "stateMutability": "view",
      "type": "function"
    },
    {
      "inputs": [
        {
          "internalType": "string",
          "name": "name",
          "type": "string"
        }
      ],
      "name": "getCurveByName",
      "outputs": [
        {
          "internalType": "address",
          "name": "",
          "type": "address"
        }
      ],
      "stateMutability": "view",
      "type": "function"
    },
    {
      "inputs": [
        {
          "internalType": "address",
          "name": "curveAddress",
          "type": "address"
        }
      ],
      "name": "getCurveInfo",
      "outputs": [
        {
          "components": [
            {
              "internalType": "bool",
              "name": "isActive",
              "type": "bool"
            },
            {
              "internalType": "uint256",
              "name": "registeredAt",
              "type": "uint256"
            },
            {
              "internalType": "string",
              "name": "version",
              "type": "string"
            },
            {
              "internalType": "string",
              "name": "description",
              "type": "string"
            },
            {
              "internalType": "string",
              "name": "category",
              "type": "string"
            },
            {
              "internalType": "string",
              "name": "iconUrl",
              "type": "string"
            },
            {
              "internalType": "address",
              "name": "creator",
              "type": "address"
            },
            {
              "internalType": "uint256",
              "name": "versionNumber",
              "type": "uint256"
            },
            {
              "internalType": "uint256",
              "name": "updatedAt",
              "type": "uint256"
            },
            {
              "internalType": "uint256",
              "name": "marketCount",
              "type": "uint256"
            },
            {
              "internalType": "string[]",
              "name": "tags",
              "type": "string[]"
            }
          ],
          "internalType": "struct CurveRegistry.CurveMetadata",
          "name": "metadata",
          "type": "tuple"
        },
        {
          "internalType": "string",
          "name": "curveName",
          "type": "string"
        }
      ],
      "stateMutability": "view",
      "type": "function"
    },
    {
      "inputs": [
        {
          "internalType": "address",
          "name": "curveAddress",
          "type": "address"
        }
      ],
      "name": "incrementMarketCount",
      "outputs": [],
      "stateMutability": "nonpayable",
      "type": "function"
    },
    {
      "inputs": [
        {
          "internalType": "address",
          "name": "curveAddress",
          "type": "address"
        }
      ],
      "name": "isCurveActive",
      "outputs": [
        {
          "internalType": "bool",
          "name": "isRegistered",
          "type": "bool"
        },
        {
          "internalType": "bool",
          "name": "isActive",
          "type": "bool"
        }
      ],
      "stateMutability": "view",
      "type": "function"
    },
    {
      "inputs": [
        {
          "internalType": "address",
          "name": "curveAddress",
          "type": "address"
        },
        {
          "internalType": "string",
          "name": "version",
          "type": "string"
        },
        {
          "internalType": "string",
          "name": "description",
          "type": "string"
        },
        {
          "internalType": "string",
          "name": "category",
          "type": "string"
        },
        {
          "internalType": "string",
          "name": "iconUrl",
          "type": "string"
        },
        {
          "internalType": "string[]",
          "name": "tags",
          "type": "string[]"
        }
      ],
      "name": "registerCurve",
      "outputs": [],
      "stateMutability": "nonpayable",
      "type": "function"
    },
    {
      "inputs": [
        {
          "internalType": "address",
          "name": "curveAddress",
          "type": "address"
        },
        {
          "internalType": "string",
          "name": "version",
          "type": "string"
        },
        {
          "internalType": "string",
          "name": "description",
          "type": "string"
        },
        {
          "internalType": "string",
          "name": "category",
          "type": "string"
        },
        {
          "internalType": "string",
          "name": "iconUrl",
          "type": "string"
        },
        {
          "internalType": "string[]",
          "name": "tags",
          "type": "string[]"
        }
      ],
      "name": "registerCurveUnsafe",
      "outputs": [],
      "stateMutability": "nonpayable",
      "type": "function"
    },
    {
      "inputs": [
        {
          "internalType": "address",
          "name": "curveAddress",
          "type": "address"
        }
      ],
      "name": "removeCurve",
      "outputs": [],
      "stateMutability": "nonpayable",
      "type": "function"
    },
    {
      "inputs": [
        {
          "internalType": "address",
          "name": "curveAddress",
          "type": "address"
        },
        {
          "internalType": "bool",
          "name": "isActive",
          "type": "bool"
        }
      ],
      "name": "setCurveStatus",
      "outputs": [],
      "stateMutability": "nonpayable",
      "type": "function"
    },
    {
      "inputs": [
        {
          "internalType": "address",
          "name": "curveAddress",
          "type": "address"
        },
        {
          "internalType": "string",
          "name": "description",
          "type": "string"
        },
        {
          "internalType": "string",
          "name": "category",
          "type": "string"
        },
        {
          "internalType": "string",
          "name": "iconUrl",
          "type": "string"
        },
        {
          "internalType": "string[]",
          "name": "tags",
          "type": "string[]"
        }
      ],
      "name": "updateCurveMetadata",
      "outputs": [],
      "stateMutability": "nonpayable",
      "type": "function"
    }
  ],
  "bytecode": "0x60a034620000ae57601f620033ed38819003918201601f19168301916001600160401b03831184841017620000b357808492602094604052833981010312620000ae57516001600160a01b03811690819003620000ae5780156200009c576080526040516133239081620000ca82396080518181816102200152818161141c015281816119cc01528181611c300152818161247801526125b90152f35b6040516344ed92ed60e11b8152600490fd5b600080fd5b634e487b7160e01b600052604160045260246000fdfe608080604052600436101561001357600080fd5b60003560e01c908163047f8bc114612842575080630a9649f6146126e257806311a15a3b146125e857806313007d55146125a35780631ba42f18146124235780632c3b0adc14611bf3578063328f845214611b9757806368b9114f146119875780636a829404146113585780638056cf79146112f0578063937ab746146112575780639be94ab0146101e8578063a14ddc79146101615763dab61713146100b957600080fd5b3461015c57602036600319011261015c576001600160a01b036100da612b54565b168060005260016020526040600020541561014a57806000526002602052600960406000200161010a815461318b565b90558060005260026020527f156da87716b855ec5bbbe06e6f0a7b9961f8b508ab5f6587304a113db6bc12a16020600960406000200154604051908152a2005b604051634e2be2a760e01b8152600490fd5b600080fd5b3461015c57600036600319011261015c5760405160008054808352818052602080840193927f290decd9548b62a8d60345a988386fc84ba6bc95484008f6362f93160ef3e56392915b8282106101d1576101cd856101c181890382612c4c565b60405191829182612bb2565b0390f35b8354865294850194600193840193909101906101aa565b3461015c576101f636612e0c565b604051632474521560e21b81526000600482015233602482015293959194939192916020816044817f00000000000000000000000000000000000000000000000000000000000000006001600160a01b03165afa9081156111a55760009161121d575b501561120c576001600160a01b038316156111fa576001600160a01b0383166000908152600160205260409020546111b157604051638f784bc160e01b8152946000866004816001600160a01b0388165afa9586156111a5576000966111d5575b508551156111c35760405186516102d5818360208b01612b6a565b60039082019081528190036020019020546001600160a01b03166111b157604051631d54a23f60e31b815269021e19e0c9bab240000060048201526000816024816001600160a01b0389165afa9081156111a557600090600092611155575b5015611104575060408051638878f0f760e01b815269021e19e0c9bab24000006004820152600060248201819052604482015290816064816001600160a01b0389165afa90816000916000936110e1575b506103d05760405163238c0c1560e11b815260206004820152601d60248201527f67657450726963657328657175696c69627269756d29206661696c65640000006044820152606490fd5b6103da82826131f0565b61270f811080156110d6575b6110635750612710809111918215611059575b5050611019576040516306c56b4760e41b815269021e19e0c9bab24000006004820152600060248201819052604482015260016064820152670de0b6b3a7640000608482015260208160a4816001600160a01b0389165afa60009181610fe5575b5061049c5760405163238c0c1560e11b815260206004820152601460248201527318d85b18dd5b185d1950dbdcdd0819985a5b195960621b6044820152606490fd5b8015610fa157604051632b9a9eeb60e11b815269021e19e0c9bab24000006004820152670de0b6b3a7640000602482018190526000604483015260016064830152608482015260208160a4816001600160a01b038a165afa60009181610f6d575b506105415760405163238c0c1560e11b815260206004820152601660248201527518d85b18dd5b185d195499599d5b990819985a5b195960521b6044820152606490fd5b11610f2b5760408051638878f0f760e01b815269021e19e0c9bab2400000600482015268056bc75e2d6310000060248201526000604482015290816064816001600160a01b0389165afa80600092600092610f07575b506105e25760405163238c0c1560e11b815260206004820152601f60248201527f676574507269636573286f6e652d73696465642059455329206661696c6564006044820152606490fd5b6105eb916131f0565b61270f81108015610efc575b610e87575060408051638878f0f760e01b815269021e19e0c9bab240000060048201526000602482015268056bc75e2d63100000604482015290816064816001600160a01b0389165afa80600092600092610e53575b506106985760405163238c0c1560e11b815260206004820152601e60248201527f676574507269636573286f6e652d7369646564204e4f29206661696c656400006044820152606490fd5b6106a1916131f0565b61270f81108015610e48575b610daf57506106c46001600160a01b03851661302a565b50604051926106d284612c30565b60018452426020850152856040850152876060850152608084015260a08301523360c0830152600160e083015242610100830152600061012083015261014082015260018060a01b0382166000526002602052604060002061074382511515829060ff801983541691151516179055565b6020820151600182015560408201518051906001600160401b038211610acd5781906107726002850154612bf6565b601f8111610d7a575b50602090601f8311600114610d0857600092610cfd575b50508160011b916000199060031b1c19161760028201555b60608201518051906001600160401b038211610acd5781906107cf6003850154612bf6565b601f8111610cc8575b50602090601f8311600114610c5657600092610c4b575b50508160011b916000199060031b1c19161760038201555b60808201518051906001600160401b038211610acd57819061082c6004850154612bf6565b601f8111610c16575b50602090601f8311600114610ba457600092610b99575b50508160011b916000199060031b1c19161760048201555b60a08201518051906001600160401b038211610acd576108876005840154612bf6565b601f8111610b64575b50602090601f8311600114610aee5791806101409492600a94600092610ae3575b50508160011b916000199060031b1c19161760058201555b60018060a01b0360c08501511660018060a01b031960068301541617600682015560e084015160078201556101008401516008820155610120840151600982015501910151602081519161091d8385612f7d565b01916000526020600020916000905b8282106109ad57867fe8b0a40d74710752608e003157035a37ca8f2707ca6eac01adbcb1566b624fd787876109a88c60405160208188516109708183858d01612b6a565b60039082019081520301902080546001600160a01b0319166001600160a01b0394909416938417905560405192959293849384612fc6565b0390a2005b80518051906001600160401b038211610acd576109ca8654612bf6565b601f8111610a90575b50602090601f8311600114610a20579282600194936020938695600092610a15575b5050600019600383901b1c191690841b1787555b0194019101909261092c565b015190508d806109f5565b908660005260206000209160005b601f1985168110610a78575083602093600196938796938794601f19811610610a5f575b505050811b018755610a09565b015160001960f88460031b161c191690558d8080610a52565b91926020600181928685015181550194019201610a2e565b610abd90876000526020600020601f850160051c81019160208610610ac3575b601f0160051c0190612f1d565b8a6109d3565b9091508190610ab0565b634e487b7160e01b600052604160045260246000fd5b015190508a806108b1565b906005840160005260206000209160005b601f1985168110610b4c5750926101409492600192600a9583601f19811610610b33575b505050811b0160058201556108c9565b015160001960f88460031b161c191690558a8080610b23565b91926020600181928685015181550194019201610aff565b610b9390600585016000526020600020601f850160051c81019160208610610ac357601f0160051c0190612f1d565b88610890565b01519050888061084c565b9250600484016000526020600020906000935b601f1984168510610bfb576001945083601f19811610610be2575b505050811b016004820155610864565b015160001960f88460031b161c19169055888080610bd2565b81810151835560209485019460019093019290910190610bb7565b610c4590600486016000526020600020601f850160051c81019160208610610ac357601f0160051c0190612f1d565b89610835565b0151905088806107ef565b9250600384016000526020600020906000935b601f1984168510610cad576001945083601f19811610610c94575b505050811b016003820155610807565b015160001960f88460031b161c19169055888080610c84565b81810151835560209485019460019093019290910190610c69565b610cf790600386016000526020600020601f850160051c81019160208610610ac357601f0160051c0190612f1d565b896107d8565b015190508880610792565b9250600284016000526020600020906000935b601f1984168510610d5f576001945083601f19811610610d46575b505050811b0160028201556107aa565b015160001960f88460031b161c19169055888080610d36565b81810151835560209485019460019093019290910190610d1b565b610da990600286016000526020600020601f850160051c81019160208610610ac357601f0160051c0190612f1d565b8961077b565b610dbb610e44916131fd565b610e23604c60405180937f4f6e652d7369646564204e4f20707269636573206d7573742073756d20746f2060208301526b01898181818161033b7ba1d160a51b6040830152610e138151809260208686019101612b6a565b810103602c810184520182612c4c565b60405163238c0c1560e11b8152602060048201529182916024830190612b8d565b0390fd5b5061271181116106ad565b909250610e78915060403d604011610e80575b610e708183612c4c565b8101906131da565b90918a61064d565b503d610e66565b610e93610e44916131fd565b610e23604d60405180937f4f6e652d73696465642059455320707269636573206d7573742073756d20746f60208301526c0101898181818161033b7ba1d1609d1b6040830152610eec8151809260208686019101612b6a565b810103602d810184520182612c4c565b5061271181116105f7565b909250610f23915060403d604011610e8057610e708183612c4c565b90918a610597565b60405163238c0c1560e11b81526020600482015260196024820152781499599d5b990818d85b9b9bdd08195e18d959590818dbdcdd603a1b6044820152606490fd5b9091506020813d602011610f99575b81610f8960209383612c4c565b8101031261015c5751908a6104fd565b3d9150610f7c565b60405163238c0c1560e11b815260206004820152601b60248201527a436f7374206d757374206265203e203020666f722073686172657360281b6044820152606490fd5b9091506020813d602011611011575b8161100160209383612c4c565b8101031261015c5751908961045a565b3d9150610ff4565b60405163238c0c1560e11b81526020600482015260176024820152760507269636573206d757374206265203c3d20313030303604c1b6044820152606490fd5b11905088806103f9565b61106f610e44916131fd565b610e23604b60405180937f457175696c69627269756d20707269636573206d7573742073756d20746f203160208301526a018181818161033b7ba1d160ad1b60408301526110c68151809260208686019101612b6a565b810103602b810184520182612c4c565b5061271181116103e6565b9092506110fd915060403d604011610e8057610e708183612c4c565b918a610385565b610e4490610e23603760405180937603b30b634b230ba32a830b930b6b9903330b4b632b21d1604d1b60208301526111458151809260208686019101612b6a565b8101036017810184520182612c4c565b9150503d806000833e6111688183612c4c565b604082828101031261015c5761117d82612ea9565b9160208101516001600160401b03811161015c5761119e9282019101612eb6565b9089610334565b6040513d6000823e3d90fd5b60405163cda8633160e01b8152600490fd5b604051636907c98560e01b8152600490fd5b6111f39196503d806000833e6111eb8183612c4c565b810190612ef8565b94876102ba565b6040516344ed92ed60e11b8152600490fd5b6040516282b42960e81b8152600490fd5b90506020813d60201161124f575b8161123860209383612c4c565b8101031261015c5761124990612ea9565b87610259565b3d915061122b565b3461015c57602036600319011261015c576004356001600160401b03811161015c57611287903690600401612d2e565b602061129c6040519283815193849201612b6a565b60039082019081528190036020019020546001600160a01b0316801561014a5780600052600260205260ff60406000205416156112de57602090604051908152f35b604051630a80764d60e31b8152600490fd5b3461015c57602036600319011261015c576004356001600160401b03811161015c576113226020913690600401612d2e565b816113366040519283815193849201612b6a565b600390820190815281900382019020546040516001600160a01b039091168152f35b3461015c5760a036600319011261015c57611371612b54565b6024356001600160401b03811161015c57611390903690600401612d2e565b6044356001600160401b03811161015c576113af903690600401612d2e565b6064356001600160401b03811161015c576113ce903690600401612d2e565b6084356001600160401b03811161015c576113ed903690600401612d8c565b604051632474521560e21b8152600060048201523360248201526001600160a01b0394919391906020816044817f00000000000000000000000000000000000000000000000000000000000000008a165afa9081156111a55760009161194d575b501561120c5784861660005260016020526040600020541561014a5784861660005260026020526003604060002001908051906001600160401b038211610acd57819061149b8454612bf6565b601f811161191b575b50602090601f83116001146118af576000926118a4575b50508160011b916000199060031b1c19161790555b83851660005260026020526004604060002001908051906001600160401b038211610acd5781906115018454612bf6565b601f8111611872575b50602090601f8311600114611806576000926117fb575b50508160011b916000199060031b1c19161790555b82841660005260026020526005604060002001908051906001600160401b038211610acd5781906115678454612bf6565b601f81116117c9575b50602090601f831160011461176357600092611758575b50508160011b916000199060031b1c19161790555b818316600052600260205260076040600020016115b9815461318b565b90558183166000526002602052600a6040600020426008820155019060208151916115e48385612f7d565b01916000526020600020916000905b82821061164357857f1e19b0ceb3aa5a3137bc7920d8d87cba09b98d4f29e131e3363fe906e7f9aeb3604087808416600052600260205260078260002001549382519485524260208601521692a2005b80518051906001600160401b038211610acd576116608654612bf6565b601f8111611726575b50602090601f83116001146116b65792826001949360209386956000926116ab575b5050600019600383901b1c191690841b1787555b019401910190926115f3565b015190508b8061168b565b908660005260206000209160005b601f198516811061170e575083602093600196938796938794601f198116106116f5575b505050811b01875561169f565b015160001960f88460031b161c191690558b80806116e8565b919260206001819286850151815501940192016116c4565b61175290876000526020600020601f850160051c81019160208610610ac357601f0160051c0190612f1d565b88611669565b015190508680611587565b6000858152602081209350601f198516905b8181106117b15750908460019594939210611798575b505050811b01905561159c565b015160001960f88460031b161c1916905586808061178b565b92936020600181928786015181550195019301611775565b6117f590856000526020600020601f850160051c81019160208610610ac357601f0160051c0190612f1d565b87611570565b015190508780611521565b9250836000526020600020906000935b601f1984168510611857576001945083601f1981161061183e575b505050811b019055611536565b015160001960f88460031b161c19169055878080611831565b81810151835560209485019460019093019290910190611816565b61189e90856000526020600020601f850160051c81019160208610610ac357601f0160051c0190612f1d565b8861150a565b0151905088806114bb565b9250836000526020600020906000935b601f1984168510611900576001945083601f198116106118e7575b505050811b0190556114d0565b015160001960f88460031b161c191690558880806118da565b818101518355602094850194600190930192909101906118bf565b61194790856000526020600020601f850160051c81019160208610610ac357601f0160051c0190612f1d565b896114a4565b90506020813d60201161197f575b8161196860209383612c4c565b8101031261015c5761197990612ea9565b8761144e565b3d915061195b565b3461015c5760208060031936011261015c576119a1612b54565b604051632474521560e21b8152600060048201523360248201526001600160a01b03919083816044817f000000000000000000000000000000000000000000000000000000000000000087165afa9081156111a557600091611b62575b501561120c5716806000526001918281526040600020541561014a57604051638f784bc160e01b815290600082600481865afa9182156111a557600092611b45575b50611a4a836130a4565b5060405181818451611a5f8183858901612b6a565b8101600381520301902060018060a01b031981541690558260005260028152600a604060002060008155600086820155611a9b60028201612f34565b611aa760038201612f34565b611ab360048201612f34565b611abf60058201612f34565b60006006820155600060078201556000600882015560006009820155018054906000815581611b20575b60405183815285907f1ede77c15d937b2b08450f3b144c21b346622e7ce771acbb28fb069cc376085690806109a881880189612b8d565b60005281600020908101905b81811015611ae95780611b3f8792612f34565b01611b2c565b611b5b9192503d806000833e6111eb8183612c4c565b9084611a40565b90508381813d8311611b90575b611b798183612c4c565b8101031261015c57611b8a90612ea9565b846119fe565b503d611b6f565b3461015c57602036600319011261015c576001600160a01b03611bb8612b54565b166000526001602052604080600020541515808091611be0575b825191825215156020820152f35b50600260205260ff826000205416611bd2565b3461015c57611c0136612e0c565b604051632474521560e21b815260006004820152336024808301919091529496929594929391906020816044817f00000000000000000000000000000000000000000000000000000000000000006001600160a01b03165afa9081156111a5576000916123e9575b501561120c576001600160a01b038416156111fa576001600160a01b0384166000908152600160205260409020546111b157604051638f784bc160e01b8152956000876004816001600160a01b0389165afa9687156111a5576000976123cc575b508651156111c3576040518751611ce5818360208c01612b6a565b60039082019081528190036020019020546001600160a01b03166111b157611d156001600160a01b03861661302a565b5060405192611d2384612c30565b60018452426020850152866040850152886060850152608084015260a08301523360c0830152600160e083015242610100830152600061012083015261014082015260018060a01b03831660005260026020526040600020611d9482511515829060ff801983541691151516179055565b6020820151600182015560408201518051906001600160401b0382116121a1578190611dc36002850154612bf6565b601f8111612397575b50602090601f83116001146123255760009261231a575b50508160011b916000199060031b1c19161760028201555b60608201518051906001600160401b0382116121a1578190611e206003850154612bf6565b601f81116122e5575b50602090601f831160011461227357600092612268575b50508160011b916000199060031b1c19161760038201555b60808201518051906001600160401b0382116121a1578190611e7d6004850154612bf6565b601f8111612233575b50602090601f83116001146121c1576000926121b6575b50508160011b916000199060031b1c19161760048201555b60a08201518051906001600160401b0382116121a157611ed86005840154612bf6565b601f811161216c575b50602090601f83116001146120f65791806101409492600a946000926120eb575b50508160011b916000199060031b1c19161760058201555b60018060a01b0360c08501511660018060a01b031960068301541617600682015560e084015160078201556101008401516008820155610120840151600982015501910151906020825192611f6f8484612f7d565b019060005260206000206000915b838310611fc157877fe8b0a40d74710752608e003157035a37ca8f2707ca6eac01adbcb1566b624fd788886109a88d60405160208188516109708183858d01612b6a565b80518051906001600160401b0382116120d657611fde8454612bf6565b601f81116120a4575b50602090601f8311600114612034579282600194936020938695600092612029575b5050600019600383901b1c191690841b1785555b01920192019190611f7d565b015190508e80612009565b908460005260206000209160005b601f198516811061208c575083602093600196938796938794601f19811610612073575b505050811b01855561201d565b015160001960f88460031b161c191690558e8080612066565b91926020600181928685015181550194019201612042565b6120d090856000526020600020601f850160051c81019160208610610ac357601f0160051c0190612f1d565b8b611fe7565b86634e487b7160e01b60005260416004526000fd5b015190508b80611f02565b906005840160005260206000209160005b601f19851681106121545750926101409492600192600a9583601f1981161061213b575b505050811b016005820155611f1a565b015160001960f88460031b161c191690558b808061212b565b91926020600181928685015181550194019201612107565b61219b90600585016000526020600020601f850160051c81019160208610610ac357601f0160051c0190612f1d565b89611ee1565b84634e487b7160e01b60005260416004526000fd5b015190508980611e9d565b9250600484016000526020600020906000935b601f1984168510612218576001945083601f198116106121ff575b505050811b016004820155611eb5565b015160001960f88460031b161c191690558980806121ef565b818101518355602094850194600190930192909101906121d4565b61226290600486016000526020600020601f850160051c81019160208610610ac357601f0160051c0190612f1d565b8a611e86565b015190508980611e40565b9250600384016000526020600020906000935b601f19841685106122ca576001945083601f198116106122b1575b505050811b016003820155611e58565b015160001960f88460031b161c191690558980806122a1565b81810151835560209485019460019093019290910190612286565b61231490600386016000526020600020601f850160051c81019160208610610ac357601f0160051c0190612f1d565b8a611e29565b015190508980611de3565b9250600284016000526020600020906000935b601f198416851061237c576001945083601f19811610612363575b505050811b016002820155611dfb565b015160001960f88460031b161c19169055898080612353565b81810151835560209485019460019093019290910190612338565b6123c690600286016000526020600020601f850160051c81019160208610610ac357601f0160051c0190612f1d565b8a611dcc565b6123e29197503d806000833e6111eb8183612c4c565b9588611cca565b90506020813d60201161241b575b8161240460209383612c4c565b8101031261015c5761241590612ea9565b88611c69565b3d91506123f7565b3461015c57604036600319011261015c5761243c612b54565b602435908115159081830361015c57604051632474521560e21b8152600060048201523360248201526020916001600160a01b039183816044817f000000000000000000000000000000000000000000000000000000000000000087165afa9081156111a55760009161256e575b501561120c57169283600052600182526040600020541561014a576124e790846000526002835260406000209060ff801983541691151516179055565b604051638f784bc160e01b815290600082600481875afa9081156111a5577f230aeac3c5a447a0d98db9989c394e1b67bfaf7238689c1af3cd76fe2b62a9489361254893600093612551575b50604051938493604085526040850190612b8d565b918301520390a2005b6125679193503d806000833e6111eb8183612c4c565b9186612533565b90508381813d831161259c575b6125858183612c4c565b8101031261015c5761259690612ea9565b866124aa565b503d61257b565b3461015c57600036600319011261015c576040517f00000000000000000000000000000000000000000000000000000000000000006001600160a01b03168152602090f35b3461015c57602036600319011261015c5760206001600160a01b038061260c612b54565b166000526002825260406000209060ff8254169160018101549061263260028201612c6d565b6126c761264160038401612c6d565b946126b961265160048601612c6d565b6126ab61266060058801612c6d565b936006880154169861269d600789015497600960088b01549a01549a6040519e8f9e8f9015158152015260408d61014091829101528d0190612b8d565b908b820360608d0152612b8d565b9089820360808b0152612b8d565b9087820360a0890152612b8d565b9360c086015260e08501526101008401526101208301520390f35b3461015c57600036600319011261015c576040518060005480835281602080940160008052846000209260005b8682821061282c578461272481860382612c4c565b60009160005b825181101561277f576001600160a01b0361274582856131b0565b51166000526002825260ff6040600020541661276a575b6127659061318b565b61272a565b926127776127659161318b565b93905061275c565b5061278983612d75565b926127976040519485612c4c565b8084526127a6601f1991612d75565b0136828501376000805b835181101561281e576001600160a01b03806127cc83876131b0565b51166000526002845260ff604060002054166127f2575b506127ed9061318b565b6127b0565b8192612817916128056127ed94886131b0565b511661281182896131b0565b5261318b565b91906127e3565b604051806101cd8782612bb2565b855484526001958601958795509301920161270f565b3461015c57602036600319011261015c576060610140612860612b54565b9261286a81612c30565b600081526000602082015282604082015282808201528260808201528260a0820152600060c0820152600060e082015260006101008201526000610120820152015260018060a01b03811660005260016020526040600020541561014a5760018060a01b03811660005260026020526040600020604051906128eb82612c30565b60ff815416151582526001810154602083015261290a60028201612c6d565b604083015261291b60038201612c6d565b606083015261292c60048201612c6d565b608083015261293d60058201612c6d565b60a083015260068101546001600160a01b031660c0830152600781015460e083015260088101546101008301526009810154610120830152600a81015461298381612d75565b916129916040519384612c4c565b818352600a60208401910160005260206000206000915b838310612b37576101408601859052604051638f784bc160e01b8152866000826004816001600160a01b038d165afa9182156111a557600092612b1a575b5060405180926040825282511515604083015260208301516060830152610140612a6c612a56612a40612a2a604088015161016060808901526101a0880190612b8d565b6060880151878203603f190160a0890152612b8d565b6080870151868203603f190160c0880152612b8d565b60a0860151858203603f190160e0870152612b8d565b9360018060a01b0360c08201511661010085015260e081015161012085015261010081015182850152610120810151610160850152015190603f1983850301610180840152815180855260208501946020808360051b8301019401956000915b838310612ae75786806101cd88888382036020850152612b8d565b919395509193602080612b06600193601f198682030187528a51612b8d565b980193019301909287959396949296612acc565b612b309192503d806000833e6111eb8183612c4c565b90826129e6565b600160208192612b4685612c6d565b8152019201920191906129a8565b600435906001600160a01b038216820361015c57565b60005b838110612b7d5750506000910152565b8181015183820152602001612b6d565b90602091612ba681518092818552858086019101612b6a565b601f01601f1916010190565b6020908160408183019282815285518094520193019160005b828110612bd9575050505090565b83516001600160a01b031685529381019392810192600101612bcb565b90600182811c92168015612c26575b6020831014612c1057565b634e487b7160e01b600052602260045260246000fd5b91607f1691612c05565b61016081019081106001600160401b03821117610acd57604052565b90601f801991011681019081106001600160401b03821117610acd57604052565b9060405191826000825492612c8184612bf6565b908184526001948581169081600014612cf05750600114612cad575b5050612cab92500383612c4c565b565b9093915060005260209081600020936000915b818310612cd8575050612cab93508201013880612c9d565b85548884018501529485019487945091830191612cc0565b915050612cab94506020925060ff191682840152151560051b8201013880612c9d565b6001600160401b038111610acd57601f01601f191660200190565b81601f8201121561015c57803590612d4582612d13565b92612d536040519485612c4c565b8284526020838301011161015c57816000926020809301838601378301015290565b6001600160401b038111610acd5760051b60200190565b9080601f8301121561015c57813590612da482612d75565b92612db26040519485612c4c565b828452602092838086019160051b8301019280841161015c57848301915b848310612de05750505050505090565b82356001600160401b03811161015c578691612e0184848094890101612d2e565b815201920191612dd0565b9060c060031983011261015c57600480356001600160a01b038116810361015c57926001600160401b0360243581811161015c5782612e4c918501612d2e565b9360443582811161015c5783612e63918601612d2e565b9360643583811161015c5784612e7a918301612d2e565b9360843584811161015c5781612e91918401612d2e565b9360a43590811161015c57612ea69201612d8c565b90565b5190811515820361015c57565b81601f8201121561015c578051612ecc81612d13565b92612eda6040519485612c4c565b8184526020828401011161015c57612ea69160208085019101612b6a565b9060208282031261015c5781516001600160401b03811161015c57612ea69201612eb6565b818110612f28575050565b60008155600101612f1d565b612f3e8154612bf6565b9081612f48575050565b81601f60009311600114612f5a575055565b908083918252612f79601f60208420940160051c840160018501612f1d565b5555565b90600160401b8111610acd57815491818155828210612f9b57505050565b600052602060002091820191015b818110612fb4575050565b80612fc0600192612f34565b01612fa9565b91612fef90612fe1612ea69593606086526060860190612b8d565b908482036020860152612b8d565b916040818403910152612b8d565b9060009182548110156130165782805260208320019190565b634e487b7160e01b83526032600452602483fd5b60008181526001602052604081205461309f578054600160401b81101561308b579082613078613061846001604096018555612ffd565b819391549060031b91821b91600019901b19161790565b9055805492815260016020522055600190565b634e487b7160e01b82526041600452602482fd5b905090565b600081815260016020526040812054909190801561318657600019908082018181116131725784549083820191821161315e5781810361312a575b50505082548015613116578101906130f682612ffd565b909182549160031b1b191690558255815260016020526040812055600190565b634e487b7160e01b84526031600452602484fd5b61314861313961306193612ffd565b90549060031b1c928392612ffd565b90558452600160205260408420553880806130df565b634e487b7160e01b86526011600452602486fd5b634e487b7160e01b85526011600452602485fd5b505090565b600019811461319a5760010190565b634e487b7160e01b600052601160045260246000fd5b80518210156131c45760209160051b010190565b634e487b7160e01b600052603260045260246000fd5b919082604091031261015c576020825192015190565b9190820180921161319a57565b80156132bf5780816000925b6132ab57508061321883612d13565b926132266040519485612c4c565b808452601f1961323582612d13565b01366020860137905b61324757505090565b60001981019080821161319a578192600a928382049380850290858204148515171561319a57820391821161319a5760ff80921660300191821161319a57855111156131c45760f81b6001600160f81b03191660001a908401601f0153908161323e565b916132b7600a9161318b565b920480613209565b50604051604081018181106001600160401b03821117610acd5760405260018152600360fc1b60208201529056fea2646970667358221220baeb18fe6d8250e9c06e55f7689bab5f74593987a11e3c679940575c7910fd1564736f6c63430008140033",
  "linkReferences": {},
  "deployedLinkReferences": {}
}