{
  "_format": "hh-sol-artifact-1",
  "contractName": "MarketTemplateRegistry",
  "sourceName": "contracts/core/MarketTemplateRegistry.sol",
  "abi": [
    {
      "inputs": [
        {
          "internalType": "address",
          "name": "_registry",
          "type": "address"
        }
      ],
      "stateMutability": "nonpayable",
      "type": "constructor"
    },
    {
      "inputs": [],
      "name": "InvalidImplementation",
      "type": "error"
    },
    {
      "inputs": [
        {
          "internalType": "bytes32",
          "name": "templateId",
          "type": "bytes32"
        }
      ],
      "name": "TemplateAlreadyExists",
      "type": "error"
    },
    {
      "inputs": [
        {
          "internalType": "bytes32",
          "name": "templateId",
          "type": "bytes32"
        }
      ],
      "name": "TemplateNotActive",
      "type": "error"
    },
    {
      "inputs": [
        {
          "internalType": "bytes32",
          "name": "templateId",
          "type": "bytes32"
        }
      ],
      "name": "TemplateNotFound",
      "type": "error"
    },
    {
      "inputs": [],
      "name": "Unauthorized",
      "type": "error"
    },
    {
      "anonymous": false,
      "inputs": [
        {
          "indexed": true,
          "internalType": "bytes32",
          "name": "templateId",
          "type": "bytes32"
        }
      ],
      "name": "TemplateDeactivated",
      "type": "event"
    },
    {
      "anonymous": false,
      "inputs": [
        {
          "indexed": true,
          "internalType": "bytes32",
          "name": "templateId",
          "type": "bytes32"
        },
        {
          "indexed": false,
          "internalType": "uint256",
          "name": "newCount",
          "type": "uint256"
        }
      ],
      "name": "TemplateMarketCountIncremented",
      "type": "event"
    },
    {
      "anonymous": false,
      "inputs": [
        {
          "indexed": true,
          "internalType": "bytes32",
          "name": "templateId",
          "type": "bytes32"
        },
        {
          "indexed": false,
          "internalType": "uint256",
          "name": "versionNumber",
          "type": "uint256"
        },
        {
          "indexed": false,
          "internalType": "uint256",
          "name": "timestamp",
          "type": "uint256"
        }
      ],
      "name": "TemplateMetadataUpdated",
      "type": "event"
    },
    {
      "anonymous": false,
      "inputs": [
        {
          "indexed": true,
          "internalType": "bytes32",
          "name": "templateId",
          "type": "bytes32"
        }
      ],
      "name": "TemplateReactivated",
      "type": "event"
    },
    {
      "anonymous": false,
      "inputs": [
        {
          "indexed": true,
          "internalType": "bytes32",
          "name": "templateId",
          "type": "bytes32"
        },
        {
          "indexed": false,
          "internalType": "address",
          "name": "implementation",
          "type": "address"
        }
      ],
      "name": "TemplateRegistered",
      "type": "event"
    },
    {
      "anonymous": false,
      "inputs": [
        {
          "indexed": true,
          "internalType": "bytes32",
          "name": "templateId",
          "type": "bytes32"
        },
        {
          "indexed": false,
          "internalType": "address",
          "name": "oldImplementation",
          "type": "address"
        },
        {
          "indexed": false,
          "internalType": "address",
          "name": "newImplementation",
          "type": "address"
        }
      ],
      "name": "TemplateUpdated",
      "type": "event"
    },
    {
      "inputs": [
        {
          "internalType": "bytes32",
          "name": "templateId",
          "type": "bytes32"
        }
      ],
      "name": "deactivateTemplate",
      "outputs": [],
      "stateMutability": "nonpayable",
      "type": "function"
    },
    {
      "inputs": [],
      "name": "getActiveTemplateCount",
      "outputs": [
        {
          "internalType": "uint256",
          "name": "",
          "type": "uint256"
        }
      ],
      "stateMutability": "view",
      "type": "function"
    },
    {
      "inputs": [
        {
          "internalType": "uint256",
          "name": "offset",
          "type": "uint256"
        },
        {
          "internalType": "uint256",
          "name": "limit",
          "type": "uint256"
        }
      ],
      "name": "getActiveTemplateIds",
      "outputs": [
        {
          "internalType": "bytes32[]",
          "name": "templateIds",
          "type": "bytes32[]"
        },
        {
          "internalType": "uint256",
          "name": "total",
          "type": "uint256"
        }
      ],
      "stateMutability": "view",
      "type": "function"
    },
    {
      "inputs": [],
      "name": "getActiveTemplateIdsLegacy",
      "outputs": [
        {
          "internalType": "bytes32[]",
          "name": "",
          "type": "bytes32[]"
        }
      ],
      "stateMutability": "view",
      "type": "function"
    },
    {
      "inputs": [],
      "name": "getAllTemplateIds",
      "outputs": [
        {
          "internalType": "bytes32[]",
          "name": "",
          "type": "bytes32[]"
        }
      ],
      "stateMutability": "view",
      "type": "function"
    },
    {
      "inputs": [
        {
          "internalType": "bytes32",
          "name": "templateId",
          "type": "bytes32"
        }
      ],
      "name": "getTemplate",
      "outputs": [
        {
          "internalType": "address",
          "name": "",
          "type": "address"
        }
      ],
      "stateMutability": "view",
      "type": "function"
    },
    {
      "inputs": [],
      "name": "getTemplateCount",
      "outputs": [
        {
          "internalType": "uint256",
          "name": "",
          "type": "uint256"
        }
      ],
      "stateMutability": "view",
      "type": "function"
    },
    {
      "inputs": [
        {
          "internalType": "bytes32",
          "name": "templateId",
          "type": "bytes32"
        }
      ],
      "name": "incrementMarketCount",
      "outputs": [],
      "stateMutability": "nonpayable",
      "type": "function"
    },
    {
      "inputs": [
        {
          "internalType": "bytes32",
          "name": "",
          "type": "bytes32"
        }
      ],
      "name": "isActive",
      "outputs": [
        {
          "internalType": "bool",
          "name": "",
          "type": "bool"
        }
      ],
      "stateMutability": "view",
      "type": "function"
    },
    {
      "inputs": [
        {
          "internalType": "bytes32",
          "name": "templateId",
          "type": "bytes32"
        }
      ],
      "name": "isTemplateActive",
      "outputs": [
        {
          "internalType": "bool",
          "name": "",
          "type": "bool"
        }
      ],
      "stateMutability": "view",
      "type": "function"
    },
    {
      "inputs": [
        {
          "internalType": "bytes32",
          "name": "templateId",
          "type": "bytes32"
        }
      ],
      "name": "reactivateTemplate",
      "outputs": [],
      "stateMutability": "nonpayable",
      "type": "function"
    },
    {
      "inputs": [
        {
          "internalType": "bytes32",
          "name": "templateId",
          "type": "bytes32"
        },
        {
          "internalType": "address",
          "name": "implementation",
          "type": "address"
        },
        {
          "internalType": "string",
          "name": "name",
          "type": "string"
        },
        {
          "internalType": "string",
          "name": "category",
          "type": "string"
        },
        {
          "internalType": "string",
          "name": "iconUrl",
          "type": "string"
        },
        {
          "internalType": "bytes",
          "name": "customConfig",
          "type": "bytes"
        },
        {
          "internalType": "string[]",
          "name": "features",
          "type": "string[]"
        }
      ],
      "name": "registerTemplate",
      "outputs": [],
      "stateMutability": "nonpayable",
      "type": "function"
    },
    {
      "inputs": [],
      "name": "registry",
      "outputs": [
        {
          "internalType": "contract IVersionedRegistry",
          "name": "",
          "type": "address"
        }
      ],
      "stateMutability": "view",
      "type": "function"
    },
    {
      "inputs": [
        {
          "internalType": "bytes32",
          "name": "templateId",
          "type": "bytes32"
        }
      ],
      "name": "templateExists",
      "outputs": [
        {
          "internalType": "bool",
          "name": "",
          "type": "bool"
        }
      ],
      "stateMutability": "view",
      "type": "function"
    },
    {
      "inputs": [
        {
          "internalType": "bytes32",
          "name": "",
          "type": "bytes32"
        }
      ],
      "name": "templateInfo",
      "outputs": [
        {
          "internalType": "address",
          "name": "implementation",
          "type": "address"
        },
        {
          "internalType": "bool",
          "name": "isActive",
          "type": "bool"
        },
        {
          "internalType": "string",
          "name": "name",
          "type": "string"
        },
        {
          "internalType": "string",
          "name": "category",
          "type": "string"
        },
        {
          "internalType": "string",
          "name": "iconUrl",
          "type": "string"
        },
        {
          "internalType": "address",
          "name": "creator",
          "type": "address"
        },
        {
          "internalType": "uint256",
          "name": "versionNumber",
          "type": "uint256"
        },
        {
          "internalType": "uint256",
          "name": "createdAt",
          "type": "uint256"
        },
        {
          "internalType": "uint256",
          "name": "updatedAt",
          "type": "uint256"
        },
        {
          "internalType": "uint256",
          "name": "marketCount",
          "type": "uint256"
        },
        {
          "internalType": "bytes",
          "name": "customConfig",
          "type": "bytes"
        }
      ],
      "stateMutability": "view",
      "type": "function"
    },
    {
      "inputs": [
        {
          "internalType": "bytes32",
          "name": "",
          "type": "bytes32"
        }
      ],
      "name": "templates",
      "outputs": [
        {
          "internalType": "address",
          "name": "",
          "type": "address"
        }
      ],
      "stateMutability": "view",
      "type": "function"
    },
    {
      "inputs": [
        {
          "internalType": "bytes32",
          "name": "templateId",
          "type": "bytes32"
        },
        {
          "internalType": "address",
          "name": "newImplementation",
          "type": "address"
        }
      ],
      "name": "updateTemplate",
      "outputs": [],
      "stateMutability": "nonpayable",
      "type": "function"
    },
    {
      "inputs": [
        {
          "internalType": "bytes32",
          "name": "templateId",
          "type": "bytes32"
        },
        {
          "internalType": "string",
          "name": "name",
          "type": "string"
        },
        {
          "internalType": "string",
          "name": "category",
          "type": "string"
        },
        {
          "internalType": "string",
          "name": "iconUrl",
          "type": "string"
        },
        {
          "internalType": "bytes",
          "name": "customConfig",
          "type": "bytes"
        },
        {
          "internalType": "string[]",
          "name": "features",
          "type": "string[]"
        }
      ],
      "name": "updateTemplateMetadata",
      "outputs": [],
      "stateMutability": "nonpayable",
      "type": "function"
    }
  ],
  "bytecode": "0x60a0346100cd57601f61222138819003918201601f19168301916001600160401b038311848410176100d2578084926020946040528339810103126100cd57516001600160a01b038116908190036100cd5780156100955760805260405161213890816100e982396080518181816101b501528181610b4801528181610cd201528181610d8201528181610fd501526119260152f35b60405162461bcd60e51b815260206004820152601060248201526f496e76616c696420726567697374727960801b6044820152606490fd5b600080fd5b634e487b7160e01b600052604160045260246000fdfe608080604052600436101561001357600080fd5b60003560e01c9081630a63157614611bfc57508063107fd78c14611abd57806318aeb80314611a7157806332d56858146118dc5780634a6af57c14610ef35780635016959a14610ed55780635313992b14610d325780635c36901c14610d015780637b10399914610cbc5780637cd99f4314610afe5780638a99d6c914610a5a5780638aaaa29e14610a2957806392c6c33814610a0b5780639757739b146109915780639916a244146108f35780639d2d610e146108b3578063ae24ccbc146108405763ed956345146100e557600080fd5b3461083b5760c036600319011261083b5760043560246001600160401b03813581811161083b5761011a903690600401611d73565b9060443581811161083b57610133903690600401611d73565b9060643581811161083b5761014c903690600401611d73565b9360843582811161083b57610165903690600401611d73565b9460a43583811161083b5761017e903690600401611de0565b604051631c2d8fb360e31b81526000805160206120c38339815191526004820152602097919491906001600160a01b0390898187817f000000000000000000000000000000000000000000000000000000000000000086165afa8015610802578a9160009161080e575b50604460405180948193632474521560e21b83526000805160206120e38339815191526004840152338b840152165afa908115610802576000916107d5575b50156107c457886000526004885260ff60406000205416156107ac5788600052600088526001958660406000200188518481116106af576102728161026c8454611c2c565b84611ee2565b808b601f9b8c831160011461073d57600092610732575b5050600019600383901b1c191690891b1790555b89600052600089526002604060002001908051908482116106af5781906102ce826102c88654611c2c565b86611ee2565b8b908b83116001146106cf576000926106c4575b5050600019600383901b1c191690881b1790555b886000526000885260039283604060002001908051908482116106af578190610323826102c88654611c2c565b8b908b831160011461064d57600092610642575b505060001982871b1c191690881b1790555b886000526000885260096040600020019080519083821161062d578190610374826102c88654611c2c565b8a908a83116001146105cb576000926105c0575b505060001982861b1c191690871b1790555b876000526000875260056040600020016103b48154611f5a565b90558760005260008752600a60406000204260078201550191845194600160401b86116105ab578890845487865580881061052c575b506000948552898520949591015b868610610442578a7f805c90390b47b91dbb7ecaff4f03a68a1da4ab7fa8ceeb32813ee16eaf5d4e1760408c836000526000815260058260002001549082519182524290820152a2005b8051908151858111610517578991816104668e936104608b54611c2c565b8b611ee2565b82948d82116001146104a7578495829160009261049c575b505060001982891b1c191690841b1788555b019501950194936103f8565b01519050388061047e565b948960005283600020906000601f198416905b8181106104f557509086978488959493106104dd575b505050811b018855610490565b0151600019838b1b60f8161c191690553880806104d0565b9497939686929691938786015181550195019301928f94918e969397946104ba565b83634e487b7160e01b60005260416004526000fd5b8560005288888460002092830192015b82811061054a5750506103ea565b90919293508a61055a8254611c2c565b8061056d575b50500190888b939261053c565b8d82821160011461058757505050600081555b8a38610560565b6000926105a2918585528420920160051c8201858301611ecb565b81835555610580565b84634e487b7160e01b60005260416004526000fd5b015190503880610388565b60008581528c81208b9550929190601f198516908e5b82821061061657505084116105fe575b505050811b01905561039a565b015160001983881b60f8161c191690553880806105f1565b8385015186558d979095019493840193018e6105e1565b85634e487b7160e01b60005260416004526000fd5b015190503880610337565b60008581528d81208c9550929190601f198516908f5b8282106106985750508411610680575b505050811b019055610349565b015160001983891b60f8161c19169055388080610673565b8385015186558e979095019493840193018f610663565b86634e487b7160e01b60005260416004526000fd5b0151905038806102e2565b60008581528d81208c9550929190601f198516908f5b82821061071b5750508411610702575b505050811b0190556102f6565b015160001960f88460031b161c191690553880806106f5565b8385015186558e979095019493840193018f6106e5565b015190503880610289565b8b9350908d91601f1984168660005283600020936000905b82821061078b5750508411610772575b505050811b01905561029d565b015160001960f88460031b161c19169055388080610765565b91929395968291958786015181550195019301908f918e9695949392610755565b6040516303bfe0a160e01b8152600481018a90528490fd5b6040516282b42960e81b8152600490fd5b6107f59150893d8b116107fb575b6107ed8183611cfc565b810190611eb3565b38610227565b503d6107e3565b6040513d6000823e3d90fd5b61082e9150823d8411610834575b6108268183611cfc565b810190611e94565b386101e8565b503d61081c565b600080fd5b3461083b57600036600319011261083b57604051806003548082528260208093016003600052836000209260005b8582821061089d5750505061088592500383611cfc565b610899604051928284938452830190611e60565b0390f35b855484526001958601958895509301920161086e565b3461083b57604036600319011261083b576108e96108d5602435600435611faf565b604051928392604084526040840190611e60565b9060208301520390f35b3461083b57602036600319011261083b5760043580600052600460205260ff60406000205416156109795780600052600060205260086040600020016109398154611f5a565b90558060005260006020527f270029d747fe5d038e7d3382565bb3a6777faec0f038715a47eb3d6a783b23946020600860406000200154604051908152a2005b602490604051906303bfe0a160e01b82526004820152fd5b3461083b57602036600319011261083b5760043580600052600460205260ff60406000205416156109795780600052600260205260ff60406000205416156109f3576000526001602052602060018060a01b0360406000205416604051908152f35b602490604051906373d97ad560e01b82526004820152fd5b3461083b57600036600319011261083b576020600554604051908152f35b3461083b57602036600319011261083b576004356000526004602052602060ff604060002054166040519015158152f35b3461083b57600036600319011261083b57610a76600554611f69565b60038054906000805b838110610a9c576040516020808252819061089990820188611e60565b610aa581611f29565b905490841b1c600052600260205260ff60406000205416610acf575b610aca90611f5a565b610a7f565b90610af6610aca91610ae084611f29565b905490861b1c610af08289611f9b565b52611f5a565b919050610ac1565b3461083b5760208060031936011261083b57604051631c2d8fb360e31b81526000805160206120c38339815191526004828101919091523591906001600160a01b039082816024817f000000000000000000000000000000000000000000000000000000000000000086165afa8015610802578391600091610c9f575b50604460405180948193632474521560e21b83526000805160206120e38339815191526004840152336024840152165afa90811561080257600091610c82575b50156107c457816000526004815260ff6040600020541615610c6957816000526002815260ff60406000205416610c3b575b60008281528082526040808220805460ff60a01b191690556002909252908120805460ff191690557f3378c9a747c18cbf79d9b0aae3a0c82e6e76ad9de7c4b4707d93df8e46cb78589080a2005b600554908115610c5357600019909101600555610bed565b634e487b7160e01b600052601160045260246000fd5b6040516303bfe0a160e01b815260048101839052602490fd5b610c999150823d84116107fb576107ed8183611cfc565b83610bbb565b610cb69150823d8411610834576108268183611cfc565b85610b7b565b3461083b57600036600319011261083b576040517f00000000000000000000000000000000000000000000000000000000000000006001600160a01b03168152602090f35b3461083b57602036600319011261083b576004356000526002602052602060ff604060002054166040519015158152f35b3461083b57604036600319011261083b57600435610d4e611d5d565b604051631c2d8fb360e31b81526000805160206120c383398151915260048201526001600160a01b039160209182816024817f000000000000000000000000000000000000000000000000000000000000000088165afa9081156108025784918491600091610eb8575b50604460405180948193632474521560e21b83526000805160206120e38339815191526004840152336024840152165afa90811561080257600091610e9b575b50156107c457836000526004825260ff6040600020541615610e82578216918215610e705760008481526001835260409081902080546001600160a01b031981168617909155815192168252918101929092527f7e844562b489dc2d3707018b721db0b556c238054812acbd31ecd1dab723368191a2005b60405163340aafcd60e11b8152600490fd5b6040516303bfe0a160e01b815260048101859052602490fd5b610eb29150833d85116107fb576107ed8183611cfc565b85610df8565b610ecf9150823d8411610834576108268183611cfc565b87610db8565b3461083b57600036600319011261083b576020600354604051908152f35b3461083b5760e036600319011261083b57610f0c611d5d565b6044356001600160401b03811161083b57610f2b903690600401611d73565b906064356001600160401b03811161083b57610f4b903690600401611d73565b6084356001600160401b03811161083b57610f6a903690600401611d73565b60a4356001600160401b03811161083b57610f89903690600401611d73565b9060c4356001600160401b03811161083b57610fa9903690600401611de0565b604051631c2d8fb360e31b81526000805160206120c383398151915260048201529093906020816024817f00000000000000000000000000000000000000000000000000000000000000006001600160a01b03165afa908115610802576044916020916000916118bf575b50604051632474521560e21b81526000805160206120e3833981519152600482015233602482015292839182906001600160a01b03165afa908115610802576000916118a0575b50156107c457600435600052600460205260ff60406000205416611887576001600160a01b03851615610e7057843b1561183857604051631ff5bc5760e21b81526020816004816001600160a01b038a165afa908161180d575b506111155760405162461bcd60e51b815260206004820152602d60248201527f496d706c656d656e746174696f6e206d75737420737570706f727420494d617260448201526c6b657420696e7465726661636560981b6064820152608490fd5b6040519561018087018781106001600160401b038211176114af5760405260018060a01b0386168752600160208801526040870152606086015260808501523360a0850152600160c08501524260e08501524261010085015260006101208501526101408401526101608301526004356000526000602052604060002060018060a01b0383511681549060ff60a01b6020860151151560a01b169160018060a81b0319161717815560408301519283516001600160401b0381116114af576111ed816111e46001860154611c2c565b60018601611ee2565b6020601f821160011461179e578192939495600092611793575b50508160011b916000199060031b1c19161760018301555b60608101519283516001600160401b0381116114af5761124f816112466002870154611c2c565b60028701611ee2565b6020601f8211600114611724578192939495600092611719575b50508160011b916000199060031b1c19161760028401555b60808201519283516001600160401b0381116114af576112b1816112a86003850154611c2c565b60038501611ee2565b6020601f82116001146116aa57819293949560009261169f575b50508160011b916000199060031b1c19161760038201555b60a08301516004820180546001600160a01b0319166001600160a01b039290921691909117905560c0830151600582015560e083015160068201556101008301516007820155610120830151600882015561014083015180519093906001600160401b0381116114af576113678161135e6009860154611c2c565b60098601611ee2565b6020601f821160011461162b578190610160949596600092611620575b50508160011b916000199060031b1c19161760098401555b0151805190600160401b82116114af57600a83015482600a8501558083106115a8575b506020600a910192016000526020600020916000905b8282106114c55760048035600090815260016020818152604080842080546001600160a01b0319166001600160a01b038c1617905560028252808420805460ff1990811685179091559490915290912080549092161790556003548590600160401b8110156114af5780600161144e9201600355611f29565b81549060031b90600435821b91600019901b1916179055611470600554611f5a565b6005556040516001600160a01b039091168152600435907feece374668638a20fc64b121b39407ec17c2a6572e4bce749a16bff9c199657990602090a2005b634e487b7160e01b600052604160045260246000fd5b80518051906001600160401b0382116114af576114ec826114e68854611c2c565b88611ee2565b602090601f831160011461153857928260019493602093869560009261152d575b5050600019600383901b1c191690841b1787555b019401910190926113d5565b015190508a8061150d565b908660005260206000209160005b601f1985168110611590575083602093600196938796938794601f19811610611577575b505050811b018755611521565b015160001960f88460031b161c191690558a808061156a565b91926020600181928685015181550194019201611546565b600a84016000526020600020908382015b81830181106115c95750506113bf565b806115d660019254611c2c565b806115e3575b50016115b9565b601f811183146115f95750600081555b886115dc565b600090828252611617601f60208420920160051c8201858301611ecb565b818355556115f3565b015190508680611384565b6009840160005260206000209560005b601f19841681106116875750958291610160959697600194601f1981161061166e575b505050811b01600984015561139c565b015160001960f88460031b161c1916905586808061165e565b8282015188556001909701966020928301920161163b565b0151905085806112cb565b6003830160005260206000209060005b601f1984168110611701575060019394959683601f198116106116e8575b505050811b0160038201556112e3565b015160001960f88460031b161c191690558580806116d8565b9091602060018192858b0151815501930191016116ba565b015190508580611269565b6002850160005260206000209060005b601f198416811061177b575060019394959683601f19811610611762575b505050811b016002840155611281565b015160001960f88460031b161c19169055858080611752565b9091602060018192858b015181550193019101611734565b015190508580611207565b6001840160005260206000209060005b601f19841681106117f5575060019394959683601f198116106117dc575b505050811b01600183015561121f565b015160001960f88460031b161c191690558580806117cc565b9091602060018192858b0151815501930191016117ae565b602090813d8311611831575b6118238183611cfc565b8101031261083b57876110b5565b503d611819565b60405162461bcd60e51b815260206004820152602160248201527f496d706c656d656e746174696f6e206d757374206265206120636f6e747261636044820152601d60fa1b6064820152608490fd5b6024604051631d573fbf60e11b81526004356004820152fd5b6118b9915060203d6020116107fb576107ed8183611cfc565b8761105b565b6118d69150823d8411610834576108268183611cfc565b89611014565b3461083b5760208060031936011261083b57604051631c2d8fb360e31b81526000805160206120c38339815191526004828101919091523591906001600160a01b039082816024817f000000000000000000000000000000000000000000000000000000000000000086165afa8015610802578391600091611a54575b50604460405180948193632474521560e21b83526000805160206120e38339815191526004840152336024840152165afa90811561080257600091611a37575b50156107c457816000526004815260ff6040600020541615610c69576002908260005281815260ff6040600020541615611a24575b60008381528082526040808220805460ff60a01b1916600160a01b17905592909152908120805460ff191660011790557f430aed59dbe56ee3fe8794821739e9ef941c41d2e07efc36d3c11d98e44c7fea9080a2005b611a2f600554611f5a565b6005556119ce565b611a4e9150823d84116107fb576107ed8183611cfc565b83611999565b611a6b9150823d8411610834576108268183611cfc565b85611959565b3461083b57602036600319011261083b57600435600052600460205260ff6040600020541680611aa9575b6020906040519015158152f35b50600260205260406000205460ff16611a9c565b3461083b57602036600319011261083b57600435600052600060205260406000208054906040519081806001830190611af591611c66565b03611b009083611cfc565b6040519182611b128160028501611c66565b03611b1d9084611cfc565b6040519081611b2f8160038601611c66565b03611b3a9083611cfc565b600160a01b600190039384600485015416926005850154600686015491600787015493600888015495604051806009819b0190611b7691611c66565b03611b81908a611cfc565b6040519a8b9a81168b5260a01c60ff16151560208b01526101608060408c01528a01611bac91611d1d565b89810360608b0152611bbd91611d1d565b88810360808a0152611bce91611d1d565b9460a088015260c087015260e086015261010085015261012084015282810361014084015261089991611d1d565b3461083b57602036600319011261083b576020906004356000526001825260018060a01b03604060002054168152f35b90600182811c92168015611c5c575b6020831014611c4657565b634e487b7160e01b600052602260045260246000fd5b91607f1691611c3b565b9060009291805491611c7783611c2c565b918282526001938481169081600014611cd95750600114611c99575b50505050565b90919394506000526020928360002092846000945b838610611cc5575050505001019038808080611c93565b805485870183015294019385908201611cae565b9294505050602093945060ff191683830152151560051b01019038808080611c93565b90601f801991011681019081106001600160401b038211176114af57604052565b919082519283825260005b848110611d49575050826000602080949584010152601f8019910116010190565b602081830181015184830182015201611d28565b602435906001600160a01b038216820361083b57565b81601f8201121561083b578035906001600160401b0382116114af5760405192611da7601f8401601f191660200185611cfc565b8284526020838301011161083b57816000926020809301838601378301015290565b6001600160401b0381116114af5760051b60200190565b9080601f8301121561083b57813590611df882611dc9565b92611e066040519485611cfc565b828452602092838086019160051b8301019280841161083b57848301915b848310611e345750505050505090565b82356001600160401b03811161083b578691611e5584848094890101611d73565b815201920191611e24565b90815180825260208080930193019160005b828110611e80575050505090565b835185529381019392810192600101611e72565b9081602091031261083b57516001600160a01b038116810361083b5790565b9081602091031261083b5751801515810361083b5790565b818110611ed6575050565b60008155600101611ecb565b9190601f8111611ef157505050565b611f1d926000526020600020906020601f840160051c83019310611f1f575b601f0160051c0190611ecb565b565b9091508190611f10565b600354811015611f4457600360005260206000200190600090565b634e487b7160e01b600052603260045260246000fd5b6000198114610c535760010190565b90611f7382611dc9565b611f806040519182611cfc565b8281528092611f91601f1991611dc9565b0190602036910137565b8051821015611f445760209160051b010190565b600554929183821015612097578101808211610c5357838111612090575b818103818111610c5357611fe090611f69565b906000809281956003938454975b88811080612087575b1561207a5761200581611f29565b905490871b1c600052600260205260ff6040600020541661202f575b61202a90611f5a565b611fee565b958781101561204d575b61204561202a91611f5a565b969050612021565b9361204561207161202a926120618a611f29565b9054908a1b1c610af08289611f9b565b95915050612039565b5050955093505050509190565b50818710611ff7565b5082611fcd565b5050604051602081018181106001600160401b038211176114af57604052600081526000368137919056fe32fde5f4784e5f5dafa770ea215049399b708449187d09b883be1bd6a8df5a20a49807205ce4d355092ef5a8a18f56e8913cf4a201fbe287825b095693c21775a26469706673582212209d50305209f919b00342b1ebb6340bc45eece1724236b2de9bb2aa3ace612f6364736f6c63430008140033",
  "linkReferences": {},
  "deployedLinkReferences": {}
}