{
  "_format": "hh-sol-artifact-1",
  "contractName": "FlexibleMarketFactoryUnified",
  "sourceName": "contracts/core/FlexibleMarketFactoryUnified.sol",
  "abi": [
    {
      "inputs": [
        {
          "internalType": "address",
          "name": "_registry",
          "type": "address"
        },
        {
          "internalType": "uint256",
          "name": "_minCreatorBond",
          "type": "uint256"
        }
      ],
      "stateMutability": "nonpayable",
      "type": "constructor"
    },
    {
      "inputs": [
        {
          "internalType": "address",
          "name": "market",
          "type": "address"
        }
      ],
      "name": "ApprovalDeadlinePassed",
      "type": "error"
    },
    {
      "inputs": [],
      "name": "CloneFailed",
      "type": "error"
    },
    {
      "inputs": [],
      "name": "CloneFailed",
      "type": "error"
    },
    {
      "inputs": [],
      "name": "ContractPaused",
      "type": "error"
    },
    {
      "inputs": [],
      "name": "FailedDeployment",
      "type": "error"
    },
    {
      "inputs": [
        {
          "internalType": "uint256",
          "name": "balance",
          "type": "uint256"
        },
        {
          "internalType": "uint256",
          "name": "needed",
          "type": "uint256"
        }
      ],
      "name": "InsufficientBalance",
      "type": "error"
    },
    {
      "inputs": [],
      "name": "InsufficientBond",
      "type": "error"
    },
    {
      "inputs": [],
      "name": "InvalidBondAmount",
      "type": "error"
    },
    {
      "inputs": [],
      "name": "InvalidCategory",
      "type": "error"
    },
    {
      "inputs": [],
      "name": "InvalidCurveAddress",
      "type": "error"
    },
    {
      "inputs": [
        {
          "internalType": "uint256",
          "name": "provided",
          "type": "uint256"
        },
        {
          "internalType": "uint256",
          "name": "minimum",
          "type": "uint256"
        }
      ],
      "name": "InvalidLiquidity",
      "type": "error"
    },
    {
      "inputs": [],
      "name": "InvalidMarketConfig",
      "type": "error"
    },
    {
      "inputs": [],
      "name": "InvalidQuestion",
      "type": "error"
    },
    {
      "inputs": [],
      "name": "InvalidResolutionTime",
      "type": "error"
    },
    {
      "inputs": [],
      "name": "InvalidTemplateAddress",
      "type": "error"
    },
    {
      "inputs": [
        {
          "internalType": "bytes32",
          "name": "templateId",
          "type": "bytes32"
        }
      ],
      "name": "InvalidTemplateId",
      "type": "error"
    },
    {
      "inputs": [
        {
          "internalType": "address",
          "name": "market",
          "type": "address"
        }
      ],
      "name": "MarketAlreadyApproved",
      "type": "error"
    },
    {
      "inputs": [
        {
          "internalType": "address",
          "name": "market",
          "type": "address"
        }
      ],
      "name": "MarketAlreadyRejected",
      "type": "error"
    },
    {
      "inputs": [
        {
          "internalType": "address",
          "name": "market",
          "type": "address"
        }
      ],
      "name": "MarketNotApproved",
      "type": "error"
    },
    {
      "inputs": [
        {
          "internalType": "address",
          "name": "marketAddress",
          "type": "address"
        }
      ],
      "name": "MarketNotFound",
      "type": "error"
    },
    {
      "inputs": [],
      "name": "ReentrancyGuardReentrantCall",
      "type": "error"
    },
    {
      "inputs": [
        {
          "internalType": "address",
          "name": "market",
          "type": "address"
        }
      ],
      "name": "ThresholdNotMet",
      "type": "error"
    },
    {
      "inputs": [
        {
          "internalType": "address",
          "name": "caller",
          "type": "address"
        }
      ],
      "name": "UnauthorizedAccess",
      "type": "error"
    },
    {
      "anonymous": false,
      "inputs": [
        {
          "indexed": true,
          "internalType": "address",
          "name": "marketAddress",
          "type": "address"
        },
        {
          "indexed": true,
          "internalType": "address",
          "name": "creator",
          "type": "address"
        },
        {
          "indexed": false,
          "internalType": "uint256",
          "name": "amount",
          "type": "uint256"
        },
        {
          "indexed": false,
          "internalType": "string",
          "name": "reason",
          "type": "string"
        }
      ],
      "name": "CreatorBondRefunded",
      "type": "event"
    },
    {
      "anonymous": false,
      "inputs": [
        {
          "indexed": false,
          "internalType": "bool",
          "name": "isPaused",
          "type": "bool"
        }
      ],
      "name": "FactoryPaused",
      "type": "event"
    },
    {
      "anonymous": false,
      "inputs": [
        {
          "indexed": true,
          "internalType": "address",
          "name": "marketAddress",
          "type": "address"
        },
        {
          "indexed": false,
          "internalType": "uint256",
          "name": "timestamp",
          "type": "uint256"
        }
      ],
      "name": "MarketActivated",
      "type": "event"
    },
    {
      "anonymous": false,
      "inputs": [
        {
          "indexed": true,
          "internalType": "address",
          "name": "market",
          "type": "address"
        },
        {
          "indexed": true,
          "internalType": "address",
          "name": "approver",
          "type": "address"
        },
        {
          "indexed": false,
          "internalType": "uint256",
          "name": "timestamp",
          "type": "uint256"
        },
        {
          "indexed": false,
          "internalType": "bool",
          "name": "isAdminOverride",
          "type": "bool"
        }
      ],
      "name": "MarketApproved",
      "type": "event"
    },
    {
      "anonymous": false,
      "inputs": [
        {
          "indexed": true,
          "internalType": "address",
          "name": "marketAddress",
          "type": "address"
        },
        {
          "indexed": true,
          "internalType": "address",
          "name": "creator",
          "type": "address"
        },
        {
          "indexed": false,
          "internalType": "string",
          "name": "question",
          "type": "string"
        },
        {
          "indexed": false,
          "internalType": "uint256",
          "name": "resolutionTime",
          "type": "uint256"
        },
        {
          "indexed": false,
          "internalType": "uint256",
          "name": "creatorBond",
          "type": "uint256"
        },
        {
          "indexed": true,
          "internalType": "bytes32",
          "name": "category",
          "type": "bytes32"
        },
        {
          "indexed": false,
          "internalType": "uint256",
          "name": "timestamp",
          "type": "uint256"
        }
      ],
      "name": "MarketCreated",
      "type": "event"
    },
    {
      "anonymous": false,
      "inputs": [
        {
          "indexed": true,
          "internalType": "address",
          "name": "marketAddress",
          "type": "address"
        },
        {
          "indexed": false,
          "internalType": "string",
          "name": "reason",
          "type": "string"
        },
        {
          "indexed": false,
          "internalType": "uint256",
          "name": "timestamp",
          "type": "uint256"
        }
      ],
      "name": "MarketDeactivated",
      "type": "event"
    },
    {
      "anonymous": false,
      "inputs": [
        {
          "indexed": true,
          "internalType": "address",
          "name": "market",
          "type": "address"
        },
        {
          "indexed": true,
          "internalType": "address",
          "name": "creator",
          "type": "address"
        },
        {
          "indexed": false,
          "internalType": "uint256",
          "name": "timestamp",
          "type": "uint256"
        },
        {
          "indexed": false,
          "internalType": "uint256",
          "name": "likesRequired",
          "type": "uint256"
        },
        {
          "indexed": false,
          "internalType": "uint256",
          "name": "approvalDeadline",
          "type": "uint256"
        }
      ],
      "name": "MarketProposed",
      "type": "event"
    },
    {
      "anonymous": false,
      "inputs": [
        {
          "indexed": true,
          "internalType": "address",
          "name": "market",
          "type": "address"
        },
        {
          "indexed": true,
          "internalType": "address",
          "name": "rejector",
          "type": "address"
        },
        {
          "indexed": false,
          "internalType": "string",
          "name": "reason",
          "type": "string"
        },
        {
          "indexed": false,
          "internalType": "uint256",
          "name": "timestamp",
          "type": "uint256"
        }
      ],
      "name": "MarketRejected",
      "type": "event"
    },
    {
      "inputs": [],
      "name": "ADMIN_ROLE",
      "outputs": [
        {
          "internalType": "bytes32",
          "name": "",
          "type": "bytes32"
        }
      ],
      "stateMutability": "view",
      "type": "function"
    },
    {
      "inputs": [],
      "name": "BACKEND_ROLE",
      "outputs": [
        {
          "internalType": "bytes32",
          "name": "",
          "type": "bytes32"
        }
      ],
      "stateMutability": "view",
      "type": "function"
    },
    {
      "inputs": [
        {
          "internalType": "address",
          "name": "market",
          "type": "address"
        }
      ],
      "name": "activateMarket",
      "outputs": [],
      "stateMutability": "nonpayable",
      "type": "function"
    },
    {
      "inputs": [
        {
          "internalType": "address",
          "name": "market",
          "type": "address"
        }
      ],
      "name": "adminApproveMarket",
      "outputs": [],
      "stateMutability": "nonpayable",
      "type": "function"
    },
    {
      "inputs": [
        {
          "internalType": "address",
          "name": "market",
          "type": "address"
        },
        {
          "internalType": "string",
          "name": "reason",
          "type": "string"
        }
      ],
      "name": "adminRejectMarket",
      "outputs": [],
      "stateMutability": "nonpayable",
      "type": "function"
    },
    {
      "inputs": [
        {
          "internalType": "address",
          "name": "market",
          "type": "address"
        }
      ],
      "name": "approveMarket",
      "outputs": [],
      "stateMutability": "nonpayable",
      "type": "function"
    },
    {
      "inputs": [
        {
          "components": [
            {
              "internalType": "string",
              "name": "question",
              "type": "string"
            },
            {
              "internalType": "string",
              "name": "description",
              "type": "string"
            },
            {
              "internalType": "uint256",
              "name": "resolutionTime",
              "type": "uint256"
            },
            {
              "internalType": "uint256",
              "name": "creatorBond",
              "type": "uint256"
            },
            {
              "internalType": "bytes32",
              "name": "category",
              "type": "bytes32"
            },
            {
              "internalType": "string",
              "name": "outcome1",
              "type": "string"
            },
            {
              "internalType": "string",
              "name": "outcome2",
              "type": "string"
            }
          ],
          "internalType": "struct FlexibleMarketFactoryUnified.MarketConfig",
          "name": "config",
          "type": "tuple"
        }
      ],
      "name": "createMarket",
      "outputs": [
        {
          "internalType": "address",
          "name": "marketAddress",
          "type": "address"
        }
      ],
      "stateMutability": "payable",
      "type": "function"
    },
    {
      "inputs": [
        {
          "components": [
            {
              "internalType": "string",
              "name": "question",
              "type": "string"
            },
            {
              "internalType": "string",
              "name": "description",
              "type": "string"
            },
            {
              "internalType": "uint256",
              "name": "resolutionTime",
              "type": "uint256"
            },
            {
              "internalType": "uint256",
              "name": "creatorBond",
              "type": "uint256"
            },
            {
              "internalType": "bytes32",
              "name": "category",
              "type": "bytes32"
            },
            {
              "internalType": "string",
              "name": "outcome1",
              "type": "string"
            },
            {
              "internalType": "string",
              "name": "outcome2",
              "type": "string"
            }
          ],
          "internalType": "struct FlexibleMarketFactoryUnified.MarketConfig",
          "name": "config",
          "type": "tuple"
        },
        {
          "internalType": "enum FlexibleMarketFactoryUnified.CurveType",
          "name": "curveType",
          "type": "uint8"
        },
        {
          "internalType": "uint256",
          "name": "curveParams",
          "type": "uint256"
        }
      ],
      "name": "createMarketWithCurve",
      "outputs": [
        {
          "internalType": "address",
          "name": "marketAddress",
          "type": "address"
        }
      ],
      "stateMutability": "payable",
      "type": "function"
    },
    {
      "inputs": [
        {
          "internalType": "bytes32",
          "name": "templateId",
          "type": "bytes32"
        },
        {
          "internalType": "string",
          "name": "question",
          "type": "string"
        },
        {
          "components": [
            {
              "internalType": "string",
              "name": "question",
              "type": "string"
            },
            {
              "internalType": "string",
              "name": "description",
              "type": "string"
            },
            {
              "internalType": "uint256",
              "name": "resolutionTime",
              "type": "uint256"
            },
            {
              "internalType": "uint256",
              "name": "creatorBond",
              "type": "uint256"
            },
            {
              "internalType": "bytes32",
              "name": "category",
              "type": "bytes32"
            },
            {
              "internalType": "string",
              "name": "outcome1",
              "type": "string"
            },
            {
              "internalType": "string",
              "name": "outcome2",
              "type": "string"
            }
          ],
          "internalType": "struct FlexibleMarketFactoryUnified.MarketConfig",
          "name": "config",
          "type": "tuple"
        }
      ],
      "name": "createMarketWithTemplate",
      "outputs": [
        {
          "internalType": "address",
          "name": "marketAddress",
          "type": "address"
        }
      ],
      "stateMutability": "payable",
      "type": "function"
    },
    {
      "inputs": [
        {
          "internalType": "address",
          "name": "market",
          "type": "address"
        },
        {
          "internalType": "string",
          "name": "reason",
          "type": "string"
        }
      ],
      "name": "deactivateMarket",
      "outputs": [],
      "stateMutability": "nonpayable",
      "type": "function"
    },
    {
      "inputs": [],
      "name": "defaultCurve",
      "outputs": [
        {
          "internalType": "address",
          "name": "",
          "type": "address"
        }
      ],
      "stateMutability": "view",
      "type": "function"
    },
    {
      "inputs": [],
      "name": "getActiveMarketCount",
      "outputs": [
        {
          "internalType": "uint256",
          "name": "",
          "type": "uint256"
        }
      ],
      "stateMutability": "view",
      "type": "function"
    },
    {
      "inputs": [],
      "name": "getAllMarkets",
      "outputs": [
        {
          "internalType": "address[]",
          "name": "",
          "type": "address[]"
        }
      ],
      "stateMutability": "view",
      "type": "function"
    },
    {
      "inputs": [
        {
          "internalType": "address",
          "name": "market",
          "type": "address"
        }
      ],
      "name": "getApprovalData",
      "outputs": [
        {
          "components": [
            {
              "internalType": "uint256",
              "name": "proposedAt",
              "type": "uint256"
            },
            {
              "internalType": "uint256",
              "name": "likesRequired",
              "type": "uint256"
            },
            {
              "internalType": "uint256",
              "name": "approvalDeadline",
              "type": "uint256"
            },
            {
              "internalType": "bool",
              "name": "approved",
              "type": "bool"
            },
            {
              "internalType": "bool",
              "name": "rejected",
              "type": "bool"
            },
            {
              "internalType": "address",
              "name": "approver",
              "type": "address"
            },
            {
              "internalType": "uint256",
              "name": "approvedAt",
              "type": "uint256"
            }
          ],
          "internalType": "struct FlexibleMarketFactoryUnified.ApprovalData",
          "name": "",
          "type": "tuple"
        }
      ],
      "stateMutability": "view",
      "type": "function"
    },
    {
      "inputs": [
        {
          "internalType": "uint256",
          "name": "index",
          "type": "uint256"
        }
      ],
      "name": "getMarketAt",
      "outputs": [
        {
          "internalType": "address",
          "name": "",
          "type": "address"
        }
      ],
      "stateMutability": "view",
      "type": "function"
    },
    {
      "inputs": [],
      "name": "getMarketCount",
      "outputs": [
        {
          "internalType": "uint256",
          "name": "",
          "type": "uint256"
        }
      ],
      "stateMutability": "view",
      "type": "function"
    },
    {
      "inputs": [
        {
          "internalType": "address",
          "name": "market",
          "type": "address"
        }
      ],
      "name": "getMarketData",
      "outputs": [
        {
          "components": [
            {
              "internalType": "address",
              "name": "creator",
              "type": "address"
            },
            {
              "internalType": "uint256",
              "name": "createdAt",
              "type": "uint256"
            },
            {
              "internalType": "uint256",
              "name": "resolutionTime",
              "type": "uint256"
            },
            {
              "internalType": "bytes32",
              "name": "category",
              "type": "bytes32"
            },
            {
              "internalType": "bool",
              "name": "isActive",
              "type": "bool"
            },
            {
              "internalType": "bool",
              "name": "exists",
              "type": "bool"
            },
            {
              "internalType": "uint256",
              "name": "creatorBond",
              "type": "uint256"
            }
          ],
          "internalType": "struct FlexibleMarketFactoryUnified.MarketData",
          "name": "",
          "type": "tuple"
        }
      ],
      "stateMutability": "view",
      "type": "function"
    },
    {
      "inputs": [
        {
          "internalType": "address",
          "name": "",
          "type": "address"
        }
      ],
      "name": "isMarket",
      "outputs": [
        {
          "internalType": "bool",
          "name": "",
          "type": "bool"
        }
      ],
      "stateMutability": "view",
      "type": "function"
    },
    {
      "inputs": [],
      "name": "minCreatorBond",
      "outputs": [
        {
          "internalType": "uint256",
          "name": "",
          "type": "uint256"
        }
      ],
      "stateMutability": "view",
      "type": "function"
    },
    {
      "inputs": [],
      "name": "paused",
      "outputs": [
        {
          "internalType": "bool",
          "name": "",
          "type": "bool"
        }
      ],
      "stateMutability": "view",
      "type": "function"
    },
    {
      "inputs": [
        {
          "internalType": "address",
          "name": "market",
          "type": "address"
        },
        {
          "internalType": "string",
          "name": "reason",
          "type": "string"
        }
      ],
      "name": "refundCreatorBond",
      "outputs": [],
      "stateMutability": "nonpayable",
      "type": "function"
    },
    {
      "inputs": [],
      "name": "registry",
      "outputs": [
        {
          "internalType": "address",
          "name": "",
          "type": "address"
        }
      ],
      "stateMutability": "view",
      "type": "function"
    },
    {
      "inputs": [
        {
          "internalType": "address",
          "name": "_defaultCurve",
          "type": "address"
        }
      ],
      "name": "setDefaultCurve",
      "outputs": [],
      "stateMutability": "nonpayable",
      "type": "function"
    },
    {
      "inputs": [
        {
          "internalType": "uint256",
          "name": "_minCreatorBond",
          "type": "uint256"
        }
      ],
      "name": "setMinCreatorBond",
      "outputs": [],
      "stateMutability": "nonpayable",
      "type": "function"
    },
    {
      "inputs": [
        {
          "internalType": "bool",
          "name": "_paused",
          "type": "bool"
        }
      ],
      "name": "setPaused",
      "outputs": [],
      "stateMutability": "nonpayable",
      "type": "function"
    },
    {
      "stateMutability": "payable",
      "type": "receive"
    }
  ],
  "bytecode": "0x60a0346100bf57601f6200262338819003918201601f19168301916001600160401b038311848410176100c45780849260409485528339810103126100bf5780516001600160a01b038116918282036100bf5760200151916001600055156100ad5760805260015560ff19600254166002556040516125489081620000db823960805181818161024b0152818161086201528181610fd901528181611428015281816123a2015261243b0152f35b6040516364d73b8f60e11b8152600490fd5b600080fd5b634e487b7160e01b600052604160045260246000fdfe604060a0815260048036101561005d575b361561001b57600080fd5b6020606492519162461bcd60e51b8352820152602060248201527f44697265637420455448207472616e7366657273206e6f7420616c6c6f7765646044820152fd5b600060e08135811c90816316c38b3c14611b0757816319e9ce0414611ada5781633f2b62a0146119e35781634e807177146118ee5781635216448c1461176f5781635c975abb1461174b5781635da3247a1461172c5781636a573bfa146115735781636c9cfe49146112fc5781636ec934da146112be578163727c2f97146110f457816375b238fc146110cb57816379ef4ffe146110085781637b10399914610fc4578163832d325d14610dea57816392c2becc14610dc15781639b74c6e814610d4f578163a30c302d14610c59578163b0772d0b14610b94578163b97eb628146109ba578163bb32891414610772578163d9d56641146106b3578163ef20dbae14610694578163fcd1ee00146101a1575063fd69f3c21461017f5750610010565b823461019d578160031936011261019d576020906003549051908152f35b5080fd5b600319858585606036850112610691578135946001600160401b03861161019d57848636030112610691576024918235908082101561068d576101e2611cfe565b60ff6002541661067f578681016101f881611f62565b606488013534108015610674575b610665578551631c2d8fb360e31b81527f4ace757d4485c6fe0fa3f29f9310e281ee58574c423193d5260007f8511fda73838201526020986001600160a01b039490917f0000000000000000000000000000000000000000000000000000000000000000861691908b818a81865afa90811561065b57908791899161063e575b5016908115610602578b908061052457506102dd918a516102a681611d65565b60098152684c4d5352437572766560b81b83820152905b8a8c518095819482936349bd5ba360e11b8452878d850152830190611ff2565b03915afa90811561051a5790869188916104ed575b50169384156104b457600154803410610498575061030e612400565b6103188580611c82565b9b9061032760a4870188611c82565b9d9061033660c489018a611c82565b939092369061034492611dbc565b9e369061035092611dbc565b91369061035c92611dbc565b9261036690612032565b9889169c8d15610488578d3b1561048457908a95949392918d519c8d968796636eeaa27160e01b88528701528501610100905261010485016103a791611ff2565b828582030160448601526103ba91611ff2565b908382030160648401526103cd91611ff2565b3360848301526044850135968760a484015260c483015260443560e48301520381838c5af1801561047a5790889291610458575b600196506000805160206124b38339815191529161043360846104399301359661042e348989338561209a565b612250565b80611c82565b9061044e895192839233974292349286611cd5565b0390a45551908152f35b91509192936104678196611d52565b61047657849392918791610401565b8480fd5b87513d87823e3d90fd5b8a80fd5b8c516342bcb05b60e11b81528590fd5b60449250888a5192631f99260560e21b84523490840152820152fd5b885162461bcd60e51b81529081018b90526014818901527310dd5c9d99481b9bdd081c9959da5cdd195c995960621b6044820152606490fd5b61050d91508c8d3d10610513575b6105058183611d80565b810190611fd3565b8c6102f2565b503d6104fb565b89513d89823e3d90fd5b6001810361055957506102dd918a5161053c81611d65565b600b81526a4c696e656172437572766560a81b83820152906102bd565b6002810361059357506102dd918a5161057181611d65565b601081526f4578706f6e656e7469616c437572766560801b83820152906102bd565b6003141590506105cb578a6102dd918a516105ad81611d65565b600c81526b5369676d6f6964437572766560a01b83820152906102bd565b885162461bcd60e51b81528086018c90526012818a015271556e6b6e6f776e206375727665207479706560701b6044820152606490fd5b895162461bcd60e51b81528087018d90526017818b01527610dd5c9d99549959da5cdd1c9e481b9bdd08199bdd5b99604a1b6044820152606490fd5b61065591508d803d10610513576105058183611d80565b8d610286565b8a513d8a823e3d90fd5b50845163e92c469f60e01b8152fd5b506001543410610206565b845163ab35696f60e01b8152fd5b8280fd5b80fd5b82853461019d578160031936011261019d576020906001549051908152f35b5050913461068d57602036600319011261068d57604460206001600160a01b036106db61235e565b16835192838092632474521560e21b82526000805160206124d3833981519152888301523360248301525afa90811561076857849161073a575b501561072357503560015580f35b602492505190633733be5960e21b82523390820152fd5b61075b915060203d8111610761575b6107538183611d80565b810190611df3565b38610715565b503d610749565b82513d86823e3d90fd5b8491508360031991602083360112610476578135906001600160401b03821161096d57838236030112610476576107a7611cfe565b60ff600254166109ab57808201906107be82611f62565b6064810135341080156109a0575b61099057856107db8380611c82565b6107eb60a4859493940186611c82565b6107fb60c4879993990188611c82565b9061080c610807612400565b612032565b600254909b6001600160a01b039b8c958e95929360081c87168015610987579d8e5b161561097f578668056bc75e2d63100000965b166080526080513b1561097b578f519a8b998a99636eeaa27160e01b8b52897f000000000000000000000000000000000000000000000000000000000000000016908b015260248a0161010090526101048a019061089e92611cb4565b90848983030160448a01526108b292611cb4565b918683030160648701526108c592611cb4565b913360848501526044880135998a60a48601521660c484015268ffffffffffffffffff1660e48301520381836080515af1801561097157610959575b50602095926000805160206124b383398151915261093560019694610433608461094d9601359661042e348988338561209a565b88949194519182913396608051964292349286611cd5565b0390a455516080518152f35b6109638791611d52565b61096d5786610901565b8580fd5b86513d89823e3d90fd5b8980fd5b868a96610841565b50899d8e61082e565b845163e92c469f60e01b81528390fd5b5060015434106107cc565b50825163ab35696f60e01b8152fd5b8285853461068d576109cb36611c3f565b919390916001600160a01b03806109e061235e565b1690835196632474521560e21b88526000805160206124d38339815191528789015287602493338583015281604460209b8c935afa908115610b8a578a91610b6d575b5015610b585716948588526007875260ff848920541615610b4457610a46611cfe565b85885260058752600384892001805460ff8116610b2e5760ff8160081c16610b185761ff001916610100179055879190863b1561068d57878391610aa08751948593849363201c5cc160e01b85528401528201878a611cb4565b0381838a5af18015610b0e57610afa575b50507f953e9def8ce23aa6057164325b1857ff97582082004e669f614b97c66c9f450292610ae791835193808552840191611cb4565b9342908201528033940390a36001815580f35b610b0390611d52565b61096d578587610ab1565b84513d84823e3d90fd5b5050835163266046ed60e21b8152908101869052fd5b5050835163331b885560e01b8152908101869052fd5b8351636918f9bf60e01b8152908101869052fd5b8451633733be5960e21b815233818901528390fd5b610b849150893d8b11610761576107538183611d80565b8a610a23565b86513d8c823e3d90fd5b8483346106915780600319360112610691578151600380548083529083526020939284830192909183907fc2575a0e9e593c00f959f8c92f12db2869c3395a3b0502d05e2516446f71f85b90845b818110610c3c5750505081610bf8910382611d80565b83519485948186019282875251809352850193925b828110610c1c57505050500390f35b83516001600160a01b031685528695509381019392810192600101610c0d565b82546001600160a01b031684529288019260019283019201610be2565b9390503461019d57602036600319011261019d57610c75611bf7565b91610c7e611f2a565b506001600160a01b0392831680825260076020528282205460ff1615610d395790829181528460205220815192610cb484611d21565b81541693848452600182015492602085019384526002830154818601908152600384015492606087019384528401549460c06005608089019660ff89161515885260ff60a08b019960081c16151589520154970196875282519788525160208801525190860152516060850152511515608084015251151560a08301525160c0820152f35b84602491845191636918f9bf60e01b8352820152fd5b8285853461068d57602036600319011261068d57803592600354841015610dad5760036000527fc2575a0e9e593c00f959f8c92f12db2869c3395a3b0502d05e2516446f71f85b84015483516001600160a01b039091168152602090f35b6024925191636918f9bf60e01b8352820152fd5b82853461019d578160031936011261019d57602090516000805160206124938339815191528152f35b8285853461068d5760209182600319360112610f2957610e08611bf7565b916001600160a01b0380610e1a61235e565b16938351632474521560e21b8152600080516020612493833981519152848201528681604481602499338b8301525afa908115610fba578891610f9d575b5015610f875716928386526007855260ff838720541615610f7357610e7b611cfe565b8386526005855282862090600382019081549060ff8216610f5f5760ff8260081c16610f4b5760028401544211610f37575060ff1916600117815586929190610ec5903390611e0b565b8142910155833b1561019d5781835180926312424e3f60e01b82528183885af18015610f2d57610f15575b50906000805160206124f3833981519152918151944286528501523393a36001815580f35b610f1e90611d52565b610f29578385610ef0565b8380fd5b83513d84823e3d90fd5b8551633ac1573760e11b8152808601889052fd5b855163266046ed60e21b8152808601889052fd5b855163331b885560e01b8152808601889052fd5b9290915191636918f9bf60e01b8352820152fd5b5050905190633733be5960e21b82523390820152fd5b610fb49150873d8911610761576107538183611d80565b88610e58565b85513d8a823e3d90fd5b82853461019d578160031936011261019d57517f00000000000000000000000000000000000000000000000000000000000000006001600160a01b03168152602090f35b8285853461068d57602036600319011261068d57611024611bf7565b91604460206001600160a01b0361103961235e565b16835192838092632474521560e21b82526000805160206124d3833981519152888301523360248301525afa9081156110c15785916110a3575b501561072357505060028054610100600160a81b03191660089290921b610100600160a81b031691909117905580f35b6110bb915060203d8111610761576107538183611d80565b85611073565b82513d87823e3d90fd5b82853461019d578160031936011261019d57602090516000805160206124d38339815191528152f35b5050913461068d5761110536611c3f565b6001600160a01b0391908261111861235e565b169385518095632474521560e21b82526000805160206124d38339815191528983015233602483015281604460209889935afa9081156112b4578991611297575b5015611281578316948588526007855260ff81892054161561126b5761117d611cfe565b85885286855280882096600886528189205494851561125c5760058a918a5416998983526008895282858120550155600a5485810390811161124957600a5588808080888c5af13d15611244573d6111d481611da1565b906111e185519283611d80565b81528a883d92013e5b1561123657509161122c9183807fdc49e2e1b6e1eacc90520a61b21188e34ad81839290c26fcbc77d29078a2f162979695519687968752860152840191611cb4565b0390a36001815580f35b90516364d73b8f60e11b8152fd5b6111ea565b634e487b7160e01b8a526011825260248afd5b50905163db66f3fb60e01b8152fd5b51636918f9bf60e01b8152808701869052602490fd5b8551633733be5960e21b81523381890152602490fd5b6112ae9150863d8811610761576107538183611d80565b38611159565b87513d8b823e3d90fd5b82853461019d57602036600319011261019d5760209160ff9082906001600160a01b036112e9611bf7565b1681526007855220541690519015158152f35b8385849260031990606082360112610476578335936001600160401b03906024358281116114ff576113319036908301611c12565b92909160443591821161156f578181019486833603011261156f57611354611cfe565b60ff600254166115615761136785611f62565b606482013534108015611556575b61154857611381612400565b976001600160a01b0390818a16156115385780156115225750883b1561151357906113cf916113e56113f36113ed6044870135996113c260a4890182611c82565b97909160c48a0190611c82565b9490916113dd368d8d611dbc565b983691611dbc565b933691611dbc565b9b612032565b98828a169b8c1561150357908d949392918d3b1561096d5761146f61147e9361145f8f51998a988998636eeaa27160e01b8a527f000000000000000000000000000000000000000000000000000000000000000016908901526101006024890152610104880190611ff2565b9084878303016044880152611ff2565b91848303016064850152611ff2565b3360848301528860a48301528360c48301528360e48301520381838c5af180156112b4576114eb575b506000805160206124b38339815191526001959360209995936114d760848b9501359661042e348989338561209a565b61044e895192839233974292349286611cd5565b6114f58991611d52565b6114ff57886114a7565b8780fd5b8b516342bcb05b60e11b81528590fd5b508651633a8e6d6760e21b8152fd5b826024918a5191633b9af98d60e21b8352820152fd5b8851633a8e6d6760e21b81528390fd5b865163e92c469f60e01b8152fd5b506001543410611375565b865163ab35696f60e01b8152fd5b8880fd5b8285853461068d5760209182600319360112610f2957611591611bf7565b6001600160a01b0390604485836115a661235e565b16855192838092632474521560e21b82526000805160206124d38339815191528a8301523360248301525afa908115611722578791611705575b50156116ef5716918285526007845260ff8286205416156116da57611603611cfe565b8285526005845281852060038101805460ff81166116c35760ff8160081c166116ac5760ff1916600117815561163a903390611e0b565b8142910155823b156104765784825180926312424e3f60e01b82528183875af180156110c15761168b575b508060016000805160206124f38339815191529251944286528501523393a36001815580f35b936116a56000805160206124f38339815191529295611d52565b9390611665565b845163266046ed60e21b8152808501879052602490fd5b845163331b885560e01b8152808501879052602490fd5b826024925191636918f9bf60e01b8352820152fd5b8251633733be5960e21b81523381860152602490fd5b61171c9150863d8811610761576107538183611d80565b876115e0565b84513d89823e3d90fd5b82853461019d578160031936011261019d576020906009549051908152f35b82853461019d578160031936011261019d5760209060ff6002541690519015158152f35b5050823461019d5761178036611c3f565b909290916001600160a01b038061179561235e565b169183518093632474521560e21b82526000805160206124d38339815191528a83015233602483015281604460209687935afa908115610fba5788916118d1575b50156118bb5716938486526007825260ff8387205416156118a4578486528682528683872001805460ff811661184d575b50509061184183927fa2b5ae3956bbe4ba66999f9e93b5d0ff9eeb5251bfda4dc905af2a348cf7e0ec959451948486958652850191611cb4565b9042908301520390a280f35b60ff191690556009548015611891576000190160095594955085946118417fa2b5ae3956bbe4ba66999f9e93b5d0ff9eeb5251bfda4dc905af2a348cf7e0ec611807565b634e487b7160e01b875260118852602487fd5b8251636918f9bf60e01b8152808801869052602490fd5b8351633733be5960e21b815233818a0152602490fd5b6118e89150843d8611610761576107538183611d80565b896117d6565b8285853461068d57602036600319011261068d5761190a611bf7565b916001600160a01b03604460208261192061235e565b16845192838092632474521560e21b8252600080516020612493833981519152898301523360248301525afa9081156119d95786916119bb575b50156119a557831690818552600760205260ff818620541615611990578461198985611984611cfe565b611e32565b6001815580f35b51636918f9bf60e01b81529182015260249150fd5b8151633733be5960e21b81523381850152602490fd5b6119d3915060203d8111610761576107538183611d80565b8661195a565b83513d88823e3d90fd5b83858434610691576020366003190112610691576119ff611bf7565b90611a08611f2a565b506001600160a01b0391821680825260076020528382205460ff1615611ac4578152600560205282902082519290611a3f84611d21565b80549485855260018201549260208601938452600283015481870190815260038401549460c0606089019460ff88161515865260808a019660ff8960081c16151588528960a08c019960101c168952015498019788528251988952516020890152519087015251151560608601525115156080850152511660a08301525160c0820152f35b84602491855191636918f9bf60e01b8352820152fd5b82853461019d578160031936011261019d57600254905160089190911c6001600160a01b03168152602090f35b5050913461068d57602036600319011261068d57813591821515809303610f2957604460206001600160a01b03611b3c61235e565b16845192838092632474521560e21b82526000805160206124d3833981519152878301523360248301525afa908115611bed578591611bcf575b5015611bb957507ffce805cba192a0e94e99b9309e2e9e2d36cd03bdc97ff6fe47fa5c2ea374d0589160209160ff196002541660ff83161760025551908152a180f35b6024915190633733be5960e21b82523390820152fd5b611be7915060203d8111610761576107538183611d80565b38611b76565b83513d87823e3d90fd5b600435906001600160a01b0382168203611c0d57565b600080fd5b9181601f84011215611c0d578235916001600160401b038311611c0d5760208381860195010111611c0d57565b906040600319830112611c0d576004356001600160a01b0381168103611c0d5791602435906001600160401b038211611c0d57611c7e91600401611c12565b9091565b903590601e1981360301821215611c0d57018035906001600160401b038211611c0d57602001918136038313611c0d57565b908060209392818452848401376000828201840152601f01601f1916010190565b9160609396959491611cef91608085526080850191611cb4565b95602083015260408201520152565b600260005414611d0f576002600055565b604051633ee5aeb560e01b8152600490fd5b60e081019081106001600160401b03821117611d3c57604052565b634e487b7160e01b600052604160045260246000fd5b6001600160401b038111611d3c57604052565b604081019081106001600160401b03821117611d3c57604052565b90601f801991011681019081106001600160401b03821117611d3c57604052565b6001600160401b038111611d3c57601f01601f191660200190565b929192611dc882611da1565b91611dd66040519384611d80565b829481845281830111611c0d578281602093846000960137010152565b90816020910312611c0d57518015158103611c0d5790565b805462010000600160b01b03191660109290921b62010000600160b01b0316919091179055565b60018060a01b031660008181526004602052604090818120600560205260ff600384842001541615611f1257600401805460ff8116611f0b5760ff191660011790556009546000198114611ef757600101600955823b15610691578151623c57d360e61b815290808260048183885af1908115611eec5750916020917f58a8b7fba1050fb318f768a3c190f08d007439609907800ff8d7b97763556ab793611edd575b5051428152a2565b611ee690611d52565b38611ed5565b8351903d90823e3d90fd5b634e487b7160e01b82526011600452602482fd5b5050505050565b8251632b82392760e01b815260048101859052602490fd5b60405190611f3782611d21565b8160c06000918281528260208201528260408201528260608201528260808201528260a08201520152565b611f6c8180611c82565b905015611fc1576101f4611f808280611c82565b905011611fc1574260408201351115611fb0576080013515611f9e57565b604051636b3ac97b60e11b8152600490fd5b6040516282a4d560e51b8152600490fd5b60405163103c380960e31b8152600490fd5b90816020910312611c0d57516001600160a01b0381168103611c0d5790565b919082519283825260005b84811061201e575050826000602080949584010152601f8019910116010190565b602081830181015184830182015201611ffd565b6e5af43d82803e903d91602b57fd5bf390763d602d80600a3d3981f3363d3d373d3d3d363d7300000062ffffff8260881c161760005260781b17602052603760096000f0906001600160a01b0382161561208857565b60405163b06ebf3d60e01b8152600490fd5b6040918251916120a983611d21565b600160a01b60019003809216808452602093888582019342855287830198895260608301998a52608083019060009a8b9a8b84528860a08701936001855260c088019687521698898d528b60049d8e8d522096511697600160a01b600190031998898854161787555160018701555160028601555160038501558984019151151561214090839060ff801983541691151516179055565b51815461ff00191690151560081b61ff001617905551600590910155600354600160401b91908281101561223d57600181018060035581101561222a576003895285892001805484168517905583885260078552858820805460ff191660011790558752600684528487208054918210156122175760018201808255821015612204578752838720018054909116821790558452600890528220839055600a549283019283106121f1575050600a55565b634e487b7160e01b825260119052602490fd5b634e487b7160e01b885260328752602488fd5b634e487b7160e01b885260418752602488fd5b634e487b7160e01b895260328852602489fd5b634e487b7160e01b895260418852602489fd5b620151804201908142116123485760405161226a81611d21565b428152600460208201600a8152612309604084019486865260608501906000968783526123016080880189815260a08901928a845260c08a01978b8952604060018060a01b038097169c8d81526005602052209a518b555160018b01555160028a01556122ea60038a0195511515869060ff801983541691151516179055565b51845461ff00191690151560081b61ff0016178455565b511690611e0b565b5191015560405191428352600a602084015260408301527fee42fe8c1a21422c70799eafe0ce7c6f7a5b4da3b04916abfa890eed8eeb007b60603393a3565b634e487b7160e01b600052601160045260246000fd5b604051631c2d8fb360e31b81527f32fde5f4784e5f5dafa770ea215049399b708449187d09b883be1bd6a8df5a2060048201526001600160a01b03906020816024817f000000000000000000000000000000000000000000000000000000000000000086165afa9081156123f4576000916123d857501690565b6123f0915060203d8111610513576105058183611d80565b1690565b6040513d6000823e3d90fd5b604051631c2d8fb360e31b81527f9fd10f678426d62cb3a9606a7cfddf160945b8141a68b451b7a17f9f906f859960048201526020816024817f00000000000000000000000000000000000000000000000000000000000000006001600160a01b03165afa9081156123f457600091612477575090565b61248f915060203d8111610513576105058183611d80565b9056fe25cf2b509f2a7f322675b2a5322b182f44ad2c03ac941a0af17c9b178f5d5d5f736d494b39e46a0799e9290d8770f02d2f9805ac3e273a61af3c7ab72aeec428a49807205ce4d355092ef5a8a18f56e8913cf4a201fbe287825b095693c21775b3453619f80bc864e5c058d40f4e49959554470caaf4e7cedac26605e4f93f22a264697066735822122066179585da434987d84ab2b644b1d6001944d5d2e222799651cae8074700b0b564736f6c63430008140033",
  "linkReferences": {},
  "deployedLinkReferences": {}
}