{
  "_format": "hh-sol-artifact-1",
  "contractName": "PredictionMarket",
  "sourceName": "contracts/core/PredictionMarket.sol",
  "abi": [
    {
      "inputs": [],
      "stateMutability": "nonpayable",
      "type": "constructor"
    },
    {
      "inputs": [],
      "name": "AlreadyClaimed",
      "type": "error"
    },
    {
      "inputs": [],
      "name": "BetTooLarge",
      "type": "error"
    },
    {
      "inputs": [],
      "name": "BetTooSmall",
      "type": "error"
    },
    {
      "inputs": [],
      "name": "BettingClosed",
      "type": "error"
    },
    {
      "inputs": [],
      "name": "CannotChangeBet",
      "type": "error"
    },
    {
      "inputs": [],
      "name": "InsufficientLiquidity",
      "type": "error"
    },
    {
      "inputs": [],
      "name": "InsufficientShares",
      "type": "error"
    },
    {
      "inputs": [],
      "name": "InvalidBetAmount",
      "type": "error"
    },
    {
      "inputs": [],
      "name": "InvalidCurve",
      "type": "error"
    },
    {
      "inputs": [
        {
          "internalType": "string",
          "name": "reason",
          "type": "string"
        }
      ],
      "name": "InvalidCurveParams",
      "type": "error"
    },
    {
      "inputs": [],
      "name": "InvalidInitialization",
      "type": "error"
    },
    {
      "inputs": [],
      "name": "InvalidOutcome",
      "type": "error"
    },
    {
      "inputs": [],
      "name": "InvalidRegistry",
      "type": "error"
    },
    {
      "inputs": [],
      "name": "InvalidResolutionTime",
      "type": "error"
    },
    {
      "inputs": [
        {
          "internalType": "enum IPredictionMarket.MarketState",
          "name": "current",
          "type": "uint8"
        },
        {
          "internalType": "enum IPredictionMarket.MarketState",
          "name": "requested",
          "type": "uint8"
        }
      ],
      "name": "InvalidStateTransition",
      "type": "error"
    },
    {
      "inputs": [],
      "name": "MarketAlreadyResolved",
      "type": "error"
    },
    {
      "inputs": [],
      "name": "MarketNotActive",
      "type": "error"
    },
    {
      "inputs": [],
      "name": "MarketNotCancelled",
      "type": "error"
    },
    {
      "inputs": [],
      "name": "MarketNotEnded",
      "type": "error"
    },
    {
      "inputs": [],
      "name": "MarketNotResolved",
      "type": "error"
    },
    {
      "inputs": [],
      "name": "NoBetFound",
      "type": "error"
    },
    {
      "inputs": [],
      "name": "NotAWinner",
      "type": "error"
    },
    {
      "inputs": [],
      "name": "NotInitializing",
      "type": "error"
    },
    {
      "inputs": [],
      "name": "OnlyFactory",
      "type": "error"
    },
    {
      "inputs": [],
      "name": "ReentrancyGuardReentrantCall",
      "type": "error"
    },
    {
      "inputs": [],
      "name": "ResolutionTimeNotReached",
      "type": "error"
    },
    {
      "inputs": [],
      "name": "SlippageTooHigh",
      "type": "error"
    },
    {
      "inputs": [],
      "name": "TransferFailed",
      "type": "error"
    },
    {
      "inputs": [],
      "name": "UnauthorizedResolver",
      "type": "error"
    },
    {
      "anonymous": false,
      "inputs": [
        {
          "indexed": true,
          "internalType": "address",
          "name": "bettor",
          "type": "address"
        },
        {
          "indexed": true,
          "internalType": "enum IPredictionMarket.Outcome",
          "name": "outcome",
          "type": "uint8"
        },
        {
          "indexed": false,
          "internalType": "uint256",
          "name": "amount",
          "type": "uint256"
        },
        {
          "indexed": false,
          "internalType": "uint256",
          "name": "shares",
          "type": "uint256"
        },
        {
          "indexed": false,
          "internalType": "uint256",
          "name": "timestamp",
          "type": "uint256"
        }
      ],
      "name": "BetPlaced",
      "type": "event"
    },
    {
      "anonymous": false,
      "inputs": [
        {
          "indexed": false,
          "internalType": "uint64",
          "name": "version",
          "type": "uint64"
        }
      ],
      "name": "Initialized",
      "type": "event"
    },
    {
      "anonymous": false,
      "inputs": [
        {
          "indexed": false,
          "internalType": "uint256",
          "name": "pool1",
          "type": "uint256"
        },
        {
          "indexed": false,
          "internalType": "uint256",
          "name": "pool2",
          "type": "uint256"
        },
        {
          "indexed": false,
          "internalType": "uint256",
          "name": "timestamp",
          "type": "uint256"
        }
      ],
      "name": "LiquidityUpdated",
      "type": "event"
    },
    {
      "anonymous": false,
      "inputs": [
        {
          "indexed": false,
          "internalType": "uint256",
          "name": "timestamp",
          "type": "uint256"
        }
      ],
      "name": "MarketActivated",
      "type": "event"
    },
    {
      "anonymous": false,
      "inputs": [
        {
          "indexed": false,
          "internalType": "uint256",
          "name": "timestamp",
          "type": "uint256"
        }
      ],
      "name": "MarketApproved",
      "type": "event"
    },
    {
      "anonymous": false,
      "inputs": [
        {
          "indexed": true,
          "internalType": "address",
          "name": "disputer",
          "type": "address"
        },
        {
          "indexed": false,
          "internalType": "string",
          "name": "reason",
          "type": "string"
        }
      ],
      "name": "MarketDisputed",
      "type": "event"
    },
    {
      "anonymous": false,
      "inputs": [
        {
          "indexed": true,
          "internalType": "enum IPredictionMarket.Outcome",
          "name": "finalOutcome",
          "type": "uint8"
        },
        {
          "indexed": false,
          "internalType": "uint256",
          "name": "timestamp",
          "type": "uint256"
        }
      ],
      "name": "MarketFinalized",
      "type": "event"
    },
    {
      "anonymous": false,
      "inputs": [
        {
          "indexed": false,
          "internalType": "string",
          "name": "reason",
          "type": "string"
        }
      ],
      "name": "MarketRejected",
      "type": "event"
    },
    {
      "anonymous": false,
      "inputs": [
        {
          "indexed": true,
          "internalType": "enum IPredictionMarket.Outcome",
          "name": "result",
          "type": "uint8"
        },
        {
          "indexed": true,
          "internalType": "address",
          "name": "resolver",
          "type": "address"
        },
        {
          "indexed": false,
          "internalType": "uint256",
          "name": "timestamp",
          "type": "uint256"
        }
      ],
      "name": "MarketResolved",
      "type": "event"
    },
    {
      "anonymous": false,
      "inputs": [
        {
          "indexed": true,
          "internalType": "enum IPredictionMarket.MarketState",
          "name": "newState",
          "type": "uint8"
        },
        {
          "indexed": false,
          "internalType": "uint256",
          "name": "timestamp",
          "type": "uint256"
        }
      ],
      "name": "MarketStateChanged",
      "type": "event"
    },
    {
      "anonymous": false,
      "inputs": [
        {
          "indexed": true,
          "internalType": "enum IPredictionMarket.Outcome",
          "name": "outcome",
          "type": "uint8"
        },
        {
          "indexed": true,
          "internalType": "address",
          "name": "proposer",
          "type": "address"
        }
      ],
      "name": "ResolutionProposed",
      "type": "event"
    },
    {
      "anonymous": false,
      "inputs": [
        {
          "indexed": false,
          "internalType": "uint256",
          "name": "yesShares",
          "type": "uint256"
        },
        {
          "indexed": false,
          "internalType": "uint256",
          "name": "noShares",
          "type": "uint256"
        },
        {
          "indexed": false,
          "internalType": "uint256",
          "name": "timestamp",
          "type": "uint256"
        }
      ],
      "name": "SharesUpdated",
      "type": "event"
    },
    {
      "anonymous": false,
      "inputs": [
        {
          "indexed": true,
          "internalType": "address",
          "name": "bettor",
          "type": "address"
        },
        {
          "indexed": false,
          "internalType": "uint256",
          "name": "amount",
          "type": "uint256"
        },
        {
          "indexed": false,
          "internalType": "uint256",
          "name": "timestamp",
          "type": "uint256"
        }
      ],
      "name": "WinningsClaimed",
      "type": "event"
    },
    {
      "inputs": [],
      "name": "activate",
      "outputs": [],
      "stateMutability": "nonpayable",
      "type": "function"
    },
    {
      "inputs": [],
      "name": "activatedAt",
      "outputs": [
        {
          "internalType": "uint256",
          "name": "",
          "type": "uint256"
        }
      ],
      "stateMutability": "view",
      "type": "function"
    },
    {
      "inputs": [],
      "name": "approve",
      "outputs": [],
      "stateMutability": "nonpayable",
      "type": "function"
    },
    {
      "inputs": [
        {
          "internalType": "address",
          "name": "bettor",
          "type": "address"
        }
      ],
      "name": "calculatePayout",
      "outputs": [
        {
          "internalType": "uint256",
          "name": "",
          "type": "uint256"
        }
      ],
      "stateMutability": "view",
      "type": "function"
    },
    {
      "inputs": [],
      "name": "canResolve",
      "outputs": [
        {
          "internalType": "bool",
          "name": "",
          "type": "bool"
        }
      ],
      "stateMutability": "view",
      "type": "function"
    },
    {
      "inputs": [],
      "name": "cancelMarket",
      "outputs": [],
      "stateMutability": "nonpayable",
      "type": "function"
    },
    {
      "inputs": [],
      "name": "claimRefund",
      "outputs": [],
      "stateMutability": "nonpayable",
      "type": "function"
    },
    {
      "inputs": [],
      "name": "claimWinnings",
      "outputs": [],
      "stateMutability": "nonpayable",
      "type": "function"
    },
    {
      "inputs": [],
      "name": "creator",
      "outputs": [
        {
          "internalType": "address",
          "name": "",
          "type": "address"
        }
      ],
      "stateMutability": "view",
      "type": "function"
    },
    {
      "inputs": [],
      "name": "currentState",
      "outputs": [
        {
          "internalType": "enum IPredictionMarket.MarketState",
          "name": "",
          "type": "uint8"
        }
      ],
      "stateMutability": "view",
      "type": "function"
    },
    {
      "inputs": [
        {
          "internalType": "string",
          "name": "reason",
          "type": "string"
        }
      ],
      "name": "dispute",
      "outputs": [],
      "stateMutability": "nonpayable",
      "type": "function"
    },
    {
      "inputs": [
        {
          "internalType": "uint256",
          "name": "shares",
          "type": "uint256"
        },
        {
          "internalType": "uint8",
          "name": "outcome",
          "type": "uint8"
        }
      ],
      "name": "estimateCost",
      "outputs": [
        {
          "internalType": "uint256",
          "name": "cost",
          "type": "uint256"
        }
      ],
      "stateMutability": "view",
      "type": "function"
    },
    {
      "inputs": [
        {
          "internalType": "uint256",
          "name": "ethAmount",
          "type": "uint256"
        },
        {
          "internalType": "uint8",
          "name": "outcome",
          "type": "uint8"
        }
      ],
      "name": "estimateShares",
      "outputs": [
        {
          "internalType": "uint256",
          "name": "shares",
          "type": "uint256"
        }
      ],
      "stateMutability": "view",
      "type": "function"
    },
    {
      "inputs": [],
      "name": "factory",
      "outputs": [
        {
          "internalType": "address",
          "name": "",
          "type": "address"
        }
      ],
      "stateMutability": "view",
      "type": "function"
    },
    {
      "inputs": [
        {
          "internalType": "enum IPredictionMarket.Outcome",
          "name": "outcome",
          "type": "uint8"
        }
      ],
      "name": "finalize",
      "outputs": [],
      "stateMutability": "nonpayable",
      "type": "function"
    },
    {
      "inputs": [],
      "name": "finalizedAt",
      "outputs": [
        {
          "internalType": "uint256",
          "name": "",
          "type": "uint256"
        }
      ],
      "stateMutability": "view",
      "type": "function"
    },
    {
      "inputs": [
        {
          "internalType": "address",
          "name": "bettor",
          "type": "address"
        }
      ],
      "name": "getBetInfo",
      "outputs": [
        {
          "components": [
            {
              "internalType": "enum IPredictionMarket.Outcome",
              "name": "outcome",
              "type": "uint8"
            },
            {
              "internalType": "uint256",
              "name": "amount",
              "type": "uint256"
            },
            {
              "internalType": "uint256",
              "name": "shares",
              "type": "uint256"
            },
            {
              "internalType": "uint256",
              "name": "timestamp",
              "type": "uint256"
            },
            {
              "internalType": "bool",
              "name": "claimed",
              "type": "bool"
            },
            {
              "internalType": "uint256",
              "name": "payout",
              "type": "uint256"
            }
          ],
          "internalType": "struct IPredictionMarket.BetInfo",
          "name": "",
          "type": "tuple"
        }
      ],
      "stateMutability": "view",
      "type": "function"
    },
    {
      "inputs": [],
      "name": "getCurveInfo",
      "outputs": [
        {
          "internalType": "address",
          "name": "curve",
          "type": "address"
        },
        {
          "internalType": "uint256",
          "name": "params",
          "type": "uint256"
        },
        {
          "internalType": "string",
          "name": "name",
          "type": "string"
        }
      ],
      "stateMutability": "view",
      "type": "function"
    },
    {
      "inputs": [],
      "name": "getLiquidity",
      "outputs": [
        {
          "internalType": "uint256",
          "name": "pool1",
          "type": "uint256"
        },
        {
          "internalType": "uint256",
          "name": "pool2",
          "type": "uint256"
        }
      ],
      "stateMutability": "view",
      "type": "function"
    },
    {
      "inputs": [],
      "name": "getMarketInfo",
      "outputs": [
        {
          "components": [
            {
              "internalType": "string",
              "name": "question",
              "type": "string"
            },
            {
              "internalType": "string",
              "name": "outcome1Name",
              "type": "string"
            },
            {
              "internalType": "string",
              "name": "outcome2Name",
              "type": "string"
            },
            {
              "internalType": "address",
              "name": "creator",
              "type": "address"
            },
            {
              "internalType": "uint256",
              "name": "createdAt",
              "type": "uint256"
            },
            {
              "internalType": "uint256",
              "name": "resolutionTime",
              "type": "uint256"
            },
            {
              "internalType": "enum IPredictionMarket.Outcome",
              "name": "result",
              "type": "uint8"
            },
            {
              "internalType": "uint256",
              "name": "totalBets",
              "type": "uint256"
            },
            {
              "internalType": "uint256",
              "name": "totalVolume",
              "type": "uint256"
            },
            {
              "internalType": "bool",
              "name": "isResolved",
              "type": "bool"
            }
          ],
          "internalType": "struct IPredictionMarket.MarketInfo",
          "name": "",
          "type": "tuple"
        }
      ],
      "stateMutability": "view",
      "type": "function"
    },
    {
      "inputs": [],
      "name": "getMarketState",
      "outputs": [
        {
          "internalType": "enum IPredictionMarket.MarketState",
          "name": "",
          "type": "uint8"
        }
      ],
      "stateMutability": "view",
      "type": "function"
    },
    {
      "inputs": [],
      "name": "getOdds",
      "outputs": [
        {
          "internalType": "uint256",
          "name": "odds1",
          "type": "uint256"
        },
        {
          "internalType": "uint256",
          "name": "odds2",
          "type": "uint256"
        }
      ],
      "stateMutability": "view",
      "type": "function"
    },
    {
      "inputs": [],
      "name": "getShares",
      "outputs": [
        {
          "internalType": "uint256",
          "name": "yesShares",
          "type": "uint256"
        },
        {
          "internalType": "uint256",
          "name": "noShares",
          "type": "uint256"
        }
      ],
      "stateMutability": "view",
      "type": "function"
    },
    {
      "inputs": [
        {
          "internalType": "address",
          "name": "bettor",
          "type": "address"
        }
      ],
      "name": "hasWinnings",
      "outputs": [
        {
          "internalType": "bool",
          "name": "",
          "type": "bool"
        }
      ],
      "stateMutability": "view",
      "type": "function"
    },
    {
      "inputs": [
        {
          "internalType": "address",
          "name": "_registry",
          "type": "address"
        },
        {
          "internalType": "string",
          "name": "_questionText",
          "type": "string"
        },
        {
          "internalType": "string",
          "name": "_outcome1",
          "type": "string"
        },
        {
          "internalType": "string",
          "name": "_outcome2",
          "type": "string"
        },
        {
          "internalType": "address",
          "name": "_creator",
          "type": "address"
        },
        {
          "internalType": "uint256",
          "name": "_resolutionTime",
          "type": "uint256"
        },
        {
          "internalType": "address",
          "name": "bondingCurve",
          "type": "address"
        },
        {
          "internalType": "uint256",
          "name": "curveParams",
          "type": "uint256"
        }
      ],
      "name": "initialize",
      "outputs": [],
      "stateMutability": "nonpayable",
      "type": "function"
    },
    {
      "inputs": [],
      "name": "isResolved",
      "outputs": [
        {
          "internalType": "bool",
          "name": "",
          "type": "bool"
        }
      ],
      "stateMutability": "view",
      "type": "function"
    },
    {
      "inputs": [
        {
          "internalType": "uint8",
          "name": "_outcome",
          "type": "uint8"
        },
        {
          "internalType": "uint256",
          "name": "_minExpectedOdds",
          "type": "uint256"
        }
      ],
      "name": "placeBet",
      "outputs": [],
      "stateMutability": "payable",
      "type": "function"
    },
    {
      "inputs": [
        {
          "internalType": "enum IPredictionMarket.Outcome",
          "name": "outcome",
          "type": "uint8"
        }
      ],
      "name": "proposeOutcome",
      "outputs": [],
      "stateMutability": "nonpayable",
      "type": "function"
    },
    {
      "inputs": [],
      "name": "registry",
      "outputs": [
        {
          "internalType": "address",
          "name": "",
          "type": "address"
        }
      ],
      "stateMutability": "view",
      "type": "function"
    },
    {
      "inputs": [
        {
          "internalType": "string",
          "name": "reason",
          "type": "string"
        }
      ],
      "name": "reject",
      "outputs": [],
      "stateMutability": "nonpayable",
      "type": "function"
    },
    {
      "inputs": [],
      "name": "resolutionTime",
      "outputs": [
        {
          "internalType": "uint256",
          "name": "",
          "type": "uint256"
        }
      ],
      "stateMutability": "view",
      "type": "function"
    },
    {
      "inputs": [
        {
          "internalType": "enum IPredictionMarket.Outcome",
          "name": "_result",
          "type": "uint8"
        }
      ],
      "name": "resolveMarket",
      "outputs": [],
      "stateMutability": "nonpayable",
      "type": "function"
    },
    {
      "inputs": [],
      "name": "resolver",
      "outputs": [
        {
          "internalType": "address",
          "name": "",
          "type": "address"
        }
      ],
      "stateMutability": "view",
      "type": "function"
    },
    {
      "inputs": [],
      "name": "result",
      "outputs": [
        {
          "internalType": "enum IPredictionMarket.Outcome",
          "name": "",
          "type": "uint8"
        }
      ],
      "stateMutability": "view",
      "type": "function"
    },
    {
      "inputs": [],
      "name": "totalBets",
      "outputs": [
        {
          "internalType": "uint256",
          "name": "",
          "type": "uint256"
        }
      ],
      "stateMutability": "view",
      "type": "function"
    },
    {
      "inputs": [],
      "name": "totalVolume",
      "outputs": [
        {
          "internalType": "uint256",
          "name": "",
          "type": "uint256"
        }
      ],
      "stateMutability": "view",
      "type": "function"
    }
  ],
  "bytecode": "0x608080604052346100be5760016000557ff0c57e16840df040f15088dc2f81fe391c3923bec73e23a9662efc9c229c6a009081549060ff8260401c166100af57506001600160401b036002600160401b03198282160161006a575b6040516132ba9081620000c48239f35b6001600160401b031990911681179091556040519081527fc7f505b2f371ae2175ee4913f4499e1f2633a7b5936321eed1cdaeb6115181d290602090a138808061005a565b63f92ee8a960e01b8152600490fd5b600080fdfe608080604052600436101561001357600080fd5b60003560e01c90816302d05d3f146125a85750806304f3bcec1461257f5780630910a5101461255a5780630c3f6acf14610a9a5780630f15f4c0146124a357806312424e3f146123f35780631b1a775414612215578063201c5cc11461213957806323341a0514611dcd5780632ddfd37814611ce15780632fb2c8b114611b8b57806332c1946614611a9f578063365d57a414611a815780634aa81f21146117f45780634c5be574146117cd578063597be6d1146117af5780635f81a57c14611791578063653721471461176b5780636bfefd6b146115dd5780636eeaa27114610e7757806377c1aba914610e4a5780637b10399914610e21578063a877933f14610dfe578063ac3791e314610dc4578063b401faf114610c5d578063b5545a3c14610b54578063befa1e2f14610b36578063c45a015514610b0d578063d3faf2ad14610ae7578063d73fe0aa14610ac2578063d816574314610a9a578063dbb3f53714610a74578063dcb3b30e14610596578063f21ffa6b146101fc578063f3e41e90146101de5763fb775b13146101ab57600080fd5b346101d95760403660031901126101d95760206101d16101c9612671565b600435612eba565b604051908152f35b600080fd5b346101d95760003660031901126101d9576020600854604051908152f35b346101d9576020806003193601126101d95760043560048110156101d95761022261281e565b60ff600154166006811015610439576002036105845760ff60095460081c1661057257600854421061056057600081158015610550575b61053e57600654604051631c2d8fb360e31b815260008051602061324583398151915260048201526001600160a01b039185908290602490829086165afa90811561050557600091610511575b50604485836102b3613144565b1660405192838092632474521560e21b82526000805160206131e583398151915260048301523360248301525afa80156105055783916000916104cd575b501591826104bf575b50506104ad576024908461031360105460115490612681565b9161031c6130c8565b1660405193848092633fdc995960e01b82527f524dc2c7f62e30cda4f8dda310205b09efc63da5dff5933c2a44b6c04ee1859f60048301525afa6000928161047e575b5061044f575b50506103708261278d565b61010061ff00196009541617600955601054601855601154601955601554601a55601654601b55600360ff19600181601c541617601c553360018060a01b0319600454161760045560015416176001556104395760039160008051602061326583398151915291604051428152817f0e512627591987181ca91facfd73461afa829898351cda88f57ce4beb028965c843393a36040519033907f7999b01fdb75451416caae1ac46fa4bc78a7dd1a897a6ca6cba7536cce1dfafc600080a3428152a26001600055005b634e487b7160e01b600052602160045260246000fd5b81151580610475575b15610365576127109161046a91612860565b046012558380610365565b50801515610458565b9092508581813d83116104a6575b61049681836126c5565b810103126101d95751918661035f565b503d61048c565b60405163066fba9760e41b8152600490fd5b9091501633141581866102fa565b809250878092503d83116104fe575b6104e681836126c5565b810103126101d9576104f883916126e6565b876102f1565b503d6104dc565b6040513d6000823e3d90fd5b6105319150853d8711610537575b61052981836126c5565b810190612841565b856102a6565b503d61051f565b60405163c74a206d60e01b8152600490fd5b50506000600260ff831611610259565b60405163dca075a360e01b8152600490fd5b60405163aa43cb2d60e01b8152600490fd5b604051635a90bb8d60e11b8152600490fd5b60403660031901126101d95760043560ff81168091036101d95760248035906105bd61281e565b60ff600154166006811015610a5f576002036105845782158015610a55575b61053e57600483101590816108235734156108ee57600854421015610a435760ff60095460081c16610a43576001600160a01b036106186130c8565b604051633fdc995960e01b8082527f664f87d79eece612f391327034a4ba43b5c5519611e6e7047fc2159a479fd04760048301526020969390921691869182818781875afa60009181610a12575b506109ef575b50846040518094819382527faf085a9a3a233f32e1772cfc9257eafb3649a012883ae20ad074733562a8fe8260048301525afa600091816109c0575b5061098f575b5080610900575b50816108235760018414916106ca8334612f68565b93909485156108ee5784156108ee573485116108ee57601790336000525260406000206001810190815415918215806108be575b6108ac57600292610889575b610715878254612681565b905501610723868254612681565b905561073184600b54612681565b600b55156108665761074584601554612681565b60155561075483601054612681565b6010555b61076283346127cb565b80610837575b5061082357506107a37f666947ffae4e0dc54b628ab0bafb613054b73d0ad2901915c2555855e4ac5d45916040519182913395429184612808565b0390a37ff81b1f9d8b5d36a5a67d13006a8b091a9b63e2a38b331d315d99c6daefd2ddcc6015546016546107de604051928392429184612808565b0390a17fc48bf097a1e2d97330ef993f584d2fc6b6eaaef873f1816b874cd6e8a34b7909601054601154610819604051928392429184612808565b0390a16001600055005b634e487b7160e01b60009081526021600452fd5b600080808093335af16108486127d8565b50156108545785610768565b6040516312171d8360e31b8152600490fd5b61087284601654612681565b60165561088183601154612681565b601155610758565b8860ff198354161782554260038301556108a4600a546127bc565b600a5561070a565b60405163a1f8e60160e01b8152600490fd5b5081546000955060ff1660048110156108d9578914156106fe565b86634e487b7160e01b60005260216004526000fd5b604051639de3d44160e01b8152600490fd5b60408051631316f95d60e21b8152935083600481305afa9283156105055760009060009461095b575b506000936001870361095457505b1061094257846106b5565b60405163428637bb60e11b8152600490fd5b9050610937565b905061098091935060403d604011610988575b61097881836126c5565b8101906127a6565b929086610929565b503d61096e565b80151590816109b6575b506109a457856106ae565b60405163508bf05560e11b8152600490fd5b9050341186610999565b9091508581813d83116109e8575b6109d881836126c5565b810103126101d9575190876106a8565b503d6109ce565b9091503410610a005785908861066c565b604051631a6254d160e31b8152600490fd5b8481959293503d8311610a3c575b610a2a81836126c5565b810103126101d957879251908a610666565b503d610a20565b6040516330e2a62560e11b8152600490fd5b50600283116105dc565b50634e487b7160e01b60009081526021600452fd5b346101d95760003660031901126101d957602060ff60095460081c166040519015158152f35b346101d95760003660031901126101d957602060ff60015416610ac060405180926125cc565bf35b346101d95760003660031901126101d957604060155460165482519182526020820152f35b346101d95760403660031901126101d95760206101d1610b05612671565b600435612cda565b346101d95760003660031901126101d9576005546040516001600160a01b039091168152602090f35b346101d95760003660031901126101d9576020600a54604051908152f35b346101d95760003660031901126101d957610b6d61281e565b60095460ff8160081c1615908115610c45575b50610c335733600052601760205260406000206001810154908115610c2157600481019081549060ff8216610c0f578392600160059360ff19161790550155600080808084335af1610bd06127d8565b5015610854576040519081524260208201527f7472e24de4628e34b41a2aa1688ed4b46a9145b2de1cf93d74902473ccc1740d60403392a26001600055005b604051630c8d9eab60e31b8152600490fd5b60405163c68bdd8160e01b8152600490fd5b604051630a5a0fc560e31b8152600490fd5b60ff9150166004811015610439576003141581610b80565b346101d95760003660031901126101d957610c7661281e565b60ff8060015416600681101561043957600503610d885760095490808260081c1615610d7657336000526017602052604060002090600182015415610c21576004820191825491808316610c0f57610ccd336129d9565b948515610d235781166004811015806104395760018203610d6e576015545b1580610d54575b159283610d35575b505050610d23578392600160059360ff19161790550155600080808084335af1610bd06127d8565b6040516358cd4fc160e11b8152600490fd5b9091925083541690610439576004811015610439571415858080610cfb565b505081835416600090600481101561043957821415610cf3565b601654610cec565b60405163174b639360e11b8152600490fd5b60405162461bcd60e51b815260206004820152601460248201527313585c9ad95d081b9bdd08199a5b985b1a5e995960621b6044820152606490fd5b346101d95760003660031901126101d95760085442101580610dee575b6020906040519015158152f35b5060095460081c60ff1615610de1565b346101d95760203660031901126101d95760206101d1610e1c61265b565b6129d9565b346101d95760003660031901126101d9576006546040516001600160a01b039091168152602090f35b346101d95760203660031901126101d9576020610e6d610e6861265b565b612bc9565b6040519015158152f35b346101d9576101003660031901126101d957610e9161265b565b6024356001600160401b0381116101d957610eb09036906004016125d9565b91906044356001600160401b0381116101d957610ed19036906004016125d9565b6064949194356001600160401b0381116101d957610ef39036906004016125d9565b9560843594919390916001600160a01b03861686036101d95760c4356001600160a01b03811681036101d95760008051602061322583398151915254976001600160401b03891615806115cf575b60016001600160401b038b161490816115c5575b1590816115bc575b506115aa5760016001600160401b03198a16176000805160206132258339815191525560ff8960401c161561157d575b6001600160a01b0381161561156b576001600160a01b0388161561156b57831561053e5785158015611563575b61053e574260a435111561153c576303c26700420180421161154d5760a4351161153c57600654916001600160a01b038316610572576001600160a01b038116611480575b601380546001600160a01b039283166001600160a01b03199182161790915560e435601455600580543390831617905591169116176006556001600160401b0382116112b4578190611052600c54612753565b601f8111611425575b50600090601f83116001146113b0576000926113a5575b50508160011b916000199060031b1c191617600c555b6001600160401b0382116112b45781906110a3600d54612753565b601f811161134a575b50600090601f83116001146112d5576000926112ca575b50508160011b916000199060031b1c191617600d555b6001600160401b0384116112b4576110f2600e54612753565b601f8111611261575b50600090601f85116001146111e75760ff9491600091836111dc575b50508160011b916000199060031b1c191617600e555b60018060a01b031660018060a01b0319600754161760075560a43560085542600f5561ffff196009541660095581196001541660015560006000805160206132658339815191526020604051428152a260401c161561118857005b60ff60401b196000805160206132258339815191525416600080516020613225833981519152557fc7f505b2f371ae2175ee4913f4499e1f2633a7b5936321eed1cdaeb6115181d2602060405160018152a1005b013590508580611117565b600e60009081526000805160206131c58339815191529290601f1987169060205b82821061124957505091600193918760ff98941061122f575b505050811b01600e5561112d565b0135600019600384901b60f8161c19169055858080611221565b80600185978294968801358155019601930190611208565b600e6000526000805160206131c5833981519152601f860160051c810191602087106112aa575b601f0160051c01905b81811061129e57506110fb565b60008155600101611291565b9091508190611288565b634e487b7160e01b600052604160045260246000fd5b0135905086806110c3565b600d60009081529350600080516020613205833981519152915b601f1984168510611332576001945083601f19811610611318575b505050811b01600d556110d9565b0135600019600384901b60f8161c1916905586808061130a565b818101358355602094850194600190930192016112ef565b600d600052909150600080516020613205833981519152601f840160051c81016020851061139e575b90849392915b601f830160051c8201811061138f5750506110ac565b60008155859450600101611379565b5080611373565b013590508880611072565b600c600090815293506000805160206131a5833981519152915b601f198416851061140d576001945083601f198116106113f3575b505050811b01600c55611088565b0135600019600384901b60f8161c191690558880806113e5565b818101358355602094850194600190930192016113ca565b600c6000529091506000805160206131a5833981519152601f840160051c810160208510611479575b90849392915b601f830160051c8201811061146a57505061105b565b60008155859450600101611454565b508061144e565b604051631d54a23f60e31b815260e43560048201526000816024816001600160a01b0386165afa908115610505576000906000926114ee575b50156114c55750610fff565b6040516315fdc31f60e31b8152602060048201529081906114ea906024830190612629565b0390fd5b9150503d806000833e61150181836126c5565b8101906040818303126101d957611517816126e6565b9160208201516001600160401b0381116101d957611535920161270e565b908d6114b9565b6040516282a4d560e51b8152600490fd5b634e487b7160e01b600052601160045260246000fd5b508915610fba565b6040516311a1e69760e01b8152600490fd5b68ffffffffffffffffff198916680100000000000000011760008051602061322583398151915255610f8d565b60405163f92ee8a960e01b8152600490fd5b9050158b610f5d565b303b159150610f55565b5060ff8960401c1615610f41565b346101d95760003660031901126101d9576115f661281e565b60095460ff8160081c16610572576001600160a01b03611614613144565b169060405191632474521560e21b8084527fa49807205ce4d355092ef5a8a18f56e8913cf4a201fbe287825b095693c2177560048501523360248501526020938481604481865afa918215610505578591600093611733575b5060446040518095819382526000805160206131e583398151915260048301523360248301525afa918215610505576000926116fc575b501590816116f3575b506104ad576101039061ffff19161760095560037f0e512627591987181ca91facfd73461afa829898351cda88f57ce4beb028965c604051924284523393a36001600055005b905015836116ad565b9091508381813d831161172c575b61171481836126c5565b810103126101d957611725906126e6565b90846116a4565b503d61170a565b8281939294503d8311611764575b61174b81836126c5565b810103126101d95761175d85916126e6565b918661166d565b503d611741565b346101d95760003660031901126101d957602060ff60095416610ac0604051809261264e565b346101d95760003660031901126101d9576020600b54604051908152f35b346101d95760003660031901126101d9576020600254604051908152f35b346101d95760003660031901126101d95760406117e86128c7565b82519182526020820152f35b346101d9576020806003193601126101d95760043560048110156101d95761181a61281e565b60ff60015416600681101561043957600381141580611a76575b611a4f5750600081158015611a3f575b61053e57600654604051631c2d8fb360e31b815260008051602061324583398151915260048201526001600160a01b039185908290602490829086165afa8015610505578291600091611a22575b501633141580611a14575b6104ad57601c5460ff811615611927575b50506118b98261278d565b61010061ff00196009541617600955600560ff196001541617600155426003556104395781600080516020613265833981519152917f3a857c7f5c32fc8fdc141370d2de1e7a786eb19133eb6c59feb1c8fad14a46c8600594604051428152a2604051428152a26001600055005b602491601054601154918761193c8484612681565b916119456130c8565b1660405196878092633fdc995960e01b82527f524dc2c7f62e30cda4f8dda310205b09efc63da5dff5933c2a44b6c04ee1859f60048301525afa90816000926119e4575b600196506119b5575b5050601855601955601554601a55601654601b5560ff191617601c5583806118ae565b811515806119db575b1561199257612710916119d091612860565b046012558780611992565b508015156119be565b91508886813d8311611a0d575b6119fb81836126c5565b810103126101d9576001955191611989565b503d6119f1565b50806005541633141561189d565b611a399150863d88116105375761052981836126c5565b86611892565b50506000600260ff831611611844565b6040516335a37e5f60e11b8152604491611a6d9060048301906125cc565b60056024820152fd5b506004811415611834565b346101d95760003660031901126101d9576020600354604051908152f35b346101d95760203660031901126101d957611ab861265b565b600060a0604051611ac8816126aa565b828152826020820152826040820152826060820152826080820152015260018060a01b0316600052601760205260c0604060002060405190611b09826126aa565b611b1760ff82541683612893565b6001810154906020830191825260028101546040840190815260038201549060608501918252600560ff6004850154169360808701941515855201549360a08601948552611b6960405180975161264e565b51602086015251604085015251606084015251151560808301525160a0820152f35b346101d95760203660031901126101d9576004356001600160401b0381116101d957611bbb9036906004016125d9565b60015460ff811660068110156104395760038103611cba5750600654604051631c2d8fb360e31b815260008051602061324583398151915260048201526001600160a01b03916020908290602490829086165afa8015610505578291600091611c9c575b50163314159081611c8d575b506104ad5760ff191660041760015560405133927f3c150c6a3a530b19cfd99928dc30c9dd89a28348730c2472d892de5561c6803a928291611c6e91908361289f565b0390a260046000805160206132658339815191526020604051428152a2005b90506005541633141584611c2b565b611cb4915060203d81116105375761052981836126c5565b86611c1f565b6040516335a37e5f60e11b8152604491611cd89060048301906125cc565b60046024820152fd5b346101d95760003660031901126101d957601354601454906001600160a01b03168015611d9657604051638f784bc160e01b8152600081600481855afa801561050557600090611d54575b611d5091505b60405193849384526020840152606060408401526060830190612629565b0390f35b503d806000833e611d6581836126c5565b8101906020818303126101d9578051916001600160401b0383116101d957611d5092611d91920161270e565b611d2c565b60405160408101908082106001600160401b038311176112b457611d509160405260048152634e6f6e6560e01b6020820152611d32565b346101d95760003660031901126101d9576000610120604051611def8161268e565b6060815260606020820152606060408201528260608201528260808201528260a08201528260c08201528260e082015282610100820152015260018060a01b0360075416600f5460085460095490600a54600b549160405194611e518661268e565b604051600c54816000611e6383612753565b808352926001811690811561211a57506001146120cc575b611e87925003826126c5565b8652604051600d54816000611e9b83612753565b80835292600181169081156120ad575060011461205f575b611ebf925003826126c5565b6020870152604051966000600e54611ed681612753565b808b52906001811690811561203b5750600114611fed575b5097611eff8160ff999a03826126c5565b60408901526060880152608087015260a0860152611f2284841660c08701612893565b60e085015261010084015260081c161515610120820152604051809160208252610120611f91611f6083516101406020870152610160860190612629565b611f7c602085015191601f199283888303016040890152612629565b90604085015190868303016060870152612629565b9160018060a01b036060820151166080850152608081015160a085015260a081015160c0850152611fca60c082015160e086019061264e565b60e081015161010085015261010081015182850152015115156101408301520390f35b600e60009081526000805160206131c58339815191529a9250905b80821061202057509098508801602001611eff611eee565b91996001818c60208581955492010152019101909991612008565b60ff19166020808d019190915291151560051b8b019091019150611eff9050611eee565b50600d600090815290916000805160206132058339815191525b818310612091575050906020611ebf92820101611eb3565b6020919350806001915483858801015201910190918392612079565b60209250611ebf94915060ff191682840152151560051b820101611eb3565b50600c600090815290916000805160206131a58339815191525b8183106120fe575050906020611e8792820101611e7b565b60209193508060019154838588010152019101909183926120e6565b60209250611e8794915060ff191682840152151560051b820101611e7b565b346101d95760203660031901126101d9576004356001600160401b0381116101d9576121699036906004016125d9565b6005546001600160a01b03163303612203576001549160ff8316600681101561043957801515806121f8575b611a4f575060057fb24ef3461af686cd79cbf313cbe329e9e0ee4d04ab3eb35b5e8e7a8e19f0b2ad9360ff191617600155426003556121d96040519283928361289f565b0390a160056000805160206132658339815191526020604051428152a2005b506001811415612195565b604051630636a15760e11b8152600490fd5b346101d9576020806003193601126101d95760043560048110156101d95761223b61281e565b60ff60015416600681101561043957600203610584576008544210610560576000811580156123e3575b61053e57600654604051631c2d8fb360e31b81526000805160206132458339815191526004820152906001600160a01b039085908390602490829085165afa918215610505576000926123c4575b50604485826122c0613144565b1660405192838092632474521560e21b82526000805160206131e583398151915260048301523360248301525afa9081156105055760009161238f575b50159182612381575b50506104ad576123158261278d565b600480546001600160a01b031916331790556001805460ff1916600317905561043957600391600080516020613265833981519152916040519033907f7999b01fdb75451416caae1ac46fa4bc78a7dd1a897a6ca6cba7536cce1dfafc600080a3428152a26001600055005b909150163314158480612306565b90508581813d83116123bd575b6123a681836126c5565b810103126101d9576123b7906126e6565b866122fd565b503d61239c565b6123dc919250853d87116105375761052981836126c5565b90856122b3565b50506000600260ff831611612265565b346101d95760003660031901126101d9576005546001600160a01b031633036122035760015460ff81166006811015610439578061247c5760018260ff1916176001557fd92bb9e130abbedd10c99eb70af2c4bf2d534f985df768e29fd28e1593e9d2026020604051428152a160016000805160206132658339815191526020604051428152a2005b6040516335a37e5f60e11b815260449161249a9060048301906125cc565b60016024820152fd5b346101d95760003660031901126101d9576005546001600160a01b031633036122035760015460ff8116600681101561043957600181036125335760028260ff191617600155426002557fee570fee9d8debeedea533b8cdfde6b9d9995b915869d4d10d350e75a9bf0f886020604051428152a160026000805160206132658339815191526020604051428152a2005b6040516335a37e5f60e11b81526044916125519060048301906125cc565b60026024820152fd5b346101d95760003660031901126101d957604060105460115482519182526020820152f35b346101d95760003660031901126101d9576004546040516001600160a01b039091168152602090f35b346101d95760003660031901126101d9576007546001600160a01b03168152602090f35b9060068210156104395752565b9181601f840112156101d9578235916001600160401b0383116101d957602083818601950101116101d957565b60005b8381106126195750506000910152565b8181015183820152602001612609565b9060209161264281518092818552858086019101612606565b601f01601f1916010190565b9060048210156104395752565b600435906001600160a01b03821682036101d957565b6024359060ff821682036101d957565b9190820180921161154d57565b61014081019081106001600160401b038211176112b457604052565b60c081019081106001600160401b038211176112b457604052565b90601f801991011681019081106001600160401b038211176112b457604052565b519081151582036101d957565b6001600160401b0381116112b457601f01601f191660200190565b81601f820112156101d9578051612724816126f3565b9261273260405194856126c5565b818452602082840101116101d9576127509160208085019101612606565b90565b90600182811c92168015612783575b602083101461276d57565b634e487b7160e01b600052602260045260246000fd5b91607f1691612762565b60048110156104395760ff801960095416911617600955565b91908260409103126101d9576020825192015190565b600019811461154d5760010190565b9190820391821161154d57565b3d15612803573d906127e9826126f3565b916127f760405193846126c5565b82523d6000602084013e565b606090565b6040919493926060820195825260208201520152565b60026000541461282f576002600055565b604051633ee5aeb560e01b8152600490fd5b908160209103126101d957516001600160a01b03811681036101d95790565b8181029291811591840414171561154d57565b811561287d570490565b634e487b7160e01b600052601260045260246000fd5b60048210156104395752565b90918060409360208452816020850152848401376000828201840152601f01601f1916010190565b6013546001600160a01b03169081156129d0576015546064810180911161154d576016546064810180911161154d5761291c93604092601454845196879485938493638878f0f760e01b855260048501612808565b03915afa9182156105055760009081936129ad575b508061298c5750620f4240915b8061296b5750620f4240905b612774808410612963575b80831061295f5750565b9150565b925082612955565b6305f5e1000490620f4240808311612984575b5061294a565b91503861297e565b6305f5e1000491620f42408084116129a5575b5061293e565b92503861299f565b90506129c891925060403d81116109885761097881836126c5565b919038612931565b614e2091508190565b6009549060ff8260081c1615612bc2576001600160a01b0316600090815260176020526040808220905191612a0d836126aa565b612a1b60ff83541684612893565b6001820154938460208501526002830154604085019581875260038501546060870152600560049560ff878201541615156080890152015460a087015215612bb95715612bb157601c5460ff16928315612ba857601a54945b8415612b9f57601b54925b8515612b9657601854955b15612b8b5760ff601954915b169383851015612b785790612ac191600186149889600014612b715780995b15612b69575096612681565b948615612b145750519080821015612b01575003612afa575061275092612aee612af592601254906127cb565b9051612860565b612873565b9250505090565b634e487b7160e01b845260219052602483fd5b955095939295519080821015612b565750141580612b4d575b612b375750505090565b612750935090612aee612af592601254906127cb565b50821515612b2d565b634e487b7160e01b875260219052602486fd5b905096612681565b8199612ab5565b634e487b7160e01b865260218452602486fd5b60ff60115491612a96565b60105495612a8a565b60165492612a7f565b60155494612a74565b509250505090565b50509250505090565b5050600090565b6009549060ff8260081c1615612bc2576001600160a01b0316600090815260176020526040808220905192909190612c00846126aa565b612c0e60ff84541685612893565b60018301548060208601526002840154604086015260038401546060860152600560ff60048601541694608087019515158652015460a086015215159384612c64575b50505081612c5d575090565b9050511590565b909192935051906004821015612ca05760ff16916004831015612c8c57501490388080612c51565b634e487b7160e01b81526021600452602490fd5b634e487b7160e01b83526021600452602483fd5b9192608093969594919660a0840197845260208401526040830152151560608201520152565b6013546001600160a01b0316918215612eb2578115612eb25760ff166001918282149182159081612ea6575b50612e9d57600090600a8102818104600a03612e8957926064820495839260149788549160155493601654955b8b8810612d53575b5050505050505050612d4e929350612681565b901c90565b9091929394959698612d65818a612681565b8b1c908115612e7757869060408051906306c56b4760e41b82528b8b8380612d98898b602096879660049c8d8701612cb4565b03818b5afa918215612e6d5750600091612e3e575b509050612dba8888612681565b811115612e095750506000198201918211612df45750985b89891015612def57612de3906127bc565b96959493929190612d33565b612d3b565b601190634e487b7160e01b6000525260246000fd5b909b9a50612e1787876127cb565b1115612e2e578b8201809211612df4575097612dd2565b509a505050505050505050505090565b82813d8311612e66575b612e5281836126c5565b81010312612e635750518038612dad565b80fd5b503d612e48565b513d6000823e3d90fd5b50505050505050505050505050600090565b634e487b7160e01b83526011600452602483fd5b50505050600090565b60029150141538612d06565b505050600090565b9060018060a01b0360135416908115612eb2578215612eb25760ff1691600183149283159081612f5c575b50612eb25760209160145460155490612f1860165494604051978896879586956306c56b4760e41b875260048701612cb4565b03915afa90811561050557600091612f2e575090565b906020823d8211612f54575b81612f47602093836126c5565b81010312612e6357505190565b3d9150612f3a565b60029150141538612ee5565b6013546001600160a01b031692919083156130bc5780156130bc576000906298968094829383968460145494601554601654925b60198110612fb2575b5050505050505050509190565b9091929394959697989a612fc6868b612681565b9b8c9a60019d8e1c156130b357908493929160208f968c8f8f996130068f9b8e9c6040519d8e97889687966306c56b4760e41b88521c9360048701612cb4565b03915afa9586156105055760009661307f575b508686116130615750939c9a8b1c9a8d94508b019050808b1161154d578490935b1461305c5785831161305c5761304f906127bc565b9796959493929197612f9c565b612fa5565b9497509a60009d919d1981831c01911c811161154d5784909661303a565b90956020823d6020116130ab575b8161309a602093836126c5565b81010312612e635750519438613019565b3d915061308d565b5099509a612fa5565b50509050600090600090565b600654604051631c2d8fb360e31b81527f59c8cf76d134ad195c42c9258064dcd3954d57a6f03aab70798759cb7383d1f160048201526001600160a01b03916020908290602490829086165afa9081156105055760009161312857501690565b613140915060203d81116105375761052981836126c5565b1690565b600654604051631c2d8fb360e31b81527f32fde5f4784e5f5dafa770ea215049399b708449187d09b883be1bd6a8df5a2060048201526001600160a01b03916020908290602490829086165afa908115610505576000916131285750169056fedf6966c971051c3d54ec59162606531493a51404a002842f56009d7e5cf4a8c7bb7b4a454dc3493923482f07822329ed19e8244eff582cc204f8554c3620c3fd92a19c77d2ea87c7f81d50c74403cb2f401780f3ad919571121efe2bdb427eb1d7b6990105719101dabeb77144f2a3385c8033acd3af97e9423a695e81ad1eb5f0c57e16840df040f15088dc2f81fe391c3923bec73e23a9662efc9c229c6a004e8362d6eeaf6ad62612dae0f6fc9a296fe139a59a3b86417c1e8bb0a673c32c4319894ba3fcaf113f0094a7f41fb80c44ac558aaca17228dc690ba73acfa693a2646970667358221220ba2635396360e8588346af221fcb6ef050c9b320d3fb7e5190fbb0751030707164736f6c63430008140033",
  "linkReferences": {},
  "deployedLinkReferences": {}
}